:100000000C94D0020C94ED020C94ED020C94ED02D1
:100010000C94ED020C94ED020C94ED020C94ED02A4
:100020000C94ED020C94ED020C9485140C94C11305
:100030000C944B1B0C94ED020C94ED020C94ED020D
:100040000C94ED020C94ED020C94ED020C94ED0274
:100050000C94ED020C94D91A0C94ED020C94ED0260
:100060000C94ED020C94ED020C94ED020C94ED0254
:100070000C94ED020C94ED020C94ED020C94ED0244
:100080000C94ED020C94ED020C94ED020C94ED0234
:100090000C94ED020C94ED020C94ED020C94ED0224
:1000A0000C94ED020C94ED020C94ED0263066306D1
:1000B0009D069D06E8060407CD082D09460724087D
:1000C00035083508E409E709EA09ED09F009F309FB
:1000D000F6092A0D2F0D390D2D0D320D370D350D69
:1000E00004122B1299132B1299137312961299134F
:1000F00052136613091E091E1C1E1C1E121E1C1EF6
:100100001C1E1C1E091E091E171E1C1E1C1E171E4F
:1001100029000100E000E100350000001E0014008D
:1001200004001D0034004D001F001A0016001B00C3
:10013000E2002A00200008000700060050002C0002
:1001400021001500090019004F004A002200170085
:100150000A000500000000415007E3020000E30030
:10016000000000424F07E3020000E30000004902E4
:1001700023001C000B0011000000010024001800E7
:100180000D00100052004B0025000C000E00360040
:1001900051002800260012000F0037002F002B000E
:1001A000270013003300380030004E002D003100CE
:1001B0000100025301530000290001000100010069
:1001C000010000003A001E02200222022E0001005F
:1001D0003B001F0221022302010001003C002F020C
:1001E00026022F00010001003D00300227023000EE
:1001F000010001003E00310235003502000001001F
:1002000001000100000001000000010001000100E8
:1002100000000100000001003F00520051002402D4
:10022000000001004000240021001E000100010028
:100230004100250022001F00370001004200260077
:100240002300200027000100430025022E02310078
:100250002E000100440045000F07010001000000CE
:100260000100010001000100010000000100010087
:1002700001000100085D0100010001000100010012
:100280000100F50001000100010001000100F4007F
:100290000100010001000100010001000100010056
:1002A0000100010000000100010001000000010048
:1002B0000000010001000100000001000000010039
:1002C00001000100F2000100000001000100010036
:1002D000F1000100A900F90001000100F000AC00EC
:1002E000AA00F50001000100F300AB00A800F40033
:1002F00001000100010001000100FA00005C0100A2
:10030000AE000100010000000A000000000003062A
:10031000B200080001000000A8000800020002006E
:10032000A0001400030057494E555342000000003E
:100330000000000000008400040007002A004400C0
:100340006500760069006300650049006E00740076
:10035000650072006600610063006500470055009B
:10036000490044007300000050007B003900440045
:100370004200370046003100460044002D0037009F
:100380004500370041002D003400300030003800B7
:100390002D0039003300360042002D0036004200A7
:1003A0004100360043003100390041003300300085
:1003B000380063007D00000000001B0301636F6EC6
:1003C0006669677572652E6572676F646F782D65F3
:1003D0007A2E636F6D0005010902A10185020901F2
:1003E000A1000509190129051500250195057501CB
:1003F00081029501750381010501093009311581DB
:10040000257F95027508810609381581257F95019C
:1004100075088106050C0A38021581257F9501753E
:10042000088106C0C005010980A10185031A810069
:100430002A8300160100260300950175108100C073
:10044000050C0901A10185041A01002A9C0216016C
:1004500000269C02950175108100C005010906A1C6
:10046000018505050719E029E7150025019508759F
:100470000181020507190029EF1500250195F07586
:10048000018102050819012905950575019102955B
:100490000175039101C005010906A101050719E0D5
:1004A00029E7150025019508750181029501750858
:1004B00081010507190029FF150026FF0095067523
:1004C0000881000508190129059505750191029516
:1004D0000175039101C009025200030100A0FA094D
:1004E0000400000103010100092111010001224063
:1004F000000705810308000A090401000103000048
:100500000009211101000122C0000705820320001B
:100510000A0904020002FF000000070583034000EF
:100520000507050403400005120110020000000841
:10053000EDFE071301000102030104033000000077
:1005400016034500720067006F0064006F007800BA
:10055000200045005A00000008035A0053004100E3
:10056000000004030904050F3900021C100500DF18
:1005700060DDD88945C74C9CD2659D9E648A9F00EA
:10058000000306B20045001810050038B60834A96B
:1005900009A0478BFDA0768815B6650001420000D2
:1005A00011241FBECFEFDAE0DEBFCDBF11E0A0E027
:1005B000B1E0EAECF8E402C005900D92A83FB10763
:1005C000D9F723E0A8EFB1E001C01D92A533B2072F
:1005D000E1F70E9482160C9463240C9400004F9261
:1005E0005F926F927F929F92AF92BF92CF92DF9273
:1005F000EF92FF920F931F93CF93DF93CDB7DEB7A8
:100600002A970FB6F894DEBF0FBECDBFFC01008164
:10061000F18083819481892B39F01FEFF11206C09C
:1006200091E00F3F19F403C091E001C090E090FD0C
:1006300034C66F0185E0DE01119601900D928A9516
:10064000E1F7F601228189819A81222349F00E94F3
:10065000F21C182F682F89819A810E946C1D03C09B
:100660000E943F1D182F24E5129FF001112436E04F
:10067000F39EE00DF11D1124E00FF11DEE0FFF1FA1
:10068000E05FFE4F0591149180918F02882319F04D
:100690008091900202C080E090E080FF15C01E8231
:1006A000F6018281882311F081E101C082E18F830C
:1006B000F60180818887818189878EEF8A8765E04E
:1006C000CE0106960E948F190930FDE51F0709F03B
:1006D00040C0F60182818823E1F190914D0281E0D2
:1006E000890F8770987F853020F4892B80934D0285
:1006F00002C090934D0280914D028770FFEF8F9F53
:10070000C001112495958795959587959927909384
:1007100089008093880090938B0080938A00909347
:100720008D0080938C0040914D0250914E0260915B
:100730004F02709150028FE090E00E94F22260918F
:100740008B0270918C0280918D0290918E020E949A
:10075000100DF6018281882319F1033EFCE51F0785
:10076000C1F050F4013E3CE5130781F0023E8CE5F8
:100770001807B1F481E010C0043E9CE5190759F058
:10078000053EECE51E0761F484E006C010924902C4
:1007900005C082E001C083E0809349020E945C0BA7
:1007A00017FF71C0F6018281882309F46CC0809123
:1007B000EC028093F8011092EC02809149028130A2
:1007C00071F048F08230C1F08430E1F486EE0E948E
:1007D0000F2188E115C082EE0E94892113C083E0B9
:1007E0000E94F02088E10E94892188E10E94222154
:1007F00083E00E94E52006C082EE0E94892187E501
:100800000E940F218FE39CE90197F1F700C00000DF
:100810005801E894B7F82CE0E22EF12CC5010E2C1B
:1008200002C0969587950A94E2F7282F2F7041F021
:10083000822F90E02A3010F44D9604C0069702C033
:1008400087E290E00E940F2194E0E91AF108ECEFB2
:10085000EE16EFEFFE0611F780914902813039F074
:1008600040F0823031F0843051F488E206C08CE2EE
:1008700004C082EE0E94222102C00E940F218091BA
:10088000F8018093EC02033FFCE51F0729F180F497
:10089000083D3CE51307C9F0093D8CE5180741F117
:1008A000073D9CE5190739F526E241EE61EE10C0DF
:1008B000053FECE51E07C1F098F0063F2CE5120756
:1008C000D1F427E245EE66EE03C027E245EE65EE81
:1008D000C6010E943F0EE1C426E241EE60EEF8CF71
:1008E00027E245EE64EEF4CF26E241EE62EEF0CF71
:1008F00028E241E0ECCFF6018281882309F439C176
:100900001092F9010230FCE51F0708F41CC1063102
:100910002CE5120738F098012A5F3C452730310555
:1009200008F011C10E94D11B9093600280935F0276
:100930000F303CE5130709F4CFC008F042C008307F
:100940009CE5190709F4A8C0F0F40430FCE51F0782
:1009500009F490C068F402303CE5130709F486C03E
:1009600003301C4509F0DFC080915F028260D9C06E
:1009700006309CE5190709F487C008F089C080910A
:100980005F028860CEC00B30FCE51F0709F495C0FC
:1009900068F409303CE5130709F482C00A301C45AD
:1009A00009F0C1C080915F02886080C00D309CE575
:1009B000190709F486C008F087C080915F028D7F17
:1009C000B0C00A3FFCE51F0709F457C050F50231DB
:1009D0003CE5130709F488C068F400319CE5190769
:1009E00009F47EC001311C4509F09DC080915F0271
:1009F0008F7B97C00431FCE51F0709F487C008F41A
:100A000079C005311C4509F08EC080915F0282FBE0
:100A1000222720F991E0922790FB82F990FB83F93D
:100A200080C00D3F8CE5180709F452C058F40B3F05
:100A3000ECE51E0729F10C3F1C4509F074C08091BC
:100A4000600260C00F3F2CE5120709F458C080F126
:100A500001151D4509F067C080916002982F90959F
:100A600091708E7F892B90FB81F94DC080915F0240
:100A7000816057C080915F0219C0809160021BC0E5
:100A80008091600282603FC080915F02806149C0B6
:100A900080915F02806245C080915F02806441C0A6
:100AA0000E94D02080915F0280683BC0846039C082
:100AB000809160028260816026C080915F028E7F9B
:100AC00030C080915F0219C080915F02877F29C08A
:100AD000809160028D7F17C080915F028F7E21C060
:100AE00080915F028F7D1DC00E94D02080915F02A7
:100AF0008F7717C080915F02877F8B7F12C08091B4
:100B000060028D7F8E7F809360020DC00E94D02096
:100B100080915F0287FB222720F991E0922790FBCA
:100B200087F980935F0260915F021091600284E018
:100B300090E00E94E022612F81E290E00E94E0229A
:100B40000E94D020AAC30631FCE51F0719F5809149
:100B5000EC028A7A91E009F490E09093FA018823FC
:100B600011F065E301C069E282E992E00E949C1BFA
:100B70000EC006311C4509F062C08091FA0188233D
:100B800009F489C365E382E992E00E94741B0E9424
:100B9000AC1C83C30E3D9CE5190709F446C0083020
:100BA000EDE51E0709F444C001151C4509F047C0D6
:100BB0000E94D0200FEF14E32CE0015010402040A1
:100BC000E1F700C00000F89481E08093E00080E24B
:100BD0008093D8001092C9008FE19EE40197F1F74D
:100BE00000C000001DBA109268001CBC10BE1FBAE5
:100BF00010927A0010926E0010926F0010927100A5
:100C0000109272001092C9001092BC0014B817B86C
:100C10001AB81DB810BA1092BC0015B818B81BB895
:100C20001EB811BA0C94003F38C30E94E21B35C3B2
:100C30009091910281E08927809391022EC3F60161
:100C400000811181882349F0C8010E94F21CF82E0E
:100C5000682FC8010E946C1D04C0C8010E943F1D7E
:100C6000F82EB8018F2D0E94620B8C01B82EF60170
:100C7000E580E2949FE0E922F280F1101092EB020D
:100C80008091E902877079F0FF2069F080E2800F9F
:100C9000883048F082E00E94BD1D8091E902877093
:100CA000AA24A3948111A12C912E92948FE09822D2
:100CB000892D90E08C30910508F0CFC2FC01EA5AF2
:100CC000FF4F0C943C23812F807F1F70882311F0ED
:100CD0001295107FFF20B9F0112309F448C280E279
:100CE000800F883010F0B11006C08091EC02182BF4
:100CF0001093EC0205C08091EB02182B1093EB02CD
:100D00000E94AC1C34C2802F0E942221112309F4BE
:100D1000A4C2005E1095083010F0B11006C080919A
:100D2000EC0218231093EC0205C08091EB0218230B
:100D30001093EB020E94AC1C90C2812F807F1F7029
:100D4000803211F01295107FBB2021F0F1E0BF1628
:100D5000E1F028C0FF2081F08091ED02EE2051F0FB
:100D600001E0E01207C0182B181709F476C210939F
:100D7000ED0273C2812B10C0EE2021F021E0E216BB
:100D800009F46BC20E94A61C1FC0FF2041F031E095
:100D90003E1508F462C2812F0E9405215EC2E11057
:100DA0005CC212C0FF2019F0EE20A9F3E0C1EE20D2
:100DB00059F0093309F0EDC18FEF97EEE3E0815070
:100DC0009040E040E1F7E3C1812F0E94FA2045C244
:100DD000812F86958695837019F0813059F03DC238
:100DE000FF2019F0C801937002C080E090E00E94DB
:100DF0003A0B39C2FF2019F0C801937002C080E09D
:100E000090E00E94240B2FC2FF20F9F0053F51F023
:100E1000063F71F0043FA9F48091FB019091FC0121
:100E200081600BC08091FB019091FC01826005C044
:100E30008091FB019091FC0184609093FC01809370
:100E4000FB01802F0E94711A1EC0053F51F0063F22
:100E500071F0043FA9F48091FB019091FC018E7F19
:100E60000BC08091FB019091FC018D7F05C08091AA
:100E7000FB019091FC018B7F9093FC018093FB011F
:100E8000802F0E94A7190E94351BEDC1812F83700E
:100E900009F069C0F110E5C1902F92959695977071
:100EA000990F990F802F8F70482E512C612C712C27
:100EB000092E04C0440C551C661C771C0A94D2F7FA
:100EC00004FF12C04FE050E060E070E004C0440F47
:100ED000551F661F771F9A95D2F7DB01CA018095CF
:100EE0009095A095B09503C080E090E0DC01169548
:100EF0001695412F4370423019F1C8F40091EE026B
:100F00001091EF022091F0023091F102413059F03E
:100F100084299529A629B729BC01CD016023712315
:100F2000822393230AC0402A512A622A732ABC01D1
:100F3000CD0164297529862997290E94781E91C1BF
:100F400084299529A629B7290091EE021091EF0274
:100F50002091F0023091F102BC01CD016027712790
:100F600082279327EACFFF2019F0812F817001C0DB
:100F70008695882309F475C1902F92959695977060
:100F8000990F990F802F8F70482E512C612C712C46
:100F9000092E04C0440C551C661C771C0A94D2F719
:100FA00004FF12C04FE050E060E070E004C0440F66
:100FB000551F661F771F9A95D2F7DB01CA018095EE
:100FC0009095A095B09503C080E090E0DC01169567
:100FD0001695412F43704230D9F068F500918B028D
:100FE00010918C0220918D0230918E02413059F087
:100FF00084299529A629B729BC01CD016023712335
:10100000822393231EC0402A512A622A732A13C0C6
:1010100084299529A629B72900918B0210918C0269
:1010200020918D0230918E02BC01CD016027712785
:101030008227932706C0BC01CD0164297529862922
:1010400097290E943B1E0DC11F70FF2039F0812F90
:101050000E94D61D802F0E94052103C1802F0E946F
:10106000FA20812F0E94981DFCC0802FF2EFBF163E
:1010700009F43EC0FB1538F020EFB21661F031EFF5
:10108000B31689F16FC093EFB916C9F1E4EFBE163C
:1010900009F44CC067C0FF2009F1E110DEC01F71E8
:1010A00081E090E0A0E0B0E0AC01BD0104C0440FDD
:1010B000551F661F771F1A95D2F780918B0290916A
:1010C0008C02A0918D02B0918E028A019B010827AB
:1010D00019272A273B27C901B80125C021E02E1571
:1010E00008F4BBC0DCCFFF2029F0812F8F712CC00A
:1010F000FF20D9F3812F8F710E94981DAEC0FF2071
:1011000079F01F7181E090E0A0E0B0E0BC01CD017A
:1011100004C0660F771F881F991F1A95D2F703C066
:1011200060E070E0CB010E943B1E97C0FF2079F089
:101130001F71812F0E94D61D38E0139FC00111241A
:1011400083608093E902812F0E94D61D86C081E0D2
:101150000E94BD1D81E08E1508F07FC082E00E94D4
:10116000BD1D7BC0FF2039F0EE2009F4BECF802FDB
:101170000E94892172C0EE2009F4BCCF893349F462
:101180009FEFE7EEF3E09150E040F040E1F700C060
:101190000000802F0E94222160C012EFB116E1F002
:1011A0001B1538F020EFB21669F031EFB31611F1CC
:1011B0002BC084EFB816C9F0B81660F095EFB916D9
:1011C00071F022C0FF2009F44EC09091F80281E036
:1011D000892708C081E0F826F092F80244C0F11097
:1011E00042C081E08093F8023EC0F1103CC01092F2
:1011F000F80239C0FF2029F08091F702882329F3F3
:1012000029C0EE2011F32FC08091F702EE20C1F02B
:10121000882341F09091F80281E089278093F802B9
:101220001092F702802FFF2019F00E9489211BC025
:101230000E94222186E0F60111928A95E9F713C0F7
:10124000882389F0F1100FC09091F80281E089277E
:101250008093F8021092F70206C088EF890D84305F
:1012600010F40E94500BAA20C1F08091E90280FD89
:1012700014C0F60112828595859585950E94D61D2C
:10128000C6010E94EF028091E902859585958595BA
:101290000E94981D02C069E276CC2A960FB6F89497
:1012A000DEBF0FBECDBFDF91CF911F910F91FF9099
:1012B000EF90DF90CF90BF90AF909F907F906F9016
:1012C0005F904F90089590915F0292FF0DC0282F7C
:1012D0002871283019F4877F846006C0282F247174
:1012E000243011F48B7F886093FF0DC0282F287164
:1012F000283119F4877E846106C0282F2471243197
:1013000011F48B7E88612091600220FF0DC0382F80
:101310003871383019F4877F816006C0382F3171F9
:10132000313011F48E7F886021FF0DC0282F287185
:10133000283119F4877E816106C0282F217121315F
:1013400011F48E7E886194FD877E0895CF93E82FF7
:10135000873080F58091070190910801892B09F071
:1013600047C0CE2F64E670E080E40E941C22909378
:10137000080180930701892BD1F464E670E082E1D3
:101380000E9473229093080180930701892B79F4BE
:1013900081E090E001C0880FCA95EAF764E670E04A
:1013A00080950E9473229093080180930701CF914A
:1013B0000C94C82290E0FC013797E730F105C0F4A7
:1013C000EE59FF4F0C943C23209A289811C0219A83
:1013D00029980EC0229A2A980BC0239A2B9808C0ED
:1013E000529A5A9805C0539A5B9802C03E9A469802
:1013F000CF910895CF93873008F03FC080910701C7
:1014000090910801892B09F041C064E670E080E406
:101410000E941C229093080180930701892B11F0F0
:10142000C0E027C064E670E083E10E9473229093DD
:10143000080180930701892B99F764E670E081E445
:101440000E941C229093080180930701892B41F789
:1014500084E690E00E94A32297FF05C090930801C4
:1014600080930701DDCFC82FC0951092080110921C
:1014700007010E94C8228C2F0AC09FB18FB1807FC4
:10148000869586959370892B809501C080E0CF91D9
:1014900008950F931F93CF93DF93CDB7DEB7679770
:1014A0000FB6F894DEBF0FBECDBF4B8B5C8B6D8B40
:1014B0007E8B8F8B0E891F890115110531F05F3FDF
:1014C00031F481E04F3F19F403C081E001C080E0B6
:1014D00080FD32C0242F30E0A1E0B0E0042E01C036
:1014E000AA0F0A94EAF7852F90E0662319F070910D
:1014F000F80205C0FC01E65FFD4F70817A23772377
:10150000A1F046E0489FF001499FF00D1124E20F41
:10151000F31FEE0FFF1FED5EFE4F40815181FC0176
:10152000E65FFD4F9081A92B06C0FC01E65FFD4FF1
:10153000A0958081A823A08386E0FE013D96DF016F
:10154000982F1D929A95E9F74D875E876F87198BC3
:10155000088BDE01179601900D928A95E1F7CE0176
:1015600007960E94F41E81113EC086E0FE01379668
:10157000DE01119601900D928A95E1F7FF81E885D1
:101580006A857B856115710531F0EF3F31F481E0AB
:10159000FF3F19F403C081E001C080E080FD23C05B
:1015A0002091FF0230E0C901019687709927409190
:1015B000300350E08417950779F1F983EA837D833E
:1015C0006C8396E0929FD001939FB00D1124A050A0
:1015D000BD4FFE01319601900D929A95E1F78093EF
:1015E000FF020E94821E16E0809130039091FF025C
:1015F0008917F9F0189FC001112480509D4F0E9457
:10160000F41E8823B1F08091300390E0019687703A
:10161000992780933003E8CF0E94D0201092FF02D8
:1016200010923003E9EFF2E086E0DF011D928A9527
:10163000E9F767960FB6F894DEBF0FBECDBFDF9116
:10164000CF911F910F9108952091080230910902C6
:101650002817390771F09093090280930802E091EE
:101660006102F0916202309721F00084F185E02D53
:10167000099408952091060230910702281739072E
:1016800071F09093070280930602E0916102F0915D
:101690006202309721F00680F781E02D09940895C9
:1016A000E0916102F0916202309721F00190F081A7
:1016B000E02D099480E00895609149028CE090E06B
:1016C0000C94E022CF93DF9324E5829FC001112484
:1016D000FC0146E0749FE00DF11D1124E60FF11DA1
:1016E000EE0FFF1FE05FFE4FC591D491CE01C238CF
:1016F000D10569F1B0F4C133D10509F475C048F4DE
:10170000C932D10509F469C0CA32D10509F473C0E0
:1017100085C0C533D10509F459C0C933D105B9F025
:101720007DC0C33ED10571F138F4C03ED105B1F0A2
:10173000C23ED10511F172C0C63ED105B9F1C73E16
:10174000D105C9F1C43ED10509F068C024C020917B
:101750005F0220FD5DC021FD5BC060C020915F0283
:1017600020FD50C02091600220FF57C180915F0290
:1017700084FD51C183EE90E050C120915F0222FFB1
:101780004CC1F4CF80915F0282FD3FC08091600226
:1017900080FD3EC0EBCF2091600221FF3EC18091D1
:1017A0005F0284FD38C187EE90E037C120915F026F
:1017B00023FF33C1F4CF80915F0283FD2CC0809161
:1017C000600281FFECCF84EE90E027C120915F02A0
:1017D00025FF23C189E290E020C120915F0225FF0F
:1017E0001CC185E390E019C120915F0226FF15C15D
:1017F0008AE290E012C120915F0226FF0EC181E3D0
:1018000090E00BC189E390E008C182EE90E005C151
:1018100080EE90E002C186EE90E0FFC0C11552E577
:10182000D50708F075C0C11521E5D20728F09C2F17
:101830008827816F906AF1C0C83ED10570F5C03E1F
:10184000D10508F0EAC0C83AD105B8F4C53AD105C7
:1018500050F08C2F855AC82FD0E0C953DE4F8881B5
:1018600090E09064DAC0C130D10509F4D6C008F424
:10187000D2C0249708F4CFC0D0C0CF3BD10508F028
:10188000CAC08C2F885AC82FD0E0CC0FDD1FC6539A
:10189000DE4F888199819464C0C0C11540E2D407AD
:1018A00060F4C11551E0D50708F0B7C0C03FD105BD
:1018B00008F4B1C0CE019065B0C0C11580E4D8076E
:1018C00008F4A9C0C11520E5D20720F4CE019F700D
:1018D000906AA3C0CE01F4E096958795FA95E1F75A
:1018E000282F23703C2F337081E090E002C0880FD6
:1018F000991F3A95E2F79C68922B2C2F2F70269512
:10190000269550E2259F90011124822B932B85C0B0
:10191000C11546E5D40708F03FC0C11555E5D50708
:1019200048F08C2F0E9463098F7190E0982F8827D0
:10193000906273C0C11584E5D80728F09C2F8827D2
:10194000846F906A6AC09E01237033279C2F9695FE
:101950009695C115D34580F441E050E002C0440F94
:10196000551F2A95E2F780E2989F90011124CA0141
:10197000822B932B9C6851C041E050E002C0440F81
:10198000551F2A95E2F780E2989F90011124CA0121
:10199000822B932B9A6841C0C1155AE5D50778F57B
:1019A000C11589E5D80710F18C2F8F700E9463094B
:1019B0009E0194E0369527959A95E1F72F7030E0D7
:1019C000322F22273069A901482B0EC0905681156D
:1019D000904208F58D2F8F710E9463099E01332775
:1019E00030628F71A901582BCA0117C0C11528E5B3
:1019F000D20788F09C2F8827806F906A0EC0C1158F
:101A00004BE5D40740F0CE01C1155CE5D507F0F6F3
:101A10009927906602C080E090E0DF91CF91089511
:101A2000CF92DF92EF92FF926B017C010E94561CD5
:101A300056985E9825982D9826982E9827982F9836
:101A400090E0FC013197E730F105A8F4E759FF4F2A
:101A50000C943C23259A2D9A0EC0259A2D9A269AED
:101A60002E9A09C0259A2D9A04C0259A2D9A269A55
:101A70002E9A279A2F9AC701B601FF90EF90DF9018
:101A8000CF90089580E290E0909308018093070141
:101A90008091030281110EC00E94162281E0809382
:101AA00003022FEF83ED90E3215080409040E1F757
:101AB00000C0000064E670E080E40E941C22909365
:101AC000080180930701892B09F04EC064E670E09D
:101AD00080E00E9473229093080180930701892B74
:101AE00009F042C064E670E080E00E9473229093A7
:101AF000080180930701892BB9F564E670E08FE354
:101B00000E9473229093080180930701892B61F54D
:101B10000E94C82264E670E080E40E941C22909338
:101B2000080180930701892BF9F464E670E08CE0EA
:101B30000E9473229093080180930701892BA1F4DE
:101B400064E670E080E00E94732290930801809325
:101B50000701892B49F464E670E08FE30E94732249
:101B600090930801809307010E94C8228091070189
:101B70000895CF93DF9356985E9825982D982698D0
:101B80002E9827982F98C8E8D0E08FEF90E099839F
:101B90008883AAE8B0E011969C938E93ECE8F0E07D
:101BA00091838083259A2D9A2FEF80E792E0215030
:101BB00080409040E1F700C00000269A2E9A2FEF57
:101BC00080E792E0215080409040E1F700C00000A3
:101BD000279A2F9A2FEF80E792E021508040904083
:101BE000E1F700C0000025982D982FEF80E792E0E4
:101BF000215080409040E1F700C0000026982E98C8
:101C00002FEF80E792E0215080409040E1F700C044
:101C1000000027982F9880914D0287702FEF829FA8
:101C2000C001112495958795959587959927998356
:101C3000888311969C938E939183808356985E98A7
:101C400025982D9826982E9827982F98DF91CF9138
:101C5000089584B1807F84B985B1807F85B98AB1C8
:101C6000837F8AB98BB1837F8BB93E98469808955C
:101C700080B38C7080BB81B3836F81BB08950F9359
:101C80001F93CF93DF93C62FD42F122FFC01828195
:101C90008823C9F06093F9010E94291B90930502E3
:101CA0008093040280E28C0F883008F057C0C77020
:101CB00081E001C0880FCA95EAF7DF91CF911F91AB
:101CC0000F910C9405218091F901681330C0809127
:101CD0000402909105020E94FF1A883C910538F594
:101CE00000E20D0FCD17B9F080E28C0F883040F480
:101CF000C77081E001C0880FCA95EAF70E94FA20F8
:101D0000083028F581E09D2F977001C0880F9A95C3
:101D1000EAF70E940521812F0E940F210830F0F47C
:101D2000D77081E001C0880FDA95EAF70AC080E237
:101D30008C0F883098F4C77081E001C0880FCA9575
:101D4000EAF7DF91CF911F910F910C94FA20812F28
:101D5000DF91CF911F910F910C940F21DF91CF91C3
:101D60001F910F910895BF92CF92DF92EF92FF9251
:101D70000F931F93CF93DF938091070190910801F8
:101D8000892B91F0809102028F5F80930202811172
:101D90000BC00E94420D90E09093080180930701D0
:101DA000892B11F40E94B90D91E5E92E92E0F92EEC
:101DB0008701C0E0B12C87E0C82ECC0E8C2F0E948A
:101DC000A6098C2D0E94A6098C2F0E94FA09F80101
:101DD0009081891721F08083DD24D39401C0D12C18
:101DE0008C2D0E94FA09F8019781891719F08783D1
:101DF00081E001C080E0D82ABD280E94290ECF5F73
:101E00000F5F1F4FC730B9F60E94291B6AEF70E0C1
:101E10000E9414239C01682F8091FE018823E9F120
:101E20001092FE01E0914702F0914802DF011E96F8
:101E300090E07BEF0AEF10E080818B3FA9F0482F04
:101E400050E0681728F06901C41AD50AA60106C037
:101E5000E801C41BD50BAE01420F531F4E31510593
:101E600014F0708301C091E03196EA17FB0721F767
:101E70009093FE01B11002C0911111C01092FD01AA
:101E8000E0914702F09148029091FE01A4E6B2E091
:101E9000AF01425F5F4F80E00FC0B110EFCF809184
:101EA000FD018111EBCF2091910280910002909170
:101EB0000102211119C057C0E70129917E013C910F
:101EC000321741F030813B3F21F460832C9391E045
:101ED00001C081E031961196E417F50769F79093F8
:101EE000FE018093FD01DFCF892B31F425982D98D9
:101EF00026982E9827982F988091000290910102A1
:101F00009170892B79F48091FF01882319F026982C
:101F10002E9802C0269A2E9A9091FF0181E089277F
:101F20008093FF01809100029091010281309847D7
:101F300080F01092910260918B0270918C028091DE
:101F40008D0290918E020E94100D1092010210924B
:101F5000000280910002909101020196909301028B
:101F60008093000210C0892B71F010920102109230
:101F7000000260918B0270918C0280918D02909191
:101F80008E020E94100D8B2DDF91CF911F910F912A
:101F9000FF90EF90DF90CF90BF90089580913F0227
:101FA00087FF11C08091E80082FD05C080913D024D
:101FB0008111F8CF11C08091E8008B770BC0809120
:101FC0003D02882349F08091E80080FFF8CF80919E
:101FD000E8008E778093E8000895982F973068F591
:101FE0009093E900981739F07091EC002091ED0082
:101FF0005091F00003C0242F762F50E021FD02C045
:102000009F5FECCF3091EB003E7F3093EB0030913F
:10201000ED003D7F3093ED003091EB003160309367
:10202000EB007093EC002093ED005093F0002091B2
:10203000EE0027FDE5CF80E008958F708093E900E2
:1020400081E0089520914502309146022617370716
:1020500048F06115710539F42091E8002E7720933E
:10206000E80001C0B901FC0120E06115710591F1A2
:1020700080913D02882309F440C0853009F43FC0B7
:102080008091E80083FD3DC08091E80082FD2FC073
:102090008091E80080FFE9CF2091F3008091F20069
:1020A00090E0922B6115710559F08830910540F44C
:1020B00024912093F1003196615071090196F2CF7D
:1020C00021E0089709F020E08091E8008E77809366
:1020D000E800CBCF2111CCCF0AC080913D028823EC
:1020E00061F0853061F08091E80083FD0AC0809145
:1020F000E80082FFF2CF80E0089582E0089583E057
:10210000089581E0089520914502309146022617F6
:10211000370748F06115710539F42091E8002E77F2
:102120002093E80001C0B901FC0120E061157105B0
:1021300079F180913D028823F1F18530F1F18091B0
:10214000E80083FD3CC08091E80082FD2EC08091B4
:10215000E80080FFEBCF2091F3008091F20090E047
:10216000922B6115710551F08830910538F4219159
:102170002093F100615071090196F3CF21E0089797
:1021800009F020E08091E8008E778093E800CECFC0
:102190002111CFCF0AC080913D02882361F08530A4
:1021A00061F08091E80083FD0AC08091E80082FF21
:1021B000F2CF80E0089582E0089583E0089581E001
:1021C00008951F93CF93DF93CDB7DEB7AA970FB6CD
:1021D000F894DEBF0FBECDBFEFE3F2E08091F100D7
:1021E000819322E0E734F207C9F7809140028930F9
:1021F000B9F150F4823009F4A5C0833009F45FC00E
:10220000813009F0EEC00CC08B3009F470C008F4C6
:1022100088C0823409F4AEC0853409F4C5C0E1C079
:1022200080913F02813A09F0DCC08091E800877F0D
:102230008093E8008091430290914402892B21F41D
:1022400060E28BE192E003C060E080E090E070E04B
:102250000E9483108091E8008B778093E800C1C0D2
:1022600080913F02813209F0BCC08091430290917D
:102270004402029708F0B5C08091E800877F809300
:10228000E8008091E80082FD05C080913D02811147
:10229000F8CFA7C02091F3008091F20090E0922B3C
:1022A000029729F48091F1008B7F813021F4809195
:1022B000F10080931A028091E8008B7758C08091DA
:1022C0003F02813A09F08DC080914302909144020F
:1022D000892B09F086C08091E800877F8093E80011
:1022E0008091E80080FFFCCF809106013BC0809187
:1022F0003F02813209F075C08091430290914402FF
:10230000892B09F06EC08091E800877F8093E800F8
:102310000E94CE0F80914102809306010E94D0203E
:1023200060C080913F02813209F05BC08091E8007B
:10233000877F8093E8000E94CE0F809142028093B5
:1023400019024FC080913F02813A09F04AC0809142
:10235000E800877F8093E8008091E80080FFFCCF51
:10236000809119028093F1008091E8008E7780932C
:10237000E8002FC080913F02803C99F58091430294
:1023800090914402029741F580914102909142025E
:10239000892B11F58091E800877F8093E8006BE13D
:1023A00070E08AEB93E013C080913F02803CC9F457
:1023B0008091430290914402079771F48091E80064
:1023C000877F8093E80062EB70E088E093E00E94F2
:1023D00022100E94CE0F05C08091EB008062809396
:1023E000EB008091E80083FFA4C180913F029091AF
:1023F0004002492F50E04A30510508F09AC1FA01D5
:10240000E059FF4F0C943C23803821F0823809F0CA
:1024100090C108C080913B0290913C02992389F0C1
:1024200082600FC0809143028F70873008F081C1B5
:102430008093E9008091EB0085FB882780F910925A
:10244000E9009091E800977F9093E8008093F10075
:102450001092F10033C1282F2D7F09F06AC1882323
:1024600019F0823061F065C180914102813009F03C
:1024700060C1933009F080E080933C022EC08091CF
:10248000410281112AC0809143028F702FEF280FE3
:10249000263008F04EC18093E9002091EB0020FF28
:1024A0001CC0933021F48091EB00806214C09091A5
:1024B000EB0090619093EB0021E030E0A90102C0B5
:1024C000440F551F8A95E2F74093EA001092EA0004
:1024D0008091EB0088608093EB001092E90080917E
:1024E000E800877FEEC0811124C1109141021F775F
:1024F0008091E3008078812B8093E3008091E80055
:10250000877F8093E8000E94CE0F8091E80080FFD3
:10251000FCCF8091E30080688093E300111102C03A
:1025200082E001C083E080933D0203C18058823085
:1025300008F0FFC080914102909142028C3D53E02F
:10254000950779F583E08A838AE289834FB7F89407
:10255000DE01139620E03EE051E2E32FF0E05093DD
:102560005700E49120FF03C0E295EF703F5FEF70EA
:102570008E2F90E0EA3010F0C79601C0C0968D9380
:102580009D932F5F243149F74FBF8091E800877FEB
:102590008093E8006AE270E0CE0101960E94831009
:1025A0007BC04091430250914402292F33272330AE
:1025B000310511F168F42130310509F4C9C0223028
:1025C000310509F0B6C062E570E086ED94E05DC0CB
:1025D0002132310509F43BC02232310509F444C0EF
:1025E0002F30310509F0A5C0E8E6F5E0E4916E2F43
:1025F00070E086E695E045C0992781309105B9F0F5
:1026000070F082309105D9F0039709F092C0EAE3A7
:10261000F5E0E4916E2F70E08AE395E032C0E2E6E7
:10262000F5E0E4916E2F70E082E695E02AC0E8E5DF
:10263000F5E0E4916E2F70E088E595E022C0E0E4DB
:10264000F5E0E4916E2F70E080E495E01AC041154A
:10265000510509F482C04130510509F06AC069E0B2
:1026600070E081E095E011C04115510509F47AC090
:102670004130510509F05DC060EC70E086ED93E0FB
:1026800004C06115710509F454C02091E800277F4A
:102690002093E8000E9422108091E8008B778093BD
:1026A000E80047C0803809F044C08091E800877F87
:1026B0008093E80080913E028093F1008091E800D1
:1026C0008E778093E8000E94CE0F33C0811131C015
:1026D00080914102909142029927029754F580918E
:1026E000E800877F8093E8001091410210933E023A
:1026F0000E94CE0F111106C08091E30087FD02C039
:1027000081E001C084E080933D0242E061EC81E021
:102710000E94ED0F42E261EC82E00E94ED0F42E385
:1027200061EC83E00E94ED0F42E360EC84E00E94E4
:10273000ED0F8091E80083FF1AC08091E800877F49
:102740008093E8008091EB0080628093EB000FC0E3
:1027500062E170E088E295E098CF69E070E088EE91
:1027600094E093CF60E470E086E994E08ECFAA967F
:102770000FB6F894DEBF0FBECDBFDF91CF911F9192
:1027800008951F920F920FB60F9211242F933F932B
:102790004F935F936F937F938F939F93AF93BF9369
:1027A000CF93DF93EF93FF93C091E900CF708091B7
:1027B000EC00D82FD17080FDD0E81092E900809114
:1027C000F000877F8093F00078940E94E1101092CF
:1027D000E9008091F00088608093F000CD2BCF70ED
:1027E000C093E900FF91EF91DF91CF91BF91AF913D
:1027F0009F918F917F916F915F914F913F912F9119
:102800000F900FBE0F901F901895E8EDF0E08081BB
:102810008E7F80831092E2001092DA001092E10025
:10282000A0EEB0E08C9181608C9380818F77808363
:1028300019BCA7EDB0E08C918E7F8C9380818F7E48
:102840008083109218020895CF92DF92EF92FF9248
:102850000F931F93CF93DF93C8EDD0E088818F7ED5
:102860008883E7EDF0E080818160808384E082BF2F
:1028700081E08093180288818E7F888302EE10E0C9
:10288000F80110821092DA0081EEC82ED12CF601E8
:10289000108288818F778883888180688883888187
:1028A0008F7D888319BC10923D0210923E021092D7
:1028B0003C0210923B0290EEE92EF12CF701808150
:1028C0008B7F808388818160888342E060E080E044
:1028D0000E94ED0FF60180818E7F8083F801808158
:1028E00081608083808188608083F70180818E7F12
:1028F0008083888180618883DF91CF911F910F91C0
:10290000FF90EF90DF90CF9008951F920F920FB637
:102910000F9211242F933F934F935F936F937F9365
:102920008F939F93AF93BF93EF93FF938091E100B9
:1029300082FF09C08091E20082FF05C08091E10022
:102940008B7F8093E1008091DA0080FF2AC0809124
:10295000D80080FF26C08091DA008E7F8093DA0055
:102960008091D90080FF18C080E189BD82E189BDD6
:1029700009B400FEFDCF81E080933D0280911802F2
:1029800081110FC00E9405140E9424148091E2005E
:1029900084608093E20005C019BC10923D02109241
:1029A00018028091E10080FF17C08091E20080FF53
:1029B00013C08091E2008E7F8093E2008091E2005C
:1029C00080618093E2008091D80080628093D8007B
:1029D00019BC85E080933D028091E10084FF32C004
:1029E0008091E20084FF2EC080E189BD82E189BD33
:1029F00009B400FEFDCF8091D8008F7D8093D80070
:102A00008091E1008F7E8093E1008091E2008F7ED3
:102A10008093E2008091E20081608093E2008091E7
:102A20003E02882311F084E007C08091E30087FD17
:102A300002C081E001C083E080933D020E94D0206B
:102A40000E94500B8091E10083FF27C08091E2003B
:102A500083FF23C08091E100877F8093E10082E0C3
:102A600080933D0210923E028091E1008E7F809320
:102A7000E1008091E2008E7F8093E2008091E2008D
:102A800080618093E20042E060E080E00E94ED0F10
:102A90008091F00088608093F000FF91EF91BF91EA
:102AA000AF919F918F917F916F915F914F913F91E6
:102AB0002F910F900FBE0F901F9018952091E4005A
:102AC0003091E50095E64091EC00842F817040FF45
:102AD00023C08091E80080FD1DC080913D028823C5
:102AE00099F0853099F08091EB0085FD11C04091FF
:102AF000E4005091E5002417350729F3915011F0B7
:102B00009A01E1CF84E0089582E0089583E008957A
:102B100081E0089580E008954091E80042FFDDCF14
:102B20000895EF92FF920F931F93CF93DF937C0151
:102B30008B010E945E15811119C0E7010115110575
:102B4000A1F08091E80085FD0AC08091E8008E77B1
:102B50008093E8000E945E15882381F307C0899165
:102B60008093F10001501109E9CF80E0DF91CF910E
:102B70001F910F91FF90EF90089580913D02843056
:102B800011F081E0089582E00895CF93DF9300D0A3
:102B90001F92CDB7DEB790913D02943019F589832D
:102BA0007B836A8382E08093E9008FEF9091E80055
:102BB000815095FD06C095ED9A95F1F700008111C1
:102BC000F5CF8091E80085FF0DC040E050E063E064
:102BD00070E0CE0101960E9491158091E8008E77F9
:102BE0008093E8000F900F900F90DF91CF910895A0
:102BF000CF93DF93EC010E94BD15823011F0843039
:102C000031F4BE0184E0DF91CF910C94C515DF91C2
:102C1000CF910895BC016058710983E00C94C515EB
:102C2000CF93DF93EC010E94BD15823011F0843008
:102C3000F9F482E08093E9008FEF9091E8008150F1
:102C400095FD06C095ED9A95F1F700008111F5CF3D
:102C50008091E80085FF0CC040E050E066E070E045
:102C6000CE010E9491158091E8008E778093E80054
:102C7000DF91CF910895CF93DF93EC010E94BD15B2
:102C8000823011F08430D9F580910601882339F023
:102C900080915F0287FF03C060E282E002C068E0CB
:102CA00081E08093E9008FEF9091E800815095FDDD
:102CB00006C095ED9A95F1F700008111F5CF80914E
:102CC000E80085FF1CC080910601811105C040E02D
:102CD00050E068E070E003C070E040E050E0CE01FA
:102CE0000E9491158091E8008E778093E80080E241
:102CF000FE01ABE1B2E001900D928A95E1F7DF9120
:102D0000CF910895CF93DF93CDB7DEB7C955D109E1
:102D10000FB6F894DEBF0FBECDBF84B7877F84BFE8
:102D20000FB6F894A8958091600088618093600048
:102D3000109260000FBE90E080E80FB6F894809388
:102D40006100909361000FBE85B7806885BF85B72D
:102D5000806885BF0E9405140E9424148091E200BF
:102D600084608093E200789480913D028823A1F0F2
:102D70001091E9001F709091EC00892F817090FDF7
:102D800080E8182B1092E9008091E80083FD0E94F2
:102D9000E1101F701093E90082E084BD93E095BDBF
:102DA0009AEF97BD80936E000E94420D90E0909341
:102DB0000801809307010E94290E0E94380EA1E5A8
:102DC000B2E0E4E6F2E011921D9222E0E237F2076F
:102DD000D1F78EE090E00E944223809347029093C7
:102DE0004802FC010E962BEF21938E179F07E1F707
:102DF00080E090E00E94DA228F3E9E4F11F00E9408
:102E0000E21B8CE090E00E94CC2290E0A0E0B0E0D9
:102E10008093490290934A02A0934B02B0934C02D4
:102E200089EA8093800089E08093810024982C981F
:102E30003F988AB18F7C8AB96E98479A8BB180632C
:102E40008BB9769A8FE090E00E94D42260934D0275
:102E500070934E0280934F029093500267704FEF31
:102E6000649FB001112475956795759567957727CF
:102E7000709389006093880070938B0060938A0040
:102E800070938D0060938C000E94B90D80E090E0FB
:102E90000E94DA228F3E9E4F11F00E94E21B82E0D8
:102EA00090E00E94CC2280937C020E94D11B9093E0
:102EB000600280935F0283E090E00E94CC22682F42
:102EC00070E080E090E00E94781E89E091E09093AD
:102ED000620280936102EE24EA948EEFF82E93E072
:102EE000492E21E4C22ED12CCC0EDD1EF2E0CF0EF5
:102EF000D11C30E1732E42E1642E58E1A52EB12C95
:102F000060E4562E80913D02853009F047C08091E3
:102F10003D02843009F1109263020FB6F894A8952F
:102F2000A09260000FBE5092600083B7817F8460E2
:102F300083BF83B7816083BF7894889583B78E7F82
:102F400083BF0FB6F894A895809160008861809344
:102F50006000109260000FBE80913C02882391F2C5
:102F60000E94420D90E090930801809307010E9417
:102F7000290E0E94380EE4E6F2E0119222E0E237D8
:102F8000F207D9F70E94B30EE4E6F2E081918111D5
:102F9000A0C132E0E237F307C9F7B4CF0E94B30E05
:102FA000EDE7F2E0A4E6B2E000E010E0302F2D9172
:102FB00091919227A1F180E099249394492F49217E
:102FC00051F161968FAF619762963FAF6297292169
:102FD00081E009F480E063968FAF63970E94291B1C
:102FE0008160782F65969FAF8EAF659761964FADE4
:102FF000619762965FAD629763966FAD63976596D2
:103000008FAD65970E94490AF801E358FD4F808112
:103010009826908229C08F5F990C863079F60F5FD1
:103020001F4F0E30110509F0C1CF6696EFAE6697BF
:103030006796EFAE679768961FAE68970E94291B48
:103040008160782F6A969FAF8EAF6A9766964FAD74
:10305000669767965FAD679768966FAD68976A9653
:103060008FAD6A970E94490A8091790290917A0205
:103070000E94FF1A9C0190917802992321F024313B
:10308000310508F478C080917402109175028111A5
:103090000BC011113DC120917602211139C120913F
:1030A0007702211135C167C09F3F19F09F5F909350
:1030B0007802181624F40E944E1A809374028091AC
:1030C000740287FF05C00E944E1A81958093740296
:1030D000111624F40E944E1A809375028091750295
:1030E00087FF05C00E944E1A81958093750230912A
:1030F00074023323E1F0209175022223C1F045EBE5
:103100003403C0011124992319F09093740203C071
:1031100081E08093740235EB2303C00111249923CD
:1031200019F09093750203C081E08093750280913D
:103130007602181624F40E942C1A8093760280914D
:10314000760287FF05C00E942C1A81958093760233
:1031500080917702181624F40E942C1A809377022B
:103160008091770287FF05C00E942C1A8195809379
:1031700077020E94351B0E94500B90917B028917A9
:1031800021F00E94500B80937B0280913D0284309D
:1031900009F0B8CE8093E9008091E80082FFB2CEBA
:1031A0008091E80085FF21C00E945E1581111BC03F
:1031B00000E410E0CE0101964C0108C08091F100BE
:1031C000F40181934F010150110969F08091E800E9
:1031D00085FDF4CF8091E8008B778093E8000E9412
:1031E0005E15882399F391E001C090E08091E8009A
:1031F0008B778093E800992309F484CE198111110B
:1032000014C080919102882351F11092910281E0C3
:103210008093900222961FAE229723961FAE23978B
:103220002496FFAE249763E06DC01130C1F422965E
:103230001FAE229723961FAF23978CE0EBEBF1E0B4
:10324000D60101900D928A95E1F76096FFAE6097E6
:103250006FE0CE018F5B9F4F0E948F1953CE8091FC
:103260009002882391F1123019F0133091F045C08B
:1032700060918B0270918C0280918D0290918E02F0
:103280000E94561C22961FAE229723961FAF2397AB
:1032900014C08A81813039F040F0823071F581E0CC
:1032A00080938F0202C010928F0222961FAE229747
:1032B00023964FAE239780918F0224968FAF249749
:1032C0002596FFAE259764E01DC02296EFAE2297AB
:1032D00018C079BC69BC09B400FEFDCF8091D8004C
:1032E0008F7D8093D8008091E00082608093E00021
:1032F0008091E00081FDFCCF05CE81E022968FAF6A
:10330000229761E0CE018F5B9F4F0E948F19FACD0B
:103310009F3F09F0CBCEDCCE80911A020895209118
:103320003D02243099F423E02093E90070E040E06E
:1033300050E00E949115882321F010929002109283
:1033400091028091E8008E778093E8000895803F95
:1033500039F48091750287FF6CC01092750269C0C4
:10336000813F29F4809175021816BCF362C09091D8
:103370007402823F29F497FF5CC01092740259C016
:10338000833F19F41916CCF354C0893F41F480915E
:10339000760218160CF04DC0109276024AC08A3F91
:1033A00029F48091760287FF44C0F6CF8B3F39F431
:1033B0008091770287FF3DC0109277023AC08C3F20
:1033C00029F4809177021816BCF333C0843F21F4AE
:1033D000809173028E7F17C0853F21F48091730224
:1033E0008D7F11C0863F21F4809173028B7F0BC0CB
:1033F000873F21F480917302877F05C0883F31F4B5
:10340000809173028F7E8093730213C08D3F21F4ED
:103410008091F6028E7F0BC08E3F21F48091F602E0
:103420008D7F05C08F3F29F48091F6028B7F8093BA
:10343000F6028091740281110EC080917502811193
:103440000AC080917602811106C0809177028111B5
:1034500002C01092780208958091F60280FD16C095
:1034600081FD16C082FD18C080917802882391F0FA
:10347000883290F428E0829FC001112468E270E055
:103480000E942823862F672B29F007C082E0089529
:1034900084E0089581E0089588E008958091F6021F
:1034A00080FD17C081FD17C082FD19C08091780290
:1034B000882399F08C3398F423E2829FC001112471
:1034C0006CE370E00E942823862F672B49F481E08B
:1034D000089588E0089581E1089585E0089583E2E4
:1034E0000895803F21F40E944E1A819504C0813FC7
:1034F00029F40E944E1A809375020895823F21F4A8
:103500000E944E1A819504C0833F29F40E944E1AEE
:10351000809374020895893F19F40E942C1A05C003
:103520008A3F31F40E942C1A819580937602089587
:103530008B3F21F40E942C1A819504C08C3F29F402
:103540000E942C1A809377020895843F21F4809181
:103550007302816017C0853F21F4809173028260FD
:1035600011C0863F21F48091730284600BC0873FB5
:1035700021F480917302886005C0883F31F4809106
:10358000730280618093730208958D3F21F48091CE
:10359000F60281600BC08E3F21F48091F6028260BA
:1035A00005C08F3F29F48091F60284608093F60273
:1035B000089578941F920F920FB60F9211248F9353
:1035C0009F93AF93BF938091F2029091F302A091E9
:1035D000F402B091F5020196A11DB11D8093F20293
:1035E0009093F302A093F402B093F502BF91AF91D0
:1035F0009F918F910F900FBE0F901F901895CF92B3
:10360000DF92EF92FF920F931F932FB7F8944091A0
:10361000F2025091F3026091F4027091F5022FBF13
:103620006A017B01EE24FF248C0120E030E0C0160B
:10363000D106E206F30610F4415051099A01281B05
:10364000390BC9011F910F91FF90EF90DF90CF9040
:1036500008952FB7F8948091F2029091F302A0910F
:10366000F402B091F5022FBF0895E0916102F0914C
:103670006202309749F082E0809372020480F58103
:10368000E02D82E792E009950E94291B90937A022F
:103690008093790208951F920F920FB60F92112412
:1036A0008F939F93AF93BF9380916302811113C057
:1036B0008091F2029091F302A091F402B091F50290
:1036C0004196A11DB11D8093F2029093F302A09345
:1036D000F402B093F502BF91AF919F918F910F903B
:1036E0000FBE0F901F901895209106012223C9F05C
:1036F00020915F0227FF15C0262F26952695269537
:103700002E31C8F4FC01E20FF11D677081E090E0FA
:1037100001C0880F6A95EAF7809592818923828398
:103720000895FC0106962281621301C0128231962F
:10373000E817F907C1F70895209106012223C1F087
:1037400020915F0227FF14C0262F269526952695E7
:103750002E3130F5FC01E20FF11D677081E090E041
:1037600001C0880F6A95EAF79281892B82830895B8
:10377000FC0132962FEF30E04191641789F02F3F22
:1037800019F4411101C0232F3F5F3630A9F72F3FB5
:1037900039F0FC01E20FF11D27FDFA9562830895CF
:1037A0000895CF9384E090E00E94CC22C82F81E25C
:1037B00090E00E94CC222C2F30E0A901582BCA01A6
:1037C000CF9108956FEE7EEF80E090E00E94FE22A0
:1037D00060E082E090E00E94E02260E083E090E020
:1037E0000E94E0221092EE021092EF021092F0027C
:1037F0001092F10260E084E090E00E94E02260E03C
:1038000081E290E00E94E02260E085E090E00E948A
:10381000E02260E086E090E00E94E0226FEF87E027
:1038200090E00E94E02240E050E0BA0188E090E0A1
:103830000E94F22260E08DE090E00E94E02240E0F1
:1038400050E0BA0188E190E00E94F22260E087E156
:1038500090E00E94E02240E050E0BA018CE190E06C
:103860000E94F22260E080E290E00E94E02210924A
:103870004D0210924E0210924F021092500284E0BC
:10388000806180934D0240914D0250914E026091B3
:103890004F02709150028FE090E00E94F22240E0CF
:1038A00050E0BA0183E190E00C94F222CF92DF92D3
:1038B000EF92FF926C01EE24FF24C114D104E104C5
:1038C000F10421F0C701B60120E101C020E0C72EBC
:1038D000D82EE92EFF24C114D104E104F10419F01B
:1038E000285FC701B6016B017C0154E0F694E794B0
:1038F000D794C7945A95D1F7C114D104E104F104C7
:1039000019F02C5FC701B6016B017C0142E0F6940F
:10391000E794D794C7944A95D1F7C114D104E10430
:10392000F10419F02E5FC701B601DC01CB01B69599
:10393000A79597958795892B8A2B8B2B09F02F5F5D
:10394000822FFF90EF90DF90CF9008958091ED024D
:1039500081111092ED0208959091EC028091EB029A
:10396000892B2091EA02982F922B909392028091BA
:10397000ED028823D9F0892B809392028091060171
:10398000882331F080915F0287FF02C08EE101C081
:1039900086E0E4E9F2E090E0815028F021912223D2
:1039A000D9F39F5FF9CF91110E94A61CE0916102AB
:1039B000F09162023097A9F080910601882359F0B6
:1039C00080915F0287FF07C08091920280939302EB
:1039D00085E0809392020280F381E02D82E992E0FB
:1039E00009940895BF92CF92DF92EF92FF920F93C6
:1039F0001F93CF93DF938C01C0908B02D0908C02E9
:103A0000E0908D02F0908E028091EE029091EF0294
:103A1000A091F002B091F102C82AD92AEA2AFB2A21
:103A2000CFE1D0E0D701C6010C2E04C0B695A79512
:103A3000979587950A94D2F780FD04C0219790F757
:103A4000B12C07C0BC2EB8018C2F0E94620B0197CD
:103A5000A9F38B2DDF91CF911F910F91FF90EF90E4
:103A6000DF90CF90BF900895CF93DF93EC010E9439
:103A7000F21CBE010E94620BDF91CF910895292FA5
:103A8000220F920F990F890F682F6695669566959C
:103A9000982F977085E0689FB001112440E050E0B6
:103AA00080E0FB01E40FF51FEE54FD4F208130E074
:103AB000092E02C0369527950A94E2F72170332724
:103AC000042E01C0220F0A94EAF7822B4F5F5F4F4A
:103AD0004530510531F70895292F220F920F990F84
:103AE000890FE82FE695E695E695877051E001C0CD
:103AF000550F8A95EAF785E0E89FF0011124EE540E
:103B0000FD4F20E030E070E04081CB01022E02C08A
:103B1000969587950A94E2F781708195842785238D
:103B2000842781932F5F3F4F2530310569F7089532
:103B30000F931F9341E050E060E070E004C0440F39
:103B4000551F661F771F8A95D2F74095509560954F
:103B5000709580918B0290918C02A0918D02B09112
:103B60008E028A019B01082319232A233B23C901C2
:103B7000B8011F910F910C943B1E2091E902809592
:103B800082238093E902982F977079F430E0482FD0
:103B9000082E000C550B2417350739F085958595AF
:103BA00085950E94981D1092E90208950F931F9326
:103BB00041E050E060E070E004C0440F551F661F14
:103BC000771F8A95D2F780918B0290918C02A091F9
:103BD0008D02B0918E028A019B01082B192B2A2B92
:103BE0003B2BC901B8011F910F910C943B1E0E9401
:103BF000341D292F2F70E92FE295EF704E2F50E0E2
:103C0000FA013297EE30F105B8F4E658FF4F0C9404
:103C10003C23803F99F018F4883E70F40FC0843F35
:103C200059F40CC0883E50F0813F31F407C0822F18
:103C3000869586958695089580E0089581E008959B
:103C40001092EB021092EA020E94AC1CE2E7F2E052
:103C500086E0DF011D928A95E9F7109278021092B2
:103C6000F6020E94351B80E090E00E943A0B80E053
:103C700090E00C94240BCF92DF92EF92FF92CF93BF
:103C8000DF9300D000D0CDB7DEB70E94100D6B01DE
:103C90007C0180918F02882319F08091900202C0EC
:103CA00080E090E080FF0FC0198282E08A83C70124
:103CB000B6010E94561C8B838EEF8C8364E0CE018C
:103CC00001960E948F19C0928B02D0928C02E092D2
:103CD0008D02F0928E020E94201E0F900F900F9086
:103CE0000F90DF91CF91FF90EF90DF90CF900895EC
:103CF0006093EE027093EF028093F0029093F102D2
:103D00000C94201E809130039091FF02891719F0C6
:103D10008F5F8770FBCF0895CF938091FE028295CD
:103D20008F7009F05FC08091FB02882309F45AC0AC
:103D300080913003B091FF027091F902A091FA02D4
:103D40004091FC025091FD0291E07F3F09F090E02C
:103D5000692FC6E08B1709F445C04115510521F0C4
:103D6000AF3F21F020E003C021E001C0262F90E00A
:103D700020FD35C0C89FF001C99FF00D1124E0500F
:103D8000FD4F21812A132BC02081271328C02281B7
:103D9000211125C0238134812417350710F42150C7
:103DA0003109241B350B283C3105C8F42091FE0253
:103DB0002F7020612093FE0226E0289FF001299FAA
:103DC000F00D1124EB5FFC4F80818F708061808348
:103DD00089EF92E00E94EF02CF910C94821E01962F
:103DE0008770B8CFCF910895AF92BF92CF92DF92F4
:103DF000EF92FF920F931F93CF93DF93CDB7DEB770
:103E000061970FB6F894DEBF0FBECDBF8C0185E081
:103E1000F801DE011D9601900D928A95E1F7D80117
:103E20003C9111962C9111971296EC905091F902B9
:103E30006091FA028091FC029091FD02009731F0AE
:103E40006F3F31F441E05F3F19F403C041E001C02E
:103E500040E0B42FB170BB2E40FD43C1F801C380D8
:103E6000D480A090FB02AA2009F4E2C04091FE0297
:103E7000C816D90628F0D601A81BB90BCD0104C07D
:103E8000809590958C0D9D1DFF24F394883C9105A1
:103E900048F0F12C407F09F090C089EF92E00E9439
:103EA000EF0217C1842F807F09F052C0621312C045
:103EB000531310C0FE2CE1100DC04F7040614093B1
:103EC000FE0289EF92E00E94EF028091FE02F8016B
:103ED000858354C1CD2831F02F3F31F481E03F3F3D
:103EE00019F403C081E001C080E080FD03C081E0DF
:103EF0008E2502C080E090E0F82FF170FF2E80FF49
:103F00001CC0809130034091FF0256E0841709F4F1
:103F100012C190E0589FF001599FF00D1124E0501C
:103F2000FD4F6181261306C06081361303C0628194
:103F3000E61203C001968770E9CFFE2CEE2009F44B
:103F40001DC18091FE0281608093FE02F12C16C19A
:103F5000621308C0531306C0E11004C08091FE0232
:103F6000F80199C03D872E878D859E850E94F71D9B
:103F7000882369F1EE2059F12091FE02822F82956B
:103F80008F7090E0029774F08091F9029091FA029C
:103F900098878F831986DB86CA862C87CE01079681
:103FA0000E94EF0286E0F801A9EFB2E001900D92C5
:103FB0008A95E1F70E948C1E0DC0621771F03D8753
:103FC0002E878D859E850E94F71D81111AC0C8011C
:103FD0000E94EF02FF24F394D1C05313F0CFE110FD
:103FE000EECF8091FE02F8018583C8010E94EF02A6
:103FF00086E0E9EFF2E0DF011D928A95E9F7FA2CFD
:10400000BDC0EE2021F32091FE02822F82958F7099
:1040100090E002973CF28091F9029091FA029A8323
:1040200089831B82DD82CC822E83CE010196B8CF9C
:10403000C816D90638F0C81AD90AB8ECCB16D1047C
:1040400050F007C0809590958C0D9D1D883C910582
:1040500010F0F12C3EC0FE2CEE2009F4B8CF621314
:1040600027C0531325C02091FE0220FD18C0822FC7
:1040700082958F70482F50E04115510581F0F8016D
:1040800025834F30510541F08F5F982F9295907F97
:10409000822F8F70892B8583C8010E94EF0286E0F2
:1040A000F801A9EFB2E001900D928A95E1F766C0A0
:1040B0003D872E878D859E850E94F71D811172CFC9
:1040C0008091FE0281608093FE02C8010E94EF028F
:1040D00055C0E9EFF2E086E0DF011D928A95E9F72D
:1040E0004DC0EE2009F473CF3D872E878D859E85C8
:1040F0000E94F71DF82E882309F469CF86E0F801A5
:10410000A9EFB2E001900D928A95E1F78091F90252
:104110009091FA020E94341D92959F70963041F45E
:104120008091F80291E089278093F8029093F7023A
:104130000E948C1E23C03D872E878D859E850E9400
:10414000341D292F22952F70223028F49F7039F0CA
:10415000811105C00BC0243028F49F7049F4805EA3
:10416000883020F0C8010E94EF02BF2CFB2C06C053
:10417000D80115969C91907F91F7F8CF8F2D61967D
:104180000FB6F894DEBF0FBECDBFDF91CF911F9168
:104190000F91FF90EF90DF90CF90BF90AF90089578
:1041A0001092EC0280910601882331F080915F0229
:1041B00087FF02C08EE101C086E0E4E9F2E0DF01A2
:1041C0001D928A95E9F70C94201E882341F0809572
:1041D0009091EB0289238093EB020C94AC1C089520
:1041E000882339F09091EB02892B8093EB020C9499
:1041F000AC1C0895882341F080959091EC028923AE
:104200008093EC020C94AC1C0895882339F09091B3
:10421000EC02892B8093EC020C94AC1C0895CF9394
:10422000C82F0E948921C93349F42FEF87EE93E00C
:10423000215080409040E1F700C000008C2FCF91CA
:104240000C942221882309F463C0823869F40E9407
:10425000500B81FF5DC069E382E992E00E949C1BE4
:104260000E94AC1C69E30EC0833891F40E94500B8D
:1042700080FF4EC063E582E992E00E949C1B0E9491
:10428000AC1C63E582E992E00E94741B0C94AC1CA8
:10429000843869F40E94500B82FF3AC067E482E9D7
:1042A00092E00E949C1B0E94AC1C67E4EBCF9CEF49
:1042B000980F913A10F4682FE5CF90E2980F98305C
:1042C00088F4877021E030E0A90102C0440F551F37
:1042D0008A95E2F7CA0180959091EC028923809338
:1042E000EC02D4CF9BE5980F933020F480E090E06F
:1042F0000C943A0B98E5980F973120F480E090E009
:104300000C94240B803F20F00E94A7190C94351BBD
:104310000895882309F489C08238B1F40E94500BB3
:1043200081FD83C069E382E992E00E949C1B0E94A8
:10433000AC1C2FEF41EE54E0215040405040E1F7DB
:1043400000C0000069E317C08338D9F40E94500B05
:1043500080FD6BC063E582E992E00E949C1B0E9495
:10436000AC1C8FEF91EE24E0815090402040E1F7AB
:1043700000C0000063E582E992E00E94741B0C9487
:10438000AC1C8438B1F40E94500B82FD4EC067E42F
:1043900082E992E00E949C1B0E94AC1C4FEF51EE00
:1043A00084E0415050408040E1F700C0000067E4E5
:1043B000E2CF9CEF980F913A30F4682F82E992E0B7
:1043C0000E949C1BDCCF90E2980F983080F487709D
:1043D00021E030E0A90102C0440F551F8A95E2F7A1
:1043E000CA019091EC02892B8093EC02C8CFEBE5D7
:1043F000E80FE33038F4F0E0E953FE4F808190E0BD
:104400000C943A0BE8E5E80FE73148F4F0E0EE0FE2
:10441000FF1FE653FE4F808191810C94240B803F57
:1044200020F00E94711A0C94351B08951092B90067
:104430008CE08093B8000895EF92FF920F931F9342
:10444000CF93DF93182FEB011092BC0084EA809386
:10445000BC000E94291B7C018091BC0087FD0EC01E
:10446000CF3F8FEFD807C1F30E94291B8E199F09F8
:104470008C179D0788F38EEF9FEF2EC08091B900B7
:10448000887F883041F08091B900887F803119F0B1
:104490008FEF9FEF21C01093BB0084E88093BC0096
:1044A0000E94291B8C018091BC0087FD0CC0CF3F6E
:1044B0008FEFD807C1F30E94291B801B910B8C172B
:1044C0009D0788F3D8CF8091B900887F883111F09B
:1044D0008034F1F680E090E0DF91CF911F910F9151
:1044E000FF90EF9008950F931F93CF93DF93EB010D
:1044F0008093BB0084E88093BC000E94291B8C0140
:104500008091BC0087FD0EC0CF3F8FEFD807C1F36D
:104510000E94291B801B910B8C179D0788F38EEF3F
:104520009FEF0CC02091B900287F81E090E02832F5
:1045300011F480E090E0919581959109DF91CF9100
:104540001F910F9108950F931F93CF93DF93EC0169
:1045500084E88093BC000E94291B8C018091BC00E0
:1045600087FD0EC0CF3F8FEFD807C1F30E94291BF4
:10457000801B910B8C179D0788F38EEF9FEF03C074
:104580008091BB0090E0DF91CF911F910F91089532
:1045900084E98093BC000895F999FECF92BD81BD56
:1045A000F89A992780B50895A6E1B0E044E050E07C
:1045B0000C940623A8E1B0E042E050E00C940623FE
:1045C000262FF999FECF92BD81BDF89A019700B4CC
:1045D000021639F01FBA20BD0FB6F894FA9AF99A6C
:1045E0000FBE08950396272F0E94E1220E94E02229
:1045F000252F0E94E122242F0C94E1220196272FDF
:104600000E94E1220C94E022DC01CB01FC01F9992B
:10461000FECF06C0F2BDE1BDF89A319600B40D920E
:1046200041505040B8F70895AA1BBB1B51E107C089
:10463000AA1FBB1FA617B70710F0A61BB70B881F32
:10464000991F5A95A9F780959095BC01CD010895C1
:1046500097FB072E16F4009407D077FD09D00E942F
:10466000142307FC05D03EF4909581959F4F089543
:10467000709561957F4F0895EE0FFF1F0590F4919F
:10468000E02D09940F931F93CF93DF938230910510
:1046900010F482E090E0E0913303F091340320E0E5
:1046A00030E0A0E0B0E0309719F140815181028103
:1046B000138148175907C8F08417950769F41097B4
:1046C00031F012960C93129713961C9327C0009307
:1046D00033031093340322C02115310519F042171A
:1046E000530718F49A01BD01EF01DF01F801DBCF98
:1046F00021153105F9F0281B390B2430310580F4E0
:104700008A819B816115710521F0FB01938382836E
:1047100004C09093340380933303FE01329644C067
:10472000FE01E20FF31F81939193225031093983E7
:1047300028833AC02091310330913203232B41F476
:104740002091020130910301309332032093310311
:1047500020910001309101012115310541F42DB75F
:104760003EB74091040150910501241B350BE091A7
:104770003103F0913203E217F307A0F42E1B3F0B35
:104780002817390778F0AC014E5F5F4F24173507C3
:1047900048F04E0F5F1F50933203409331038193D3
:1047A000919302C0E0E0F0E0CF01DF91CF911F9143
:1047B0000F910895CF93DF93009709F481C0FC0116
:1047C000329713821282A0913303B0913403109771
:1047D00081F420813181820F931F20913103309128
:1047E00032032817390751F5F0933203E093310370
:1047F00067C0ED0120E030E0CE17DF0740F44A81CA
:104800005B819E0141155105F1F0EA01F5CFD3839B
:10481000C28340815181840F951FC817D90759F46D
:1048200088819981840F951F0296918380838A8164
:104830009B81938382832115310529F4F0933403FE
:10484000E09333033DC0E901FB83EA834991599129
:10485000C40FD51FEC17FD0761F480819181840F8F
:10486000951F0296E90199838883828193819B83B6
:104870008A83E0E0F0E012968D919C911397009767
:1048800019F0FD01DC01F7CF8D919C9111979D01ED
:104890002E5F3F4F820F931F2091310330913203DF
:1048A0002817390769F4309729F4109234031092CD
:1048B000330302C013821282B0933203A0933103F8
:0A48C000DF91CF910895F894FFCF27
:1048CA000000350320000120008C193B1610160A3F
:1048DA0016F815000D010D020D030D040D050D004E
:1048EA000C010C020C030C040C050C000B010B024E
:1048FA000B030B040B050B000A010A020A030A0444
:10490A000A050A000901090209030904090509003F
:10491A00080108020803080408050800070107023D
:10492A000703070407050700060106020603060433
:10493A00060506000501050205030504050505002F
:10494A00040104020403040404050400030103022D
:10495A000303030403050300020102020203020423
:10496A00020502000101010201030104010501001F
:10497A0000010002000300040005004C4D514F4C99
:10498A002F626E58426700818283E200E900EA00E2
:10499A00B500B600B700CD008301CC008A019201B0
:1049AA0094012102230224022502260227022A0256
:0849BA00B300B4006F007000AF
:00000001FF
