:100000000C9436030C9453030C9453030C94530335
:100010000C9453030C9453030C9453030C94530308
:100020000C9453030C9453030C949E150C94DA1403
:100030000C9483200C9453030C9453030C9453039B
:100040000C9453030C9453030C9453030C945303D8
:100050000C9453030C9411200C9453030C945303ED
:100060000C9453030C9453030C9453030C945303B8
:100070000C9453030C9453030C9453030C945303A8
:100080000C9453030C9453030C9453030C94530398
:100090000C9453030C9453030C9453030C94530388
:1000A0000C9453030C9453030C945303DF06DF06A4
:1000B00019071907640780074909A909C207A00899
:1000C000B108B108600A630A660A690A6C0A6F0A15
:1000D000720A430E480E520E460E4B0E500E4E0E36
:1000E0001D134413B2144413B2148C13AF13B2147F
:1000F0006B147F14F016F01603170317F916031785
:1001000003170317F016F016FE1603170317FE1653
:100110002900E0000100E100350000001E0014008D
:1001200004001D0034004D001F001A0016001B00C3
:10013000E2002A00200008000700060050002C0002
:1001400021001500090019004F004A002200170085
:100150000A000500000000415007E3020000E30030
:10016000000000424F07E3020000E30000004902E4
:1001700023001C000B0011000000E0002400180008
:100180000D00100052004B0025000C000E00360040
:1001900051002800260012000F0037002F002B000E
:1001A000270013003300380030004E002D003100CE
:1001B0000100025301530000290001000100010069
:1001C000010000003A001E02200222022E0001005F
:1001D0003B001F0221022302010001003C002F020C
:1001E00026022F00010001003D00300227023000EE
:1001F000010001003E00310235003502000001001F
:1002000001000100000001000000010001000100E8
:1002100000000100000001003F00520051002402D4
:10022000000001004000240021001E000100010028
:100230004100250022001F00370001004200260077
:100240002300200027000100430025022E02310078
:100250002E000100440045000F07010001000000CE
:100260000C5D0D5D010001000100000001000100B6
:1002700001000100085D0100010001000100010012
:100280000100F50001000100010001000100F4007F
:100290000100010001000100010001000100010056
:1002A0000100010000000100010001000000010048
:1002B0000000010001000100000001000000010039
:1002C00001000100F2000100000001000100010036
:1002D000F1000100A900F90001000100F000AC00EC
:1002E000AA00F50001000100F300AB00A800F40033
:1002F00001000100010001000100FA00005C0100A2
:10030000AE000100010000000102E101012501032E
:10031000E101043130307C0102E10101250103E1FA
:10032000000102E101011E0103E101043130307CD2
:1003300001010A00000000000000000000000000B1
:1003400000000000000000007E0F00D4FFFFFFC788
:100350000000007800000000000000002A2B2800A8
:100360000000000000000000000000000000002964
:10037000000000002C1E3420212224342627252EA4
:10038000362D3738271E1F202122232425263333DC
:10039000362E37381F0405060708090A0B0C0D0E08
:1003A0000F101112131415161718191A1B1C1D2FD4
:1003B0003130232D350405060708090A0B0C0D0EF4
:1003C0000F101112131415161718191A1B1C1D2FB4
:1003D0003130354C0A00000000000306B20008006E
:1003E00001000000A800080002000200A0001400A4
:1003F000030057494E555342000000000000000022
:1004000000008400040007002A0044006500760014
:1004100069006300650049006E00740065007200A9
:100420006600610063006500470055004900440014
:100430007300000050007B00390044004200370088
:1004400046003100460044002D00370045003700CB
:1004500041002D0034003000300038002D003900FC
:100460003300360042002D003600420041003600C5
:100470004300310039004100330030003800630090
:100480007D00000000001B0301636F6E66696775E5
:1004900072652E6572676F646F782D657A2E636F53
:1004A0006D0005010902A10185020901A1000509EC
:1004B0001901290515002501950575018102950190
:1004C000750381010501093009311581257F9502E8
:1004D0007508810609381581257F95017508810603
:1004E000050C0A38021581257F950175088106C023
:1004F000C005010980A10185031A81002A83001625
:100500000100260300950175108100C0050C09014A
:10051000A10185041A01002A9C02160100269C02F2
:10052000950175108100C005010906A10185050529
:100530000719E029E71500250195087501810205D5
:1005400007190029EF1500250195F07501810205B5
:100550000819012905950575019102950175039109
:1005600001C005010906A101050719E029E71500E9
:10057000250195087501810295017508810105071E
:10058000190029FF150026FF009506750881000552
:1005900008190129059505750191029501750391C9
:1005A00001C009025200030100A0FA090400000181
:1005B000030101000921110100012240000705810A
:1005C0000308000A090401000103000000092111C9
:1005D00001000122C0000705820320000A0904026D
:1005E0000002FF0000000705830340000507050423
:1005F000034000051201100200000008EDFE071381
:10060000010001020301040330000000160345004D
:10061000720067006F0064006F00780020004500E2
:100620005A00000008035A00530041000000040370
:100630000904050F3900021C100500DF60DDD889B0
:1006400045C74C9CD2659D9E648A9F00000306B2FC
:100650000045001810050038B60834A909A0478BDA
:10066000FDA0768815B665000142000011241FBE6A
:10067000CFEFDAE0DEBFCDBF11E0A0E0B1E0ECEFFC
:10068000FAE402C005900D92A83FB107D9F723E024
:10069000A8EFB1E001C01D92A533B207E1F70E94B7
:1006A000BA1B0C947C250C9400004F925F926F92C1
:1006B0007F929F92AF92BF92CF92DF92EF92FF9282
:1006C0000F931F93CF93DF93CDB7DEB72A970FB663
:1006D000F894DEBF0FBECDBFFC010081F1808381A5
:1006E0009481892B39F01FEFF11206C091E00F3F82
:1006F00019F403C091E001C090E090FD4AC66F017B
:1007000085E0DE01119601900D928A95E1F7F601E0
:10071000228189819A81222349F00E942A22182F5E
:10072000682F89819A810E94A42203C00E947722A7
:10073000182F24E5129FF001112436E0F39EE00DFE
:10074000F11D1124E00FF11DEE0FFF1FE05FFE4FC2
:10075000059114918091C902882319F08091CA02F1
:1007600002C080E090E080FF15C01E82F601828109
:10077000882311F081E101C082E18F83F60180813D
:100780008887818189878EEF8A8765E0CE0106960A
:100790000E94C71EF60182810930FDE51F0709F09E
:1007A00040C0882309F451C09091870281E0890FED
:1007B0008770987F853020F4892B8093870202C050
:1007C000909387028091870287702FEF829FC001EC
:1007D00011249595879595958795992790938900EC
:1007E0008093880090938B0080938A0090938D0073
:1007F00080938C0040918702509188026091890219
:1008000070918A028FE090E00E940B246091C502F3
:100810007091C6028091C7029091C8020E94290E71
:1008200014C00C303DE5130729F00D309DE5190784
:1008300031F00BC0882349F081E293E004C08823A3
:1008400021F088E093E00E948C0DF60182818823DC
:1008500019F1033EFCE51F07C1F050F4013E3CE5F1
:10086000130781F0023E8CE51807B1F481E010C057
:10087000043E9CE5190759F0053EECE51E0761F4BE
:1008800084E006C01092830205C082E001C083E0CC
:10089000809383020E94D80B17FF71C0F6018281FA
:1008A000882309F46CC0809126038093F80110928C
:1008B000260380918302813071F048F08230C1F0CC
:1008C0008430E1F486EE0E94EA1A88E115C082EED7
:1008D0000E945D1A13C083E00E94D71988E10E942C
:1008E0005D1A88E10E94F61983E00E94CC1906C0C7
:1008F00082EE0E945D1A87E50E94EA1A8FE39CE966
:100900000197F1F700C000005801E894B7F82CE017
:10091000E22EF12CC5010E2C02C0969587950A9403
:10092000E2F7282F2F7041F0822F90E02A3010F448
:100930004D9604C0069702C087E290E00E94EA1A32
:1009400094E0E91AF108ECEFEE16EFEFFE0611F76E
:1009500080918302813039F040F0823031F0843070
:1009600051F488E206C08CE204C082EE0E94F619BF
:1009700002C00E94EA1A8091F80180932603033F87
:10098000FCE51F0729F180F4083D3CE51307C9F099
:10099000093D8CE5180741F1073D9CE5190739F53C
:1009A00026E241EE61EE10C0053FECE51E07C1F006
:1009B00098F0063F2CE51207D1F427E245EE66EEEB
:1009C00003C027E245EE65EEC6010E94580FE1C460
:1009D00026E241EE60EEF8CF27E245EE64EEF4CF7A
:1009E00026E241EE62EEF0CF28E241E0ECCFF601E4
:1009F0008281882309F439C11092F9010230FCE5A3
:100A00001F0708F41CC106312CE5120738F09801C5
:100A10002A5F3C452730310508F011C10E940921A9
:100A200090939A02809399020F303CE5130709F4E2
:100A3000CFC008F042C008309CE5190709F4A8C0EF
:100A4000F0F40430FCE51F0709F490C068F40230AC
:100A50003CE5130709F486C003301C4509F0DFC0EC
:100A6000809199028260D9C006309CE5190709F48B
:100A700087C008F089C0809199028860CEC00B3091
:100A8000FCE51F0709F495C068F409303CE513073D
:100A900009F482C00A301C4509F0C1C08091990256
:100AA000886080C00D309CE5190709F486C008F005
:100AB00087C0809199028D7FB0C00A3FFCE51F0777
:100AC00009F457C050F502313CE5130709F488C01A
:100AD00068F400319CE5190709F47EC001311C451A
:100AE00009F09DC0809199028F7B97C00431FCE58D
:100AF0001F0709F487C008F479C005311C4509F0C7
:100B00008EC08091990282FB222720F991E09227E2
:100B100090FB82F990FB83F980C00D3F8CE51807AC
:100B200009F452C058F40B3FECE51E0729F10C3FC5
:100B30001C4509F074C080919A0260C00F3F2CE5FB
:100B4000120709F458C080F101151D4509F067C06E
:100B500080919A02982F909591708E7F892B90FBAF
:100B600081F94DC080919902816057C080919902AE
:100B700019C080919A021BC080919A0282603FC086
:100B800080919902806149C080919902806245C03C
:100B900080919902806441C00E94B71980919902A6
:100BA00080683BC0846039C080919A028260816015
:100BB00026C0809199028E7F30C08091990219C021
:100BC00080919902877F29C080919A028D7F17C0FA
:100BD000809199028F7E21C0809199028F7D1DC0E6
:100BE0000E94B719809199028F7717C0809199025E
:100BF000877F8B7F12C080919A028D7F8E7F80933A
:100C00009A020DC00E94B7198091990287FB222792
:100C100020F991E0922790FB87F9809399026091E7
:100C2000990210919A0284E090E00E94F923612FCA
:100C300081E290E00E94F9230E94B719AAC306310D
:100C4000FCE51F0719F5809126038A7A91E009F4E3
:100C500090E09093FA01882311F065E301C069E206
:100C60008CEC92E00E94D4200EC006311C4509F0A5
:100C700062C08091FA01882309F489C365E38CEC92
:100C800092E00E94AC200E94E42183C30E3D9CE5CB
:100C9000190709F446C00830EDE51E0709F444C001
:100CA00001151C4509F047C00E94B7190FEF14E366
:100CB0002CE0015010402040E1F700C00000F89403
:100CC00081E08093E00080E28093D8001092C90018
:100CD0008FE19EE40197F1F700C000001DBA109269
:100CE00068001CBC10BE1FBA10927A0010926E00F1
:100CF00010926F0010927100109272001092C90051
:100D00001092BC0014B817B81AB81DB810BA1092D7
:100D1000BC0015B818B81BB81EB811BA0C94003F27
:100D200038C30E941A2135C39091CB0281E08927F4
:100D30008093CB022EC3F60100811181882349F0F4
:100D4000C8010E942A22F82E682FC8010E94A422FE
:100D500004C0C8010E947722F82EB8018F2D0E948E
:100D6000DE0B8C01B82EF601E580E2949FE0E922CB
:100D7000F280F1101092250380912303877079F09F
:100D8000FF2069F080E2800F883048F082E00E9406
:100D9000F522809123038770AA24A3948111A12CAA
:100DA000912E92948FE09822892D90E08C309105BD
:100DB00008F0CFC2FC01EA5AFF4F0C945524812F52
:100DC000807F1F70882311F01295107FFF20B9F0EB
:100DD000112309F448C280E2800F883010F0B1106E
:100DE00006C080912603182B1093260305C080911E
:100DF0002503182B109325030E94E42134C2802F71
:100E00000E94F619112309F4A4C2005E109508305F
:100E100010F0B11006C0809126031823109326030A
:100E200005C0809125031823109325030E94E42117
:100E300090C2812F807F1F70803211F01295107F39
:100E4000BB2021F0F1E0BF16E1F028C0FF2081F0C7
:100E500080912703EE2051F001E0E01207C0182B2B
:100E6000181709F476C21093270373C2812B10C0A0
:100E7000EE2021F021E0E21609F46BC20E94DE218F
:100E80001FC0FF2041F031E03E1508F462C2812FFF
:100E90000E94EC195EC2E1105CC212C0FF2019F082
:100EA000EE20A9F3E0C1EE2059F0093309F0EDC1BD
:100EB0008FEF97EEE3E081509040E040E1F7E3C12F
:100EC000812F0E94E11945C2812F869586958370F6
:100ED00019F0813059F03DC2FF2019F0C80193701C
:100EE00002C080E090E00E94B60B39C2FF2019F0EA
:100EF000C801937002C080E090E00E94A00B2FC256
:100F0000FF20F9F0053F51F0063F71F0043FA9F4CE
:100F10008091FB019091FC0181600BC08091FB01ED
:100F20009091FC01826005C08091FB019091FC01D1
:100F300084609093FC018093FB01802F0E94A91F85
:100F40001EC0053F51F0063F71F0043FA9F48091A7
:100F5000FB019091FC018E7F0BC08091FB01909171
:100F6000FC018D7F05C08091FB019091FC018B7F7E
:100F70009093FC018093FB01802F0E94DF1E0E9452
:100F80006D20EDC1812F837009F069C0F110E5C1BA
:100F9000902F929596959770990F990F802F8F703B
:100FA000482E512C612C712C092E04C0440C551C68
:100FB000661C771C0A94D2F704FF12C04FE050E081
:100FC00060E070E004C0440F551F661F771F9A95BC
:100FD000D2F7DB01CA0180959095A095B09503C02A
:100FE00080E090E0DC0116951695412F4370423069
:100FF00019F1C8F4009128031091290320912A03C4
:1010000030912B03413059F084299529A629B7291D
:10101000BC01CD0160237123822393230AC0402A9F
:10102000512A622A732ABC01CD01642975298629B7
:1010300097290E945F1791C184299529A629B7296C
:10104000009128031091290320912A0330912B034A
:10105000BC01CD016027712782279327EACFFF20AB
:1010600019F0812F817001C08695882309F475C11C
:10107000902F929596959770990F990F802F8F705A
:10108000482E512C612C712C092E04C0440C551C87
:10109000661C771C0A94D2F704FF12C04FE050E0A0
:1010A00060E070E004C0440F551F661F771F9A95DB
:1010B000D2F7DB01CA0180959095A095B09503C049
:1010C00080E090E0DC0116951695412F4370423088
:1010D000D9F068F50091C5021091C6022091C702AF
:1010E0003091C802413059F084299529A629B729A1
:1010F000BC01CD0160237123822393231EC0402AAB
:10110000512A622A732A13C084299529A629B7294E
:101110000091C5021091C6022091C7023091C80209
:10112000BC01CD01602771278227932706C0BC012F
:10113000CD0164297529862997290E9422170DC19E
:101140001F70FF2039F0812F0E940E23802F0E94F4
:10115000EC1903C1802F0E94E119812F0E94D02237
:10116000FCC0802FF2EFBF1609F43EC0FB1538F02B
:1011700020EFB21661F031EFB31689F16FC093EF33
:10118000B916C9F1E4EFBE1609F44CC067C0FF20E0
:1011900009F1E110DEC01F7181E090E0A0E0B0E055
:1011A000AC01BD0104C0440F551F661F771F1A957F
:1011B000D2F78091C5029091C602A091C702B0916A
:1011C000C8028A019B01082719272A273B27C90142
:1011D000B80125C021E02E1508F4BBC0DCCFFF20EC
:1011E00029F0812F8F712CC0FF20D9F3812F8F71AF
:1011F0000E94D022AEC0FF2079F01F7181E090E004
:10120000A0E0B0E0BC01CD0104C0660F771F881FCD
:10121000991F1A95D2F703C060E070E0CB010E94DD
:10122000221797C0FF2079F01F71812F0E940E2393
:1012300038E0139FC0011124836080932303812F22
:101240000E940E2386C081E00E94F52281E08E1567
:1012500008F07FC082E00E94F5227BC0FF2039F0B9
:10126000EE2009F4BECF802F0E945D1A72C0EE20DE
:1012700009F4BCCF893349F49FEFE7EEF3E09150D6
:10128000E040F040E1F700C00000802F0E94F61916
:1012900060C012EFB116E1F01B1538F020EFB21666
:1012A00069F031EFB31611F12BC084EFB816C9F015
:1012B000B81660F095EFB91671F022C0FF2009F45E
:1012C0004EC09091480281E0892708C081E0F8264D
:1012D000F092480244C0F11042C081E0809348027D
:1012E0003EC0F1103CC01092480239C0FF2029F0E6
:1012F00080914702882329F329C0EE2011F32FC0E3
:1013000080914702EE20C1F0882341F0909148027D
:1013100081E089278093480210924702802FFF20A6
:1013200019F00E945D1A1BC00E94F61986E0F601B2
:1013300011928A95E9F713C0882389F0F1100FC044
:101340009091480281E089278093480210924702D9
:1013500006C088EF890D843010F40E94CC0BAA20BF
:10136000C1F08091230380FD14C0F601128285959F
:10137000859585950E940E23C6010E945503809194
:1013800023038595859585950E94D02202C069E248
:1013900076CC2A960FB6F894DEBF0FBECDBFDF9194
:1013A000CF911F910F91FF90EF90DF90CF90BF9062
:1013B000AF909F907F906F905F904F900895909125
:1013C000990292FF0DC0282F2871283019F4877FC9
:1013D000846006C0282F2471243011F48B7F88602C
:1013E00093FF0DC0282F2871283119F4877E84615E
:1013F00006C0282F2471243111F48B7E886120913E
:101400009A0220FF0DC0382F3871383019F4877FC9
:10141000816006C0382F3171313011F48E7F8860C1
:1014200021FF0DC0282F2871283119F4877E816192
:1014300006C0282F2171213111F48E7E886194FD20
:10144000877E0895CF93E82F873080F5809107013C
:1014500090910801892B09F047C0CE2F64E670E017
:1014600080E40E9435239093080180930701892B23
:10147000D1F464E670E082E10E948C23909308012D
:1014800080930701892B79F481E090E001C0880FF7
:10149000CA95EAF764E670E080950E948C239093E9
:1014A000080180930701CF910C94E12390E0FC01A7
:1014B0003797E730F105C0F4EE59FF4F0C945524EF
:1014C000209A289811C0219A29980EC0229A2A9809
:1014D0000BC0239A2B9808C0529A5A9805C0539A69
:1014E0005B9802C03E9A4698CF910895CF9387307B
:1014F00008F03FC08091070190910801892B09F005
:1015000041C064E670E080E40E94352390930801B6
:1015100080930701892B11F0C0E027C064E670E0DA
:1015200083E10E948C239093080180930701892B0B
:1015300099F764E670E081E40E94352390930801F6
:1015400080930701892B41F784E690E00E94BC2339
:1015500097FF05C09093080180930701DDCFC82F46
:10156000C09510920801109207010E94E1238C2F70
:101570000AC09FB18FB1807F869586959370892B25
:10158000809501C080E0CF9108950F931F93CF9372
:10159000DF93CDB7DEB767970FB6F894DEBF0FBE07
:1015A000CDBF4B8B5C8B6D8B7E8B8F8B0E891F8998
:1015B0000115110531F05F3F31F481E04F3F19F41F
:1015C00003C081E001C080E080FD32C0242F30E004
:1015D000A1E0B0E0042E01C0AA0F0A94EAF7852F1B
:1015E00090E0662319F07091480205C0FC01E65FA7
:1015F000FD4F70817A237723A1F046E0489FF001E8
:10160000499FF00D1124E20FF31FEE0FFF1FED5E57
:10161000FE4F40815181FC01E65FFD4F9081A92B77
:1016200006C0FC01E65FFD4FA0958081A823A08342
:1016300086E0FE013D96DF01982F1D929A95E9F70D
:101640004D875E876F87198B088BDE011796019097
:101650000D928A95E1F7CE0107960E94DB17811162
:101660003EC086E0FE013796DE01119601900D9294
:101670008A95E1F7FF81E8856A857B8561157105AB
:1016800031F0EF3F31F481E0FF3F19F403C081E016
:1016900001C080E080FD23C020914F0230E0C901ED
:1016A0000196877099274091800250E08417950732
:1016B00079F1F983EA837D836C8396E0929FD00170
:1016C000939FB00D1124A05BBD4FFE013196019098
:1016D0000D929A95E1F780934F020E94691716E0E8
:1016E0008091800290914F028917F9F0189FC001F4
:1016F0001124805B9D4F0E94DB178823B1F08091FD
:10170000800290E001968770992780938002E8CF4D
:101710000E94B71910924F0210928002E9E4F2E0A1
:1017200086E0DF011D928A95E9F767960FB6F89477
:10173000DEBF0FBECDBFDF91CF911F910F910895F6
:1017400020910802309109022817390771F090930F
:10175000090280930802E0919B02F0919C0230976D
:1017600021F00084F185E02D09940895209106026E
:10177000309107022817390771F090930702809380
:101780000602E0919B02F0919C02309721F00680C6
:10179000F781E02D09940895E0919B02F0919C025D
:1017A000309721F00190F081E02D099480E00895B8
:1017B000609183028CE090E00C94F923CF93DF9347
:1017C00024E5829FC0011124FC0146E0749FE00DD6
:1017D000F11D1124E60FF11DEE0FFF1FE05FFE4F1C
:1017E000C591D491CE01C238D10569F1B0F4C133AD
:1017F000D10509F475C048F4C932D10509F469C0AE
:10180000CA32D10509F473C085C0C533D10509F4C6
:1018100059C0C933D105B9F07DC0C33ED10571F1BE
:1018200038F4C03ED105B1F0C23ED10511F172C00D
:10183000C63ED105B9F1C73ED105C9F1C43ED105B7
:1018400009F068C024C02091990220FD5DC021FDEF
:101850005BC060C02091990220FD50C020919A0287
:1018600020FF57C18091990284FD51C183EE90E021
:1018700050C12091990222FF4CC1F4CF809199026E
:1018800082FD3FC080919A0280FD3EC0EBCF209147
:101890009A0221FF3EC18091990284FD38C187EEF2
:1018A00090E037C12091990223FF33C1F4CF80919A
:1018B000990283FD2CC080919A0281FFECCF84EEC7
:1018C00090E027C12091990225FF23C189E290E091
:1018D00020C12091990225FF1CC185E390E019C128
:1018E0002091990226FF15C18AE290E012C1209151
:1018F000990226FF0EC181E390E00BC189E390E0DD
:1019000008C182EE90E005C180EE90E002C186EE53
:1019100090E0FFC0C11552E5D50708F075C0C115AC
:1019200021E5D20728F09C2F8827816F906AF1C0AB
:10193000C83ED10570F5C03ED10508F0EAC0C83AEE
:10194000D105B8F4C53AD10550F08C2F855AC82F6F
:10195000D0E0C554DE4F888190E09064DAC0C13099
:10196000D10509F4D6C008F4D2C0249708F4CFC03A
:10197000D0C0CF3BD10508F0CAC08C2F885AC82FE1
:10198000D0E0CC0FDD1FC254DE4F88819981946472
:10199000C0C0C11540E2D40760F4C11551E0D507BD
:1019A00008F0B7C0C03FD10508F4B1C0CE019065C2
:1019B000B0C0C11580E4D80708F4A9C0C11520E55E
:1019C000D20720F4CE019F70906AA3C0CE01F4E04C
:1019D00096958795FA95E1F7282F23703C2F337061
:1019E00081E090E002C0880F991F3A95E2F79C6869
:1019F000922B2C2F2F702695269550E2259F900133
:101A00001124822B932B85C0C11546E5D40708F01D
:101A10003FC0C11555E5D50748F08C2F0E94DF095E
:101A20008F7190E0982F8827906273C0C11584E56C
:101A3000D80728F09C2F8827846F906A6AC09E017F
:101A4000237033279C2F96959695C115D34580F426
:101A500041E050E002C0440F551F2A95E2F780E2B2
:101A6000989F90011124CA01822B932B9C6851C02E
:101A700041E050E002C0440F551F2A95E2F780E292
:101A8000989F90011124CA01822B932B9A6841C020
:101A9000C1155AE5D50778F5C11589E5D80710F1C4
:101AA0008C2F8F700E94DF099E0194E03695279558
:101AB0009A95E1F72F7030E0322F22273069A90183
:101AC000482B0EC090568115904208F58D2F8F71CE
:101AD0000E94DF099E01332730628F71A901582BC4
:101AE000CA0117C0C11528E5D20788F09C2F8827A6
:101AF000806F906A0EC0C1154BE5D40740F0CE014F
:101B0000C1155CE5D507F0F69927906602C080E024
:101B100090E0DF91CF910895CF92DF92EF92FF9204
:101B20000F931F93CF93DF93EC018AE0C82EFE0141
:101B30008491882309F484C0813009F041C0319632
:101B40008491813041F42296FE011491812F0E94EC
:101B50005D1A812F0DC0823031F42296FE018491EE
:101B60000E945D1A6BC0833031F42296FE0184918D
:101B70000E94F61963C0843009F05FC02296FE010E
:101B8000249180E090E030E0205331092A30310583
:101B900060F4C89EA001C99E500D1124C901840F94
:101BA000951F2196FE012491EECF009709F446C0BF
:101BB000EFE9FFE03197F1F700C000000197F5CFA2
:101BC000E82FF0E0EC5AFC4FD490082F06950695CC
:101BD000069510E0F801EC5BFC4FE4908770F12C67
:101BE000082E02C0F594E7940A94E2F7F1E0EF22A0
:101BF000FF24F801EC5CFC4F049110E002C0159545
:101C000007958A95E2F701701127E114F10419F0A4
:101C100081EE0E945D1A0115110519F086EE0E94F1
:101C20005D1A8D2D0E94EA1A012B19F086EE0E9492
:101C3000F619EF2819F081EE9BCFEF01219677CFAF
:101C4000DF91CF911F910F91FF90EF90DF90CF9098
:101C50000895CF92DF92EF92FF926B017C010E9478
:101C60008E2156985E9825982D9826982E9827981C
:101C70002F9890E0FC013197E730F105A8F4E7597F
:101C8000FF4F0C945524259A2D9A0EC0259A2D9A13
:101C9000269A2E9A09C0259A2D9A04C0259A2D9A23
:101CA000269A2E9A279A2F9AC701B601FF90EF9095
:101CB000DF90CF90089580E290E0909308018093A8
:101CC00007018091030281110EC00E942F2381E041
:101CD000809303022FEF83ED90E3215080409040EA
:101CE000E1F700C0000064E670E080E40E94352364
:101CF0009093080180930701892B09F04EC064E698
:101D000070E080E00E948C2390930801809307018B
:101D1000892B09F042C064E670E080E00E948C23C9
:101D20009093080180930701892BB9F564E670E070
:101D30008FE30E948C239093080180930701892BE5
:101D400061F50E94E12364E670E080E40E9435239F
:101D50009093080180930701892BF9F464E670E001
:101D60008CE00E948C239093080180930701892BBB
:101D7000A1F464E670E080E00E948C239093080157
:101D800080930701892B49F464E670E08FE30E9499
:101D90008C2390930801809307010E94E123809196
:101DA00007010895CF93DF9356985E9825982D9854
:101DB00026982E9827982F98C8E8D0E08FEF90E0CB
:101DC00099838883AAE8B0E011969C938E93ECE8FF
:101DD000F0E091838083259A2D9A2FEF80E792E09F
:101DE000215080409040E1F700C00000269A2E9AD2
:101DF0002FEF80E792E0215080409040E1F700C053
:101E00000000279A2F9A2FEF80E792E02150804020
:101E10009040E1F700C0000025982D982FEF80E753
:101E200092E0215080409040E1F700C000002698E9
:101E30002E982FEF80E792E0215080409040E1F70C
:101E400000C0000027982F988091870287702FEF9D
:101E5000829FC0011124959587959595879599271F
:101E60009983888311969C938E939183808356984F
:101E70005E9825982D9826982E9827982F98DF9170
:101E8000CF91089584B1807F84B985B1807F85B971
:101E90008AB1837F8AB98BB1837F8BB93E9846988C
:101EA000089580B38C7080BB81B3836F81BB08952C
:101EB0000F931F93CF93DF93C62FD42F122FFC01C4
:101EC00082818823C9F06093F9010E946120909378
:101ED00005028093040280E28C0F883008F057C01E
:101EE000C77081E001C0880FCA95EAF7DF91CF91F2
:101EF0001F910F910C94EC198091F901681330C077
:101F000080910402909105020E943720883C91053F
:101F100038F500E20D0FCD17B9F080E28C0F883054
:101F200040F4C77081E001C0880FCA95EAF70E94AB
:101F3000E119083028F581E09D2F977001C0880FC6
:101F40009A95EAF70E94EC19812F0E94EA1A08304C
:101F5000F0F4D77081E001C0880FDA95EAF70AC083
:101F600080E28C0F883098F4C77081E001C0880F40
:101F7000CA95EAF7DF91CF911F910F910C94E11967
:101F8000812FDF91CF911F910F910C94EA1ADF916D
:101F9000CF911F910F910895BF92CF92DF92EF9250
:101FA000FF920F931F93CF93DF938091070190913E
:101FB0000801892B91F0809102028F5F80930202C9
:101FC00081110BC00E945B0E90E0909308018093FA
:101FD0000701892B11F40E94D20E9BE8E92E92E0B2
:101FE000F92E8701C0E0B12C87E0C82ECC0E8C2FD3
:101FF0000E94220A8C2D0E94220A8C2F0E94760AAF
:10200000F8019081891721F08083DD24D39401C0E9
:10201000D12C8C2D0E94760AF8019781891719F02E
:10202000878381E001C080E0D82ABD280E94420F4A
:10203000CF5F0F5F1F4FC730B9F60E9461206AEF74
:1020400070E00E942D249C01682F8091FE0188235E
:10205000E9F11092FE01E0918102F0918202DF012C
:102060001E9690E07BEF0AEF10E080818B3FA9F095
:10207000482F50E0681728F06901C41AD50AA60154
:1020800006C0E801C41BD50BAE01420F531F4E31F1
:10209000510514F0708301C091E03196EA17FB07F7
:1020A00021F79093FE01B11002C0911111C010925E
:1020B000FD01E0918102F09182029091FE01AEE972
:1020C000B2E0AF01425F5F4F80E00FC0B110EFCFD1
:1020D0008091FD018111EBCF2091CB028091000214
:1020E00090910102211119C057C0E70129917E0189
:1020F0003C91321741F030813B3F21F460832C93B7
:1021000091E001C081E031961196E417F50769F777
:102110009093FE018093FD01DFCF892B31F4259848
:102120002D9826982E9827982F98809100029091AC
:1021300001029170892B79F48091FF01882319F0B5
:1021400026982E9802C0269A2E9A9091FF0181E03F
:1021500089278093FF0180910002909101028130D4
:10216000984780F01092CB026091C5027091C60230
:102170008091C7029091C8020E94290E109201021C
:1021800010920002809100029091010201969093BA
:1021900001028093000210C0892B71F0109201029D
:1021A000109200026091C5027091C6028091C70230
:1021B0009091C8020E94290E8B2DDF91CF911F9123
:1021C0000F91FF90EF90DF90CF90BF900895809196
:1021D0003F0287FF11C08091E80082FD05C0809119
:1021E0003D028111F8CF11C08091E8008B770BC0C0
:1021F00080913D02882349F08091E80080FFF8CF6C
:102200008091E8008E778093E8000895982F9730AA
:1022100068F59093E900981739F07091EC002091DF
:10222000ED005091F00003C0242F762F50E021FDE7
:1022300002C09F5FECCF3091EB003E7F3093EB000C
:102240003091ED003D7F3093ED003091EB00316037
:102250003093EB007093EC002093ED005093F0006E
:102260002091EE0027FDE5CF80E008958F708093E8
:10227000E90081E008952091450230914602261739
:10228000370748F06115710539F42091E8002E7781
:102290002093E80001C0B901FC0120E0611571053F
:1022A00091F180913D02882309F440C0853009F402
:1022B0003FC08091E80083FD3DC08091E80082FD31
:1022C0002FC08091E80080FFE9CF2091F30080913A
:1022D000F20090E0922B6115710559F0883091055C
:1022E00040F424912093F1003196615071090196D8
:1022F000F2CF21E0089709F020E08091E8008E7786
:102300008093E800CBCF2111CCCF0AC080913D0251
:10231000882361F0853061F08091E80083FD0AC078
:102320008091E80082FFF2CF80E0089582E0089576
:1023300083E0089581E0089520914502309146029E
:102340002617370748F06115710539F42091E80028
:102350002E772093E80001C0B901FC0120E061154F
:10236000710579F180913D028823F1F18530F1F119
:102370008091E80083FD3CC08091E80082FD2EC082
:102380008091E80080FFEBCF2091F3008091F20074
:1023900090E0922B6115710551F08830910538F469
:1023A00021912093F100615071090196F3CF21E052
:1023B000089709F020E08091E8008E778093E8008C
:1023C000CECF2111CFCF0AC080913D02882361F08A
:1023D000853061F08091E80083FD0AC08091E800BB
:1023E00082FFF2CF80E0089582E0089583E00895AF
:1023F00081E008951F93CF93DF93CDB7DEB7AA97FF
:102400000FB6F894DEBF0FBECDBFEFE3F2E08091D0
:10241000F100819322E0E734F207C9F7809140028E
:102420008930B9F150F4823009F4A5C0833009F441
:102430005FC0813009F0EEC00CC08B3009F470C071
:1024400008F488C0823409F4AEC0853409F4C5C0EC
:10245000E1C080913F02813A09F0DCC08091E80040
:10246000877F8093E8008091430290914402892BFA
:1024700021F460E28BE192E003C060E080E090E054
:1024800070E00E949C118091E8008B778093E800B7
:10249000C1C080913F02813209F0BCC080914302EB
:1024A00090914402029708F0B5C08091E800877FC0
:1024B0008093E8008091E80082FD05C080913D0294
:1024C0008111F8CFA7C02091F3008091F20090E035
:1024D000922B029729F48091F1008B7F813021F4B7
:1024E0008091F10080931A028091E8008B7758C0A8
:1024F00080913F02813A09F08DC080914302909112
:102500004402892B09F086C08091E800877F809380
:10251000E8008091E80080FFFCCF809106013BC07D
:1025200080913F02813209F075C080914302909101
:102530004402892B09F06EC08091E800877F809368
:10254000E8000E94E71080914102809306010E94FA
:10255000B71960C080913F02813209F05BC0809161
:10256000E800877F8093E8000E94E7108091420294
:10257000809319024FC080913F02813A09F04AC00E
:102580008091E800877F8093E8008091E80080FFD9
:10259000FCCF809119028093F1008091E8008E7742
:1025A0008093E8002FC080913F02803C99F5809194
:1025B000430290914402029741F58091410290912B
:1025C0004202892B11F58091E800877F8093E80013
:1025D0006BE170E086E894E013C080913F02803C9C
:1025E000C9F48091430290914402079771F480915D
:1025F000E800877F8093E80062EB70E084ED93E071
:102600000E943B110E94E71005C08091EB008062A0
:102610008093EB008091E80083FFA4C180913F028A
:1026200090914002492F50E04A30510508F09AC17C
:10263000FA01E059FF4F0C945524803821F082387C
:1026400009F090C108C080913B0290913C0299230F
:1026500089F082600FC0809143028F70873008F04C
:1026600081C18093E9008091EB0085FB882780F988
:102670001092E9009091E800977F9093E800809392
:10268000F1001092F10033C1282F2D7F09F06AC1AB
:10269000882319F0823061F065C180914102813058
:1026A00009F060C1933009F080E080933C022EC0B5
:1026B0008091410281112AC0809143028F702FEFD7
:1026C000280F263008F04EC18093E9002091EB00DE
:1026D00020FF1CC0933021F48091EB00806214C075
:1026E0009091EB0090619093EB0021E030E0A90124
:1026F00002C0440F551F8A95E2F74093EA001092FA
:10270000EA008091EB0088608093EB001092E90072
:102710008091E800877FEEC0811124C110914102B1
:102720001F778091E3008078812B8093E300809174
:10273000E800877F8093E8000E94E7108091E8001E
:1027400080FFFCCF8091E30080688093E30011114B
:1027500002C082E001C083E080933D0203C1805843
:10276000823008F0FFC080914102909142028C3D7E
:1027700053E0950779F583E08A838AE289834FB72E
:10278000F894DE01139620E03EE051E2E32FF0E002
:1027900050935700E49120FF03C0E295EF703F5F34
:1027A000EF708E2F90E0EA3010F0C79601C0C0960F
:1027B0008D939D932F5F243149F74FBF8091E8009F
:1027C000877F8093E8006AE270E0CE0101960E9464
:1027D0009C117BC04091430250914402292F332722
:1027E0002330310511F168F42130310509F4C9C0F5
:1027F0002230310509F0B6C062E570E082EA95E06A
:102800005DC02132310509F43BC02232310509F4A3
:1028100044C02F30310509F0A5C0E4E3F6E0E491AF
:102820006E2F70E082E396E045C0992781309105D4
:10283000B9F070F082309105D9F0039709F092C099
:10284000E6E0F6E0E4916E2F70E086E096E032C0BC
:10285000EEE2F6E0E4916E2F70E08EE296E02AC0A0
:10286000E4E2F6E0E4916E2F70E084E296E022C0AC
:10287000ECE0F6E0E4916E2F70E08CE096E01AC098
:102880004115510509F482C04130510509F06AC073
:1028900069E070E08DEC95E011C04115510509F437
:1028A0007AC04130510509F05DC060EC70E082EA09
:1028B00094E004C06115710509F454C02091E8004A
:1028C000277F2093E8000E943B118091E8008B77DE
:1028D0008093E80047C0803809F044C08091E80048
:1028E000877F8093E80080913E028093F100809181
:1028F000E8008E778093E8000E94E71033C08111D2
:1029000031C080914102909142029927029754F57B
:102910008091E800877F8093E80010914102109336
:102920003E020E94E710111106C08091E30087FD6E
:1029300002C081E001C084E080933D0242E061EC8E
:1029400081E00E94061142E261EC82E00E940611E1
:1029500042E361EC83E00E94061142E360EC84E014
:102960000E9406118091E80083FF1AC08091E80060
:10297000877F8093E8008091EB0080628093EB007A
:102980000FC062E170E084EF95E098CF69E070E0FD
:1029900084EB95E093CF60E470E082E695E08ECF23
:1029A000AA960FB6F894DEBF0FBECDBFDF91CF91D0
:1029B0001F9108951F920F920FB60F9211242F931B
:1029C0003F934F935F936F937F938F939F93AF93B7
:1029D000BF93CF93DF93EF93FF93C091E900CF7044
:1029E0008091EC00D82FD17080FDD0E81092E900E2
:1029F0008091F000877F8093F00078940E94FA1114
:102A00001092E9008091F00088608093F000CD2B57
:102A1000CF70C093E900FF91EF91DF91CF91BF910B
:102A2000AF919F918F917F916F915F914F913F9166
:102A30002F910F900FBE0F901F901895E8EDF0E0CA
:102A400080818E7F80831092E2001092DA001092D3
:102A5000E100A0EEB0E08C9181608C9380818F7753
:102A6000808319BCA7EDB0E08C918E7F8C93808120
:102A70008F7E8083109218020895CF92DF92EF929A
:102A8000FF920F931F93CF93DF93C8EDD0E088811F
:102A90008F7E8883E7EDF0E080818160808384E031
:102AA00082BF81E08093180288818E7F888302EE46
:102AB00010E0F80110821092DA0081EEC82ED12CBD
:102AC000F601108288818F77888388818068888367
:102AD00088818F7D888319BC10923D0210923E023E
:102AE00010923C0210923B0290EEE92EF12CF7017D
:102AF00080818B7F808388818160888342E060E071
:102B000080E00E940611F60180818E7F8083F801AB
:102B1000808181608083808188608083F7018081EB
:102B20008E7F8083888180618883DF91CF911F9120
:102B30000F91FF90EF90DF90CF9008951F920F922A
:102B40000FB60F9211242F933F934F935F936F9380
:102B50007F938F939F93AF93BF93EF93FF93809156
:102B6000E10082FF09C08091E20082FF05C08091F0
:102B7000E1008B7F8093E1008091DA0080FF2AC022
:102B80008091D80080FF26C08091DA008E7F8093EC
:102B9000DA008091D90080FF18C080E189BD82E110
:102BA00089BD09B400FEFDCF81E080933D02809194
:102BB000180281110FC00E941E150E943D158091C0
:102BC000E20084608093E20005C019BC10923D02CF
:102BD000109218028091E10080FF17C08091E200FE
:102BE00080FF13C08091E2008E7F8093E20080918D
:102BF000E20080618093E2008091D800806280933F
:102C0000D80019BC85E080933D028091E10084FFEB
:102C100032C08091E20084FF2EC080E189BD82E154
:102C200089BD09B400FEFDCF8091D8008F7D8093CF
:102C3000D8008091E1008F7E8093E1008091E200D6
:102C40008F7E8093E2008091E20081608093E200B9
:102C500080913E02882311F084E007C08091E30058
:102C600087FD02C081E001C083E080933D020E94A5
:102C7000B7190E94CC0B8091E10083FF27C080919F
:102C8000E20083FF23C08091E100877F8093E10011
:102C900082E080933D0210923E028091E1008E7F9F
:102CA0008093E1008091E2008E7F8093E20080912A
:102CB000E20080618093E20042E060E080E00E94F8
:102CC00006118091F00088608093F000FF91EF91F1
:102CD000BF91AF919F918F917F916F915F914F9134
:102CE0003F912F910F900FBE0F901F90189520913C
:102CF000E4003091E50095E64091EC00842F81706E
:102D000040FF23C08091E80080FD1DC080913D02FE
:102D1000882399F0853099F08091EB0085FD11C0F2
:102D20004091E4005091E5002417350729F39150B4
:102D300011F09A01E1CF84E0089582E0089583E0E4
:102D4000089581E0089580E008954091E80042FFF1
:102D5000DDCF0895EF92FF920F931F93CF93DF93F0
:102D60007C018B010E947716811119C0E7010115C2
:102D70001105A1F08091E80085FD0AC08091E8006E
:102D80008E778093E8000E947716882381F307C02E
:102D900089918093F10001501109E9CF80E0DF9122
:102DA000CF911F910F91FF90EF90089580913D0278
:102DB000843011F081E0089582E008950E946C2231
:102DC000292F2F70E92FE295EF704E2F50E0FA0176
:102DD0003297EE30F105B8F4E658FF4F0C945524C5
:102DE000803F99F018F4883E70F40FC0843F59F486
:102DF0000CC0883E50F0813F31F407C0822F869589
:102E000086958695089580E0089581E00895109252
:102E10002503109224030E94E421ECEAF2E086E00C
:102E2000DF011D928A95E9F71092B20210923003E9
:102E30000E946D2080E090E00E94B60B80E090E060
:102E40000C94A00BCF92DF92EF92FF92CF93DF937F
:102E500000D000D0CDB7DEB70E94290E6B017C01F7
:102E60008091C902882319F08091CA0202C080E0D3
:102E700090E080FF0FC0198282E08A83C701B6010B
:102E80000E948E218B838EEF8C8364E0CE010196AD
:102E90000E94C71EC092C502D092C602E092C7022D
:102EA000F092C8020E9407170F900F900F900F909A
:102EB000DF91CF91FF90EF90DF90CF9008956093D6
:102EC00028037093290380932A0390932B030C9477
:102ED00007178091800290914F02891719F08F5F38
:102EE0008770FBCF0895CF9380914E0282958F70AB
:102EF00009F05FC080914B02882309F45AC0809189
:102F00008002B0914F0270914902A0914A02409113
:102F10004C0250914D0291E07F3F09F090E0692F03
:102F2000C6E08B1709F445C04115510521F0AF3FAC
:102F300021F020E003C021E001C0262F90E020FD19
:102F400035C0C89FF001C99FF00D1124E05BFD4F13
:102F500021812A132BC02081271328C0228121110F
:102F600025C0238134812417350710F421503109FD
:102F7000241B350B283C3105C8F420914E022F70DC
:102F8000206120934E0226E0289FF001299FF00D3A
:102F90001124EB5AFD4F80818F708061808389E41A
:102FA00092E00E945503CF910C94691701968770A7
:102FB000B8CFCF910895AF92BF92CF92DF92EF92A8
:102FC000FF920F931F93CF93DF93CDB7DEB7619737
:102FD0000FB6F894DEBF0FBECDBF8C0185E0F801BF
:102FE000DE011D9601900D928A95E1F7D8013C9182
:102FF00011962C9111971296EC9050914902609184
:103000004A0280914C0290914D02009731F06F3F3F
:1030100031F441E05F3F19F403C041E001C040E0FA
:10302000B42FB170BB2E40FD43C1F801C380D480E2
:10303000A0904B02AA2009F4E2C040914E02C816AB
:10304000D90628F0D601A81BB90BCD0104C0809584
:1030500090958C0D9D1DFF24F394883C910548F0BC
:10306000F12C407F09F090C089E492E00E94550362
:1030700017C1842F807F09F052C0621312C053130E
:1030800010C0FE2CE1100DC04F70406140934E0205
:1030900089E492E00E94550380914E02F8018583F5
:1030A00054C1CD2831F02F3F31F481E03F3F19F476
:1030B00003C081E001C080E080FD03C081E08E2577
:1030C00002C080E090E0F82FF170FF2E80FF1CC05E
:1030D0008091800240914F0256E0841709F412C19A
:1030E00090E0589FF001599FF00D1124E05BFD4FD7
:1030F0006181261306C06081361303C06281E61227
:1031000003C001968770E9CFFE2CEE2009F41DC1A3
:1031100080914E02816080934E02F12C16C16213A1
:1031200008C0531306C0E11004C080914E02F8019C
:1031300099C03D872E878D859E850E94DE16882347
:1031400069F1EE2059F120914E02822F82958F7005
:1031500090E0029774F08091490290914A0298871A
:103160008F831986DB86CA862C87CE0107960E943C
:10317000550386E0F801A9E4B2E001900D928A952A
:10318000E1F70E9473170DC0621771F03D872E871B
:103190008D859E850E94DE1681111AC0C8010E948D
:1031A0005503FF24F394D1C05313F0CFE110EECFB9
:1031B00080914E02F8018583C8010E94550386E084
:1031C000E9E4F2E0DF011D928A95E9F7FA2CBDC02F
:1031D000EE2021F320914E02822F82958F7090E095
:1031E00002973CF28091490290914A029A83898326
:1031F0001B82DD82CC822E83CE010196B8CFC81609
:10320000D90638F0C81AD90AB8ECCB16D10450F058
:1032100007C0809590958C0D9D1D883C910510F000
:10322000F12C3EC0FE2CEE2009F4B8CF621327C06B
:10323000531325C020914E0220FD18C0822F829585
:103240008F70482F50E04115510581F0F80125831A
:103250004F30510541F08F5F982F9295907F822FCC
:103260008F70892B8583C8010E94550386E0F80181
:10327000A9E4B2E001900D928A95E1F766C03D871E
:103280002E878D859E850E94DE16811172CF8091DA
:103290004E02816080934E02C8010E94550355C0C2
:1032A000E9E4F2E086E0DF011D928A95E9F74DC07E
:1032B000EE2009F473CF3D872E878D859E850E9471
:1032C000DE16F82E882309F469CF86E0F801A9E418
:1032D000B2E001900D928A95E1F7809149029091B8
:1032E0004A020E946C2292959F70963041F4809120
:1032F000480291E0892780934802909347020E94F8
:10330000731723C03D872E878D859E850E946C2272
:10331000292F22952F70223028F49F7039F08111C7
:1033200005C00BC0243028F49F7049F4805E8830BB
:1033300020F0C8010E945503BF2CFB2C06C0D80109
:1033400015969C91907F91F7F8CF8F2D61960FB6CF
:10335000F894DEBF0FBECDBFDF91CF911F910F91CB
:10336000FF90EF90DF90CF90BF90AF9008951092B4
:10337000260380910601882331F08091990287FF0E
:1033800002C08EE101C086E0EEECF2E0DF011D92AA
:103390008A95E9F70C940717882341F0809590915E
:1033A00025038923809325030C94E4210895882321
:1033B00039F090912503892B809325030C94E42107
:1033C0000895882341F08095909126038923809366
:1033D00026030C94E4210895882339F09091260364
:1033E000892B809326030C94E4210895882309F403
:1033F00063C0823869F40E94CC0B81FF5DC069E331
:103400008CEC92E00E94D4200E94E42169E30EC07B
:10341000833891F40E94CC0B80FF4EC063E58CECA6
:1034200092E00E94D4200E94E42163E58CEC92E0BB
:103430000E94AC200C94E421843869F40E94CC0BE7
:1034400082FF3AC067E48CEC92E00E94D4200E9494
:10345000E42167E4EBCF9CEF980F913A10F4682FCA
:10346000E5CF90E2980F983088F4877021E030E043
:10347000A90102C0440F551F8A95E2F7CA01809541
:1034800090912603892380932603D4CF9BE5980F40
:10349000933020F480E090E00C94B60B98E5980F00
:1034A000973120F480E090E00C94A00B803F20F056
:1034B0000E94DF1E0C946D200895882309F489C0B2
:1034C0008238B1F40E94CC0B81FD83C069E38CEC9F
:1034D00092E00E94D4200E94E4212FEF41EE54E0BC
:1034E000215040405040E1F700C0000069E317C0A0
:1034F0008338D9F40E94CC0B80FD6BC063E58CEC63
:1035000092E00E94D4200E94E4218FEF91EE24E00B
:10351000815090402040E1F700C0000063E58CEC52
:1035200092E00E94AC200C94E4218438B1F40E9413
:10353000CC0B82FD4EC067E48CEC92E00E94D4205C
:103540000E94E4214FEF51EE84E041505040804012
:10355000E1F700C0000067E4E2CF9CEF980F913ADA
:1035600030F4682F8CEC92E00E94D420DCCF90E203
:10357000980F983080F4877021E030E0A90102C0F4
:10358000440F551F8A95E2F7CA0190912603892BB3
:1035900080932603C8CFEBE5E80FE33038F4F0E082
:1035A000E554FE4F808190E00C94B60BE8E5E80FFF
:1035B000E73148F4F0E0EE0FFF1FE254FE4F808148
:1035C00091810C94A00B803F20F00E94A91F0C94C5
:1035D0006D200895CF93C82F0E945D1AC93349F416
:1035E0002FEF87EE93E0215080409040E1F700C03C
:1035F00000008C2FCF910C94F619CF93DF9300D05D
:103600001F92CDB7DEB790913D02943019F58983B2
:103610007B836A8382E08093E9008FEF9091E800DA
:10362000815095FD06C095ED9A95F1F70000811146
:10363000F5CF8091E80085FF0DC040E050E063E0E9
:1036400070E0CE0101960E94AA168091E8008E7764
:103650008093E8000F900F900F90DF91CF91089525
:10366000CF93DF93EC010E94D616823011F08430A4
:1036700031F4BE0184E0DF91CF910C94FD1ADF910B
:10368000CF910895BC016058710983E00C94FD1A34
:10369000CF93DF93EC010E94D616823011F0843074
:1036A000F9F482E08093E9008FEF9091E800815077
:1036B00095FD06C095ED9A95F1F700008111F5CFC3
:1036C0008091E80085FF0CC040E050E066E070E0CB
:1036D000CE010E94AA168091E8008E778093E800C0
:1036E000DF91CF910895CF93DF93EC010E94D6161E
:1036F000823011F08430D9F580910601882339F0A9
:103700008091990287FF03C060E282E002C068E016
:1037100081E08093E9008FEF9091E800815095FD62
:1037200006C095ED9A95F1F700008111F5CF8091D3
:10373000E80085FF1CC080910601811105C040E0B2
:1037400050E068E070E003C070E040E050E0CE017F
:103750000E94AA168091E8008E778093E80080E2AC
:10376000FE01ABE1B2E001900D928A95E1F7DF91A5
:10377000CF910895CF93DF93CDB7DEB7C955D10967
:103780000FB6F894DEBF0FBECDBF84B7877F84BF6E
:103790000FB6F894A89580916000886180936000CE
:1037A000109260000FBE90E080E80FB6F89480930E
:1037B0006100909361000FBE85B7806885BF85B7B3
:1037C000806885BF0E941E150E943D158091E20011
:1037D00084608093E200789480913D028823A1F078
:1037E0001091E9001F709091EC00892F817090FD7D
:1037F00080E8182B1092E9008091E80083FD0E9478
:10380000FA111F701093E90082E084BD93E095BD2A
:103810009AEF97BD80936E000E945B0E90E09093AC
:103820000801809307010E94420F0E94510FABE8EC
:10383000B2E0EEE9F2E011921D9222E0EC3AF207DA
:10384000D1F78EE090E00E945B24809381029093F8
:103850008202FC010E962BEF21938E179F07E1F752
:1038600080E090E00E94F3238F3E9E4F11F00E9473
:103870001A218CE090E00E94E52390E0A0E0B0E007
:103880008093830290938402A0938502B093860272
:1038900089EA8093800089E08093810024982C98A5
:1038A0003F988AB18F7C8AB96E98479A8BB18063B2
:1038B0008BB9769A8FE090E00E94ED2360938702A7
:1038C000709388028093890290938A0267704FEF09
:1038D000649FB00111247595679575956795772755
:1038E000709389006093880070938B0060938A00C6
:1038F00070938D0060938C000E94D20E80E090E067
:103900000E94F3238F3E9E4F11F00E941A2182E005
:1039100090E00E94E5238093B6020E9409219093D3
:103920009A028093990283E090E00E94E523682F39
:1039300070E080E090E00E945F1789E091E0909352
:103940009C0280939B02EE24EA948EEFF82E93E083
:10395000492E21E4C22ED12CCC0EDD1EF2E0CF0E7A
:10396000D11C30E1732E42E1642E58E1A52EB12C1A
:1039700060E4562E80913D02853009F047C0809169
:103980003D02843009F110929D020FB6F894A8957B
:10399000A09260000FBE5092600083B7817F846068
:1039A00083BF83B7816083BF7894889583B78E7F08
:1039B00083BF0FB6F894A8958091600088618093CA
:1039C0006000109260000FBE80913C02882391F24B
:1039D0000E945B0E90E090930801809307010E9483
:1039E000420F0E94510FEEE9F2E0119222E0EC3A10
:1039F000F207D9F70E94CC0FEEE9F2E08191811134
:103A0000A0C132E0EC3AF307C9F7B4CF0E94CC0F63
:103A1000E7EBF2E0AEE9B2E000E010E0302F2D91EC
:103A200091919227A1F180E099249394492F492103
:103A300051F161968FAF619762963FAF62972921EE
:103A400081E009F480E063968FAF63970E94612064
:103A50008160782F65969FAF8EAF659761964FAD69
:103A6000619762965FAD629763966FAD6397659657
:103A70008FAD65970E94C50AF801E954FD4F80811A
:103A80009826908229C08F5F990C863079F60F5F57
:103A90001F4F0E30110509F0C1CF6696EFAE669745
:103AA0006796EFAE679768961FAE68970E94612091
:103AB0008160782F6A969FAF8EAF6A9766964FADFA
:103AC000669767965FAD679768966FAD68976A96D9
:103AD0008FAD6A970E94C50A8091B3029091B4029B
:103AE0000E9437209C019091B202992321F0243149
:103AF000310508F478C08091AE021091AF028111B7
:103B00000BC011113DC12091B002211139C120918A
:103B1000B102211135C167C09F3F19F09F5F90939B
:103B2000B202181624F40E94861F8093AE02809180
:103B3000AE0287FF05C00E94861F81958093AE026A
:103B4000111624F40E94861F8093AF028091AF0269
:103B500087FF05C00E94861F81958093AF02309138
:103B6000AE023323E1F02091AF022223C1F045EBF6
:103B70003403C0011124992319F09093AE0203C0BD
:103B800081E08093AE0235EB2303C0011124992319
:103B900019F09093AF0203C081E08093AF0280914F
:103BA000B002181624F40E94641F8093B002809122
:103BB000B00287FF05C00E94641F81958093B00208
:103BC0008091B102181624F40E94641F8093B10200
:103BD0008091B10287FF05C00E94641F8195809388
:103BE000B1020E946D200E94CC0B9091B502891702
:103BF00021F00E94CC0B8093B50280913D0284306D
:103C000009F0B8CE8093E9008091E80082FFB2CE3F
:103C10008091E80085FF21C00E94771681111BC0AA
:103C200000E410E0CE0101964C0108C08091F10043
:103C3000F40181934F010150110969F08091E8006E
:103C400085FDF4CF8091E8008B778093E8000E9497
:103C50007716882399F391E001C090E08091E80005
:103C60008B778093E800992309F484CE1981111190
:103C700014C08091CB02882351F11092CB0281E0D5
:103C80008093CA0222961FAE229723961FAE2397D7
:103C90002496FFAE249763E06DC01130C1F42296E4
:103CA0001FAE229723961FAF23978CE0ECEEF1E036
:103CB000D60101900D928A95E1F76096FFAE60976C
:103CC0006FE0CE018F5B9F4F0E94C71E53CE809145
:103CD000CA02882391F1123019F0133091F045C0D7
:103CE0006091C5027091C6028091C7029091C8028E
:103CF0000E948E2122961FAE229723961FAF2397F4
:103D000014C08A81813039F040F0823071F581E051
:103D10008093C90202C01092C90222961FAE229758
:103D200023964FAE23978091C90224968FAF249794
:103D30002596FFAE259764E01DC02296EFAE229730
:103D400018C079BC69BC09B400FEFDCF8091D800D1
:103D50008F7D8093D8008091E00082608093E000A6
:103D60008091E00081FDFCCF05CE81E022968FAFEF
:103D7000229761E0CE018F5B9F4F0E94C71EFACD54
:103D80009F3F09F0CBCEDCCE80911A02089520919E
:103D90003D02243099F423E02093E90070E040E0F4
:103DA00050E00E94AA16882321F01092CA021092B5
:103DB000CB028091E8008E778093E8000895803FE1
:103DC00039F48091AF0287FF6CC01092AF0269C0D6
:103DD000813F29F48091AF021816BCF362C0909124
:103DE000AE02823F29F497FF5CC01092AE0259C028
:103DF000833F19F41916CCF354C0893F41F48091E4
:103E0000B00218160CF04DC01092B0024AC08A3FA2
:103E100029F48091B00287FF44C0F6CF8B3F39F47C
:103E20008091B10287FF3DC01092B1023AC08C3F31
:103E300029F48091B1021816BCF333C0843F21F4F9
:103E40008091AD028E7F17C0853F21F48091AD0235
:103E50008D7F11C0863F21F48091AD028B7F0BC016
:103E6000873F21F48091AD02877F05C0883F31F400
:103E70008091AD028F7E8093AD0213C08D3F21F4FF
:103E8000809130038E7F0BC08E3F21F480913003F0
:103E90008D7F05C08F3F29F4809130038B7F809305
:103EA00030038091AE0281110EC08091AF0281116A
:103EB0000AC08091B002811106C08091B1028111C7
:103EC00002C01092B20208958091300380FD16C0A6
:103ED00081FD16C082FD18C08091B202882391F046
:103EE000883290F428E0829FC001112468E270E0DB
:103EF0000E944124862F672B29F007C082E0089595
:103F000084E0089581E0089588E008958091300369
:103F100080FD17C081FD17C082FD19C08091B202DB
:103F2000882399F08C3398F423E2829FC0011124F6
:103F30006CE370E00E944124862F672B49F481E0F6
:103F4000089588E0089581E1089585E0089583E269
:103F50000895803F21F40E94861F819504C0813F0F
:103F600029F40E94861F8093AF020895823F21F4B6
:103F70000E94861F819504C0833F29F40E94861FFA
:103F80008093AE020895893F19F40E94641F05C012
:103F90008A3F31F40E94641F81958093B002089596
:103FA0008B3F21F40E94641F819504C08C3F29F44B
:103FB0000E94641F8093B1020895843F21F4809190
:103FC000AD02816017C0853F21F48091AD0282600F
:103FD00011C0863F21F48091AD0284600BC0873F01
:103FE00021F48091AD02886005C0883F31F4809152
:103FF000AD0280618093AD0208958D3F21F48091E0
:10400000300381600BC08E3F21F4809130038260C9
:1040100005C08F3F29F48091300384608093300382
:10402000089578941F920F920FB60F9211248F93D8
:104030009F93AF93BF9380912C0390912D03A091F8
:104040002E03B0912F030196A11DB11D80932C0367
:1040500090932D03A0932E03B0932F03BF91AF91A4
:104060009F918F910F900FBE0F901F901895CF9238
:10407000DF92EF92FF920F931F932FB7F894409126
:104080002C0350912D0360912E0370912F032FBFAD
:104090006A017B01EE24FF248C0120E030E0C01691
:1040A000D106E206F30610F4415051099A01281B8B
:1040B000390BC9011F910F91FF90EF90DF90CF90C6
:1040C00008952FB7F89480912C0390912D03A0911F
:1040D0002E03B0912F032FBF0895E0919B02F09122
:1040E0009C02309749F082E08093AC020480F58115
:1040F000E02D8CEA92E009950E9461209093B40231
:104100008093B30208951F920F920FB60F9211245D
:104110008F939F93AF93BF9380919D02811113C0A2
:1041200080912C0390912D03A0912E03B0912F0329
:104130004196A11DB11D80932C0390932D03A09354
:104140002E03B0932F03BF91AF919F918F910F904A
:104150000FBE0F901F901895209106012223C9F0E1
:104160002091990227FF15C0262F26952695269582
:104170002E31C8F4FC01E20FF11D677081E090E080
:1041800001C0880F6A95EAF780959281892382831E
:104190000895FC0106962281621301C012823196B5
:1041A000E817F907C1F70895209106012223C1F00D
:1041B0002091990227FF14C0262F26952695269533
:1041C0002E3130F5FC01E20FF11D677081E090E0C7
:1041D00001C0880F6A95EAF79281892B828308953E
:1041E000FC0132962FEF30E04191641789F02F3FA8
:1041F00019F4411101C0232F3F5F3630A9F72F3F3B
:1042000039F0FC01E20FF11D27FDFA956283089554
:104210000895CF9384E090E00E94E523C82F81E2C7
:1042200090E00E94E5232C2F30E0A901582BCA0111
:10423000CF9108956FEE7EEF80E090E00E9417240A
:1042400060E082E090E00E94F92360E083E090E08B
:104250000E94F923109228031092290310922A0336
:1042600010922B0360E084E090E00E94F92360E06C
:1042700081E290E00E94F92360E085E090E00E94F6
:10428000F92360E086E090E00E94F9236FEF87E079
:1042900090E00E94F92340E050E0BA0188E090E00D
:1042A0000E940B2460E08DE090E00E94F92340E042
:1042B00050E0BA0188E190E00E940B2460E087E1C1
:1042C00090E00E94F92340E050E0BA018CE190E0D8
:1042D0000E940B2460E080E290E00E94F92310929B
:1042E0008702109288021092890210928A0284E05A
:1042F000806180938702409187025091880260918B
:10430000890270918A028FE090E00E940B2440E0C5
:1043100050E0BA0183E190E00C940B24CF92DF923D
:10432000EF92FF926C01EE24FF24C114D104E1044A
:10433000F10421F0C701B60120E101C020E0C72E41
:10434000D82EE92EFF24C114D104E104F10419F0A0
:10435000285FC701B6016B017C0154E0F694E79435
:10436000D794C7945A95D1F7C114D104E104F1044C
:1043700019F02C5FC701B6016B017C0142E0F69495
:10438000E794D794C7944A95D1F7C114D104E104B6
:10439000F10419F02E5FC701B601DC01CB01B6951F
:1043A000A79597958795892B8A2B8B2B09F02F5FE3
:1043B000822FFF90EF90DF90CF9008958091270398
:1043C000811110922703089590912603809125036F
:1043D000892B20912403982F922B9093CC028091CB
:1043E00027038823D9F0892B8093CC028091060182
:1043F000882331F08091990287FF02C08EE101C0CD
:1044000086E0EEECF2E090E0815028F0219122234A
:10441000D9F39F5FF9CF91110E94DE21E0919B02B9
:10442000F0919C023097A9F080910601882359F001
:104430008091990287FF07C08091CC028093CD02C2
:1044400085E08093CC020280F381E02D8CEC92E039
:1044500009940895BF92CF92DF92EF92FF920F934B
:104460001F93CF93DF938C01C090C502D090C602FA
:10447000E090C702F090C802809128039091290330
:10448000A0912A03B0912B03C82AD92AEA2AFB2A31
:10449000CFE1D0E0D701C6010C2E04C0B695A79598
:1044A000979587950A94D2F780FD04C0219790F7DD
:1044B000B12C07C0BC2EB8018C2F0E94DE0B0197D7
:1044C000A9F38B2DDF91CF911F910F91FF90EF906A
:1044D000DF90CF90BF900895CF93DF93EC010E94BF
:1044E0002A22BE010E94DE0BDF91CF910895292F71
:1044F000220F920F990F890F682F66956695669522
:10450000982F977085E0689FB001112440E050E03B
:1045100080E0FB01E40FF51FE451FD4F208130E006
:10452000092E02C0369527950A94E2F721703327A9
:10453000042E01C0220F0A94EAF7822B4F5F5F4FCF
:104540004530510531F70895292F220F920F990F09
:10455000890FE82FE695E695E695877051E001C052
:10456000550F8A95EAF785E0E89FF0011124E451A0
:10457000FD4F20E030E070E04081CB01022E02C010
:10458000969587950A94E2F7817081958427852313
:10459000842781932F5F3F4F2530310569F70895B8
:1045A0000F931F9341E050E060E070E004C0440FBF
:1045B000551F661F771F8A95D2F7409550956095D5
:1045C00070958091C5029091C602A091C702B091EA
:1045D000C8028A019B01082319232A233B23C9010E
:1045E000B8011F910F910C942217209123038095FD
:1045F000822380932303982F977079F430E0482F1B
:10460000082E000C550B2417350739F08595859534
:1046100085950E94D0221092230308950F931F9333
:1046200041E050E060E070E004C0440F551F661F99
:10463000771F8A95D2F78091C5029091C602A0910A
:10464000C702B091C8028A019B01082B192B2A2BA3
:104650003B2BC901B8011F910F910C9422171092A6
:10466000B9008CE08093B8000895EF92FF920F9309
:104670001F93CF93DF93182FEB011092BC0084EAB5
:104680008093BC000E9461207C018091BC0087FD6A
:104690000EC0CF3F8FEFD807C1F30E9461208E1963
:1046A0009F098C179D0788F38EEF9FEF2EC0809196
:1046B000B900887F883041F08091B900887F8031CF
:1046C00019F08FEF9FEF21C01093BB0084E8809317
:1046D000BC000E9461208C018091BC0087FD0CC051
:1046E000CF3F8FEFD807C1F30E946120801B910B51
:1046F0008C179D0788F3D8CF8091B900887F8831C7
:1047000011F08034F1F680E090E0DF91CF911F91BD
:104710000F91FF90EF9008950F931F93CF93DF9326
:10472000EB018093BB0084E88093BC000E94612071
:104730008C018091BC0087FD0EC0CF3F8FEFD80762
:10474000C1F30E946120801B910B8C179D0788F399
:104750008EEF9FEF0CC02091B900287F81E090E0A0
:10476000283211F480E090E0919581959109DF91D4
:10477000CF911F910F9108950F931F93CF93DF93C4
:10478000EC0184E88093BC000E9461208C01809140
:10479000BC0087FD0EC0CF3F8FEFD807C1F30E944A
:1047A0006120801B910B8C179D0788F38EEF9FEF84
:1047B00003C08091BB0090E0DF91CF911F910F91DA
:1047C000089584E98093BC000895F999FECF92BDC5
:1047D00081BDF89A992780B50895A6E1B0E044E03C
:1047E00050E00C941F24A8E1B0E042E050E00C94AB
:1047F0001F24262FF999FECF92BD81BDF89A01970B
:1048000000B4021639F01FBA20BD0FB6F894FA9A18
:10481000F99A0FBE08950396272F0E94FA230E944B
:10482000F923252F0E94FA23242F0C94FA230196B2
:10483000272F0E94FA230C94F923DC01CB01FC0101
:10484000F999FECF06C0F2BDE1BDF89A319600B4E9
:104850000D9241505040B8F70895AA1BBB1B51E17F
:1048600007C0AA1FBB1FA617B70710F0A61BB70BE0
:10487000881F991F5A95A9F780959095BC01CD0185
:10488000089597FB072E16F4009407D077FD09D002
:104890000E942D2407FC05D03EF4909581959F4FF2
:1048A0000895709561957F4F0895EE0FFF1F059055
:1048B000F491E02D09940F931F93CF93DF938230EF
:1048C000910510F482E090E0E0913303F09134031D
:1048D00020E030E0A0E0B0E0309719F14081518154
:1048E0000281138148175907C8F08417950769F4A6
:1048F000109731F012960C93129713961C9327C0C1
:10490000009333031093340322C02115310519F0AD
:104910004217530718F49A01BD01EF01DF01F801B6
:10492000DBCF21153105F9F0281B390B2430310577
:1049300080F48A819B816115710521F0FB019383CD
:10494000828304C09093340380933303FE01329634
:1049500044C0FE01E20FF31F81939193225031096D
:10496000398328833AC02091310330913203232BBD
:1049700041F42091020130910301309332032093DE
:10498000310320910001309101012115310541F4DD
:104990002DB73EB74091040150910501241B350B02
:1049A000E0913103F0913203E217F307A0F42E1BDC
:1049B0003F0B2817390778F0AC014E5F5F4F241783
:1049C000350748F04E0F5F1F509332034093310379
:1049D0008193919302C0E0E0F0E0CF01DF91CF91AD
:1049E0001F910F910895CF93DF93009709F481C031
:1049F000FC01329713821282A0913303B0913403E9
:104A0000109781F420813181820F931F209131030F
:104A1000309132032817390751F5F0933203E093B0
:104A2000310367C0ED0120E030E0CE17DF0740F42E
:104A30004A815B819E0141155105F1F0EA01F5CFF4
:104A4000D383C28340815181840F951FC817D90732
:104A500059F488819981840F951F029691838083F0
:104A60008A819B81938382832115310529F4F093F8
:104A70003403E09333033DC0E901FB83EA834991AA
:104A80005991C40FD51FEC17FD0761F48081918106
:104A9000840F951F0296E90199838883828193810F
:104AA0009B838A83E0E0F0E012968D919C911397AE
:104AB000009719F0FD01DC01F7CF8D919C911197C2
:104AC0009D012E5F3F4F820F931F20913103309144
:104AD00032032817390769F4309729F41092340308
:104AE0001092330302C013821282B0933203A09358
:0C4AF0003103DF91CF910895F894FFCFBF
:104AFC00000035032000012000C41E731B481B421C
:104B0C001B301B000D010D020D030D040D050D00D6
:104B1C000C010C020C030C040C050C000B010B0219
:104B2C000B030B040B050B000A010A020A030A040F
:104B3C000A050A000901090209030904090509000B
:104B4C000801080208030804080508000701070209
:104B5C0007030704070507000601060206030604FF
:104B6C0006050600050105020503050405050500FB
:104B7C0004010402040304040405040003010302F9
:104B8C0003030304030503000201020202030204EF
:104B9C0002050200010101020103010401050100EB
:104BAC000001000200030004000500818283E20082
:104BBC00E900EA00B500B600B700CD008301CC00D7
:104BCC008A01920194012102230224022502260269
:104BDC0027022A02B300B4006F0070004C4D514FF5
:084BEC004C2F614742394400DF
:00000001FF
