:100000000C9461030C947E030C947E030C947E0389
:100010000C947E030C947E030C947E030C947E035C
:100020000C947E030C947E030C946A0E0C941E13A5
:100030000C9479240C947E030C947E030C947E0320
:100040000C947E030C947E030C947E030C947E032C
:100050000C947E030C94410F0C947E030C947E034D
:100060000C947E030C947E030C947E030C947E030C
:100070000C947E030C947E030C947E030C947E03FC
:100080000C947E030C947E030C947E030C947E03EC
:100090000C947E030C947E030C947E030C947E03DC
:1000A0000C947E030C947E030C947E03050109805E
:1000B000A101850319012AB700150126B700950192
:1000C00075108100C0050C0901A101850419012AE0
:1000D000A002150126A002950175108100C005013E
:1000E0000906A1018505050719E029E71500250185
:1000F0009508750181020507190029EF15002501F2
:1001000095F075018102050819012905950575010C
:100110009102950175039101C005010902A1010930
:1001200001A100050919012905150025019505758D
:10013000018102950175038101050109300931151D
:1001400081257F95027508810609381581257F95DF
:100150000175088106050C0A38021581257F950175
:1001600075088106C0C005010906A101050719E04F
:1001700029E715002501950875018102950175088B
:1001800081010507190029FF150026FF0095067556
:100190000881000508190129059505750191029549
:1001A0000175039101C00000000000000000000084
:1001B000000000000000000000007E0F00D4FFFFE0
:1001C000FFC70000007800000000000000002A2B9C
:1001D00028000000000000000000000000000000F7
:1001E0000029000000002C1E342021222434262760
:1001F000252E362D3738271E1F2021222324252681
:100200003333362E37381F0405060708090A0B0C4E
:100210000D0E0F101112131415161718191A1B1C96
:100220001D2F3130232D350405060708090A0B0C54
:100230000D0E0F101112131415161718191A1B1C76
:100240001D2F3130354C0102E30101070103E300AA
:10025000010001000100E200010000001E00140086
:1002600004611D0001002A001F001A0016621B0015
:100270000100294320000800070006002D002C681B
:100280002100150009001900005701002200170085
:100290000A00050000002D5D0100010000000100C2
:1002A0000000010001000100000001000000010049
:1002B00023001C000B00110000000157240018004F
:1002C0000D0010000F07490025000C000E0036003D
:1002D00001002841260012000F72370001002B4256
:1002E000270013003371380001002A0001000100CB
:1002F0000100010001000000010001004C000100AC
:100300000100000023021E0220023100350201001C
:1003100024021F02210222022E02010031022F02BA
:1003200026022F002D000100350030022702300088
:1003300025020100330234022E002D0200000100CC
:10034000380234000000010000000100010001003B
:10035000000001000000010001000100025701003F
:10036000000001000100010003570100010001002D
:10037000010001000457010001000100010001001B
:10038000055701000100010001000100010001000A
:100390000100010001000100010001000100000056
:1003A0005500540057005600670000003A001E0038
:1003B00021002400630001003B001F0022002500F3
:1003C000270001003C00200023002600010001005E
:1003D0003D00010001000100010001003E0001009C
:1003E0000100010000000100010001000000010007
:1003F00000000100010001000000010000000100F8
:100400003F00010001000100000001004000010068
:100410000100010001000100410001000100010094
:100420000100010042000100010001000100010083
:1004300043000100010001000100010044004500EB
:100440000100010001000000095D01000100010040
:100450000100000001000100010001000100010095
:100460000100010001000100010001000100010084
:10047000010001000100AE000100010001000100C7
:100480000100B20001000100010001000000AC0009
:100490000100F9000000FA000000AB00A800A9006C
:1004A0000000AA000000B60001000100F2000100F7
:1004B0000000B70001000100F100010001004B0144
:1004C00001000100F00001000100F4000100010042
:1004D000F30001000100F50001000100010001002E
:1004E00001004E01005C010001000100010000005C
:1004F0000A00000000000306B2000800010000002E
:10050000A800080002000300A000140003005749DF
:100510004E5553420000000000000000000084001F
:10052000040007002A0044006500760069006300AB
:10053000650049006E00740065007200660061008D
:100540006300650047005500490044007300000047
:1005500050007B0039004400420037004600310063
:10056000460044002D0037004500370041002D00B3
:1005700034003000300038002D00390033003600E0
:1005800042002D0036004200410036004300310099
:100590003900410033003000380063007D00000066
:1005A00000001B0301636F6E6669677572652E65D7
:1005B00072676F646F782D657A2E636F6D00090224
:1005C0006B00040100A0FA0904000001030101000E
:1005D0000921110100012240000705810308000ADA
:1005E0000904010001030102000921110100012297
:1005F0004D000705820308000A09040200010300F8
:100600000000092111010001226D0007058303206C
:10061000000A0904030002FF0000000705840340EC
:100620000005070505034000051201100200000047
:100630000897327449010001020001160345007257
:100640000067006F0044006F007800200045005AEA
:1006500000000030035A00530041002000540065A0
:1006600000630068006E006F006C006F0067007927
:100670000020004C00610062007300200049006E01
:10068000006300000004030904050F3900021C1078
:100690000500DF60DDD88945C74C9CD2659D9E640E
:1006A0008A9F00000306B20045001810050038B606
:1006B0000834A909A0478BFDA0768815B66500010E
:1006C000420011241FBECFEFDAE0DEBFCDBF11E044
:1006D000A0E0B1E0EEE4FEE402C005900D92A63E7B
:1006E000B107D9F723E0A6EEB1E001C01D92A33116
:1006F000B207E1F70E940C210C94FA260C9400003A
:10070000E8EDF0E080818E7F80831092E20010920D
:10071000DA001092E100A0EEB0E08C9181608C9341
:1007200080818F77808319BCA7EDB0E08C918E7F9C
:100730008C9380818F7E80831092DD0208952091BA
:10074000E4003091E50095E6A9012091EC00822FAC
:10075000817020FF06C08091E80080FF06C080E025
:1007600008952091E80022FD1AC080910203882399
:1007700089F0853089F08091EB0085FD0FC02091D4
:10078000E4003091E50042175307F9F29150E1F689
:1007900084E0089582E0089583E0089581E008955B
:1007A000EF92FF920F931F93CF937C018B010E94D6
:1007B0009F03C82F882371F08C2FCF911F910F9129
:1007C000FF90EF900895F70181917F018093F100F0
:1007D000015011090115110579F38091E80085FD9B
:1007E000F2CF8091E8008E778093E8000E949F030B
:1007F000882381F3C82FE0CF8091040387FF13C0C3
:100800008091E80082FF06C08091E8008B7780939A
:10081000E80004C0809102038111F2CF0895809115
:1008200002038823D9F38091E80080FFF8CF8091FC
:10083000E8008E77ECCF982F9093E900242F762F45
:1008400050E0891731F07091EC002091ED0050914B
:10085000F00021FD07C09F5F973071F78093E9009A
:1008600081E008953091EB003E7F3093EB003091B2
:10087000ED003D7F3093ED003091EB00316030931F
:10088000EB007093EC002093ED005093F00020916A
:10089000EE0027FDE0CF80E00895CF92DF92EF9247
:1008A000FF920F931F93CF93DF93C8EDD0E0888121
:1008B0008F7E8883E7EDF0E080818160808384E033
:1008C00082BF81E08093DD0288818E7F888302EE83
:1008D00010E0F80110821092DA0081EEC82ED12CBF
:1008E000F601108288818F77888388818068888369
:1008F00088818F7D888319BC1092020310920303B4
:10090000109201031092000390EEE92EF12CF701F2
:1009100080818B7F808388818160888342E060E072
:1009200080E00E941B04F60180818E7F8083F801A5
:10093000808181608083808188608083F7018081ED
:100940008E7F8083888180618883DF91CF911F9122
:100950000F91FF90EF90DF90CF900895FC01809170
:100960000A0390910B0386179707A0F06115710594
:1009700029F48091E8008E778093E80090E061157B
:10098000710551F4911108C08091E80082FF35C0D3
:1009900080E00895BC01F2CF809102038823C9F161
:1009A0008530C9F18091E80083FD31C08091E80075
:1009B00082FDEACF8091E80080FFE1CF8091F300D3
:1009C0002091F200382F6115710519F0283031059A
:1009D00058F091E02830310509F090E08091E8006E
:1009E0008E778093E800CBCF84918093F10031968D
:1009F000615071092F5F3F4FE6CF8091020388233A
:100A000041F0853041F08091E80083FFBDCF81E067
:100A1000089582E0089583E00895FC0180910A031F
:100A200090910B0386179707A0F06115710529F4C3
:100A30009091E8009E779093E80090E06115710531
:100A400051F4911108C08091E80082FF34C080E029
:100A50000895BC01F2CF809102038823C1F1853053
:100A6000C1F18091E80083FD30C08091E80082FDF3
:100A7000EACF8091E80080FFE1CF8091F3002091E0
:100A8000F200382F6115710519F02830310558F042
:100A900091E02830310509F090E02091E8002E77B0
:100AA0002093E800CBCF81918093F10061507109D0
:100AB0002F5F3F4FE7CF80910203882341F08530BD
:100AC00041F08091E80083FFBECF81E0089582E08D
:100AD000089583E008958091DF0208952091020334
:100AE000243091F42093E90070E050E040E00E944F
:100AF000D003882321F01092DB021092DC02809157
:100B0000E8008E778093E80008959091C202803FBC
:100B100059F48091C30287FF0DC01092C302911156
:100B20000BC01092BE0208C0813F81F48091C302C5
:100B300018169CF3992381F08091C4029091C5020C
:100B4000892B09F064C01092BB020895823F49F4DA
:100B500097FFF0CF1092C2028091C3028111ECCFB7
:100B6000E0CF833F19F41916ACF3E4CF2091C4020F
:100B7000893F29F41216F4F61092C402DBCF8A3FA3
:100B800019F427FFD7CFF8CF2091C5028B3F29F466
:100B900027FFD0CF1092C502CDCF8C3F19F412168B
:100BA000CCF3C8CF843F31F48091C1028E7F809313
:100BB000C102C0CF853F21F48091C1028D7FF7CF64
:100BC000863F21F48091C1028B7FF1CF873F21F4D2
:100BD0008091C102877FEBCF883F21F48091C102D1
:100BE0008F7EE5CF8D3F31F4809193028E7F80938D
:100BF0009302A0CF8E3F21F4809193028D7FF7CF97
:100C00008F3F09F097CF809193028B7FF0CF0895AB
:100C10008091930280FD1AC081FD14C082FD14C032
:100C20008091BB02882391F08C3370F427E0829F7F
:100C3000C00111246CE370E00E946D25862F672BA4
:100C400029F0089583E0089587E0089581E00895EC
:100C50008091930280FD16C081FD16C082FD18C0F0
:100C60008091BE02882391F08C3390F423E2829F1E
:100C7000C00111246CE370E00E946D25862F672B64
:100C800049F0089588E0089581E1089585E0089588
:100C900083E2089581E00895803F31F40E942806A0
:100CA00081958093C3020895813F19F40E9428061C
:100CB000F8CF823F31F40E94280681958093C202CA
:100CC0000895833F19F40E942806F8CF893F29F43C
:100CD0000E9408068093C40208958A3F21F40E946E
:100CE00008068195F7CF8B3F31F40E940806819565
:100CF0008093C50208958C3F19F40E940806F8CF2E
:100D0000843F31F48091C10281608093C1020895D3
:100D1000853F21F48091C1028260F7CF863F21F4A4
:100D20008091C1028460F1CF873F21F48091C1029C
:100D30008860EBCF883F21F48091C1028061E5CFCC
:100D40008D3F31F4809193028160809393020895E6
:100D50008E3F21F4809193028260F7CF8F3FB9F7E5
:100D6000809193028460F1CF9C014FB7F8948091F9
:100D70008F0290919002A0919102B09192024FBF88
:100D8000821B930B0895209199012223C9F0209191
:100D9000A80227FF15C0E62FE695E695E695EE3109
:100DA000D8F4E80FF92FF11D677021E030E001C0A1
:100DB000220F6A95EAF720958281282322830895DD
:100DC000FC01329608962191621303C0DF0111974E
:100DD0001C92E817F907B9F7089520919901222389
:100DE000C1F02091A80227FF14C0E62FE695E695F2
:100DF000E695EE31F8F4E80FF92FF11D677021E068
:100E000030E001C0220F6A95EAF78281822B82834B
:100E10000895FC0132962FEF30E04191641751F0B4
:100E20002F3F19F4411101C0232F3F5F3630A9F73E
:100E30002F3F09F40895820F911D27FD9A95FC011B
:100E400062830895CF92DF92EF92FF926C01EE24BD
:100E5000FF2420E0C114D104E104F10419F0C7011A
:100E6000B60120E1C72ED82EE92EFF24C114D104EB
:100E7000E104F10419F0285FC701B6016B017C01A0
:100E800054E0F694E794D794C7945A95D1F7C114D7
:100E9000D104E104F10419F02C5FC701B6016B0124
:100EA0007C0142E0F694E794D794C7944A95D1F731
:100EB000C114D104E104F10419F02E5FC701B60199
:100EC0009695879577956795672B682B692B09F021
:100ED0002F5F822FFF90EF90DF90CF900895809149
:100EE0008A02811110928A02089580959091890258
:100EF00098239093890208958091890290918802A5
:100F0000892B90918702892B8093E60190918A0228
:100F10009923A1F0892B8093E60180919901882380
:100F200041F18091A80287FF24C08EE1E8EEF1E054
:100F300090E0815000F591110E946F07E091AA02A4
:100F4000F091AB023097E1F080919901882359F03C
:100F50008091A80287FF07C08091E6018093E70196
:100F600085E08093E6010280F381E02D86EE91E03A
:100F7000099486E0DBCF21912223D9F29F5FD9CF5C
:100F80000895E92FEE0FE90FEE0F8E0F982F97704F
:100F900086958695869525E0829FF0011124E15B78
:100FA000FD4F50E040E080E0219130E0092E02C08A
:100FB000369527950A94E2F721703327042E01C055
:100FC000220F0A94EAF7822B4F5F5F4F453051059D
:100FD00059F70895E92FEE0FE90FEE0F8E0F982FB6
:100FE000977041E001C0440F9A95EAF7869586957F
:100FF000869595E0899FF0011124E15BFD4F30E07B
:1010000020E070E05191DF011197CB01022E02C068
:10101000969587950A94E2F78170819585278423B8
:1010200085278C932F5F3F4F2530310559F7089561
:1010300080914E0290911D02981301C008958F5F18
:101040008770FACF882341F0809590918802892398
:10105000809388020C947C070895882339F090913E
:101060008802982B909388020C947C07089588231B
:1010700021F00E9475070C947C070895882339F0AD
:1010800090918902982B909389020C947C07089583
:1010900020911202309113022817390771F09093B2
:1010A000130280931202E091AA02F091AB023097F2
:1010B00021F00084F185E02D09940895209110021B
:1010C000309111022817390771F090931102809323
:1010D0001002E091AA02F091AB02309721F0068055
:1010E000F781E02D09940895E091AA02F091AB02F6
:1010F000309721F00190F081E02D099480E008956F
:10110000CF93DF93EC0181E0898B809189029F81ED
:10111000892B80938902809188029885892B8093FE
:1011200088020E947C07EA81FB81309739F06C8944
:101130007D89CE010696DF91CF910994DF91CF9101
:101140000895EF92FF920F931F93CF93DF93EC01DB
:101150008A85811139C0EB80FC8087E5F81A26E189
:101160002E9DC0012F9D900D1124DC01A85FBE4F64
:101170001496ED91FC911597309731F054966D913E
:101180007C91825F9E4F099586E18E9D80018F9DA7
:10119000100D1124085F1E4FF80187810E9475070A
:1011A000F8018085982F90958091880289238093FB
:1011B00088020E947C07188219861B861E821D8267
:1011C0001092150210921402DF91CF911F910F918E
:1011D000FF90EF9008959091A80292FF06C0282FEB
:1011E00028712830F9F4877F846093FF06C0282F88
:1011F00028712831F1F4877E84612091A90220FFB3
:1012000006C0382F38713830D9F4877F816021FFCC
:1012100006C0282F28712831D1F4877E816194FD82
:10122000877E0895282F24712430F9F68B7F8860FB
:10123000DCCF282F2471243101F78B7E8861DDCF2C
:10124000382F3171313019F78E7F8860E0CF282F29
:101250002171213121F78E7E8861E1CFCF93DF9319
:10126000972F70E026E0929F600D711D1124FB0105
:1012700034E5839FE00DF11D1124EE0FFF1FE05BAD
:10128000FD4FC591D491CE01C238D105B9F1E8F531
:10129000C133D10509F499C050F5C932D10509F41B
:1012A0008DC0CA32D10509F497C0C11521E5D20716
:1012B00008F0BFC0C11530E5D30708F016C1C83E1D
:1012C000D10508F09DC0C03ED10568F5C83AD105EA
:1012D00008F089C0C53AD10508F0FFC0C130D1057A
:1012E00011F1209709F443C02497E8F440C0C533B6
:1012F000D10509F45CC0C933D105B9F62091A80223
:10130000237089F080EE90E00EC0C33ED10591F1CC
:1013100068F4C03ED105F9F0C23ED10531F6209106
:10132000A80222FD20C0DF91CF910895C63ED105CD
:1013300061F1C73ED10581F1C43ED10509F0B5CFB9
:101340002091A90221FFEFCF8091A80284FD0FC058
:1013500087EE90E0E8CF2091A80220FD12C13091E5
:10136000A90230FFE0CF83EE90E024FFDCCF90E0D5
:1013700080E0D9CF2091A80222FD06C13091A902B8
:1013800030FDC0CF24FFCFCFF2CF2091A80223FFA2
:10139000CACF24FDECCFDCCF2091A80223FDF7C0FB
:1013A0003091A90231FFEECF84EE90E0BCCF2091C6
:1013B000A80225FFB8CF89E290E0B5CF2091A8021E
:1013C00025FFB1CF85E390E0AECF2091A80226FFA4
:1013D000AACF8AE290E0A7CF2091A80226FFA3CF50
:1013E00081E390E0A0CFCF3BD10508F6C85AD0E00A
:1013F000CC0FDD1FC755DE4F88819981946493CF50
:10140000C11520E2D20760F4C11531E0D30708F01E
:101410008ACFCE019065C03FD10508F084CFA7CF19
:10142000C11580E4D80708F4A2CFCE019F70906A5E
:101430007ACFC11595E5D90710F5C11524E5D20776
:1014400008F088C0C11533E5D30708F06FC0C11597
:1014500082E5D80708F465C09E012370332781E038
:1014600090E002C0880F991F2A95E2F7C695C695AD
:1014700020E2C29FE00111248C2B9D2B50C0C1158E
:1014800099E5D907A0F4C11528E5D20708F067C08F
:10149000C11536E5D30708F06ACF8C2F0E94EB0800
:1014A00090E0982F882788279F7190623CCFC115C4
:1014B0008AE5D80708F458C0CE01905681159042AD
:1014C00008F055CF8D2F8F710E94EB0890E0982F78
:1014D000882788279F718C2BE8CFC55AD0E0CA5542
:1014E000DE4F888190E090641ECF9E01E4E0369547
:1014F0002795EA95E1F723708C2F86958695837062
:1015000030E2839FC0011124922BC37021E030E0B0
:1015100002C0220F331FCA95E2F7822B932B9C68DF
:1015200002CF9C2F8827816F906AFDCE9E01237089
:10153000332781E090E002C0880F991F2A95E2F7D7
:10154000C695C69530E2C39FE00111248C2B9D2BDC
:101550009A68E9CE9C2F8827846F906AE4CE9C2FEE
:101560008827806F906ADFCE8C2F8F700E94EB08E7
:1015700034E0D695C7953A95E1F7CF709C2F9069E6
:10158000D2CE89E390E0CFCE82EE90E0CCCE86EE54
:1015900090E0C9CEBF92CF92DF92EF92FF920F936D
:1015A0001F93CF93DF938C01C090D602D090D702C7
:1015B000E090D802F090D90280918B0290918C0239
:1015C000A0918D02B0918E02C82AD92AEA2AFB2A5C
:1015D000CFE1D0E0BC2ED701C6010C2E04C0B695D9
:1015E000A795979587950A94D2F780FD0EC021970D
:1015F00088F7B12C8B2DDF91CF911F910F91FF9028
:10160000EF90DF90CF90BF900895B8018C2F0E948B
:101610002E09019761F3EECFCF93DF93EC010E9487
:10162000CA0ABE01DF91CF910C942E090E940C0BC7
:10163000292F2F7092959F7092509E3078F4E92F49
:10164000F0E0E450F94D0C948125803F19F020F42E
:10165000883E20F481E00895843FE1F380E008951E
:10166000883EC0F3813FD1F7F5CF822F86958695CE
:10167000869508959C019A9581159F4140F4832F8A
:10168000817031FD826032FD8460FB010994089510
:10169000FC018081813041F49185911114C09285C3
:1016A000992389F082E00895823041F48185811187
:1016B00007C08285811106C083E0089586E0089501
:1016C00085E0089584E0089527982F980895269836
:1016D0002E98089525982D98089556985E98089507
:1016E000279A2F9A0895269A2E9A0895259A2D9A28
:1016F0000895CF92DF92EF92FF92CF936B017C011E
:101700000E942207C82F0E946D0B0E946A0B0E9444
:10171000670B0E94640BC150C73040F4EC2FF0E01F
:10172000E65FF84D0C9481250E94760BC701B60147
:10173000CF91FF90EF90DF90CF9008950E94760BAD
:101740000E94730BF3CF0E94760B0E94700BEECFBA
:101750000E94760B0E94730BF8CF2098289821984E
:10176000299822982A9823982B9852985A985398F7
:101770005B983E98469808958098889A8198899AAF
:1017800084988C9A85988D9A86988E9A87988F9A45
:101790000895CF9384E090E00E948725C82F81E2CE
:1017A00090E00E948725982F8C2FCF910895CF939A
:1017B000DF9300D00F92CDB7DEB790910203943043
:1017C00019F589837B836A8383E08093E9008FEF37
:1017D0009091E800815095FD06C095ED9A95F1F73E
:1017E00000008111F5CF8091E80085FF0DC050E029
:1017F00040E063E070E0CE0101960E94D00380914A
:10180000E8008E778093E8000F900F900F90DF91A3
:10181000CF910895BC0184E00C94D70BBC0183E008
:101820000C94D70B9C0182E08093E9009FEF80919C
:10183000E800915085FD06C085ED8A95F1F700001E
:101840009111F5CF8091E80085FF0CC050E040E099
:1018500065E070E0C9010E94D0038091E8008E77B6
:101860008093E8000895CF93DF93EC018091990174
:101870008823B1F18091A80287FF32C060E283E043
:101880008093E9008FEF9091E800815095FD06C0AC
:1018900095ED9A95F1F700008111F5CF8091E80060
:1018A00085FF1BC08091990170E050E040E08111FC
:1018B00004C050E040E068E070E0CE010E94D00338
:1018C0008091E8008E778093E80080E2FE01A0EE30
:1018D000B2E001900D928A95E1F7DF91CF910895E2
:1018E00068E081E0CDCFEF92FF920F931F93CF93EB
:1018F000DF930E946D0B0E946A0B0E94670B0E948F
:10190000640B88E8E82EF12C8FEF90E0F7019183CB
:1019100080830AE810E0F80191838083CCE8D0E06E
:10192000998388830E94760BFFEF20E782E0F150D5
:1019300020408040E1F700C000000E94730B9FEF41
:10194000E0E7F2E09150E040F040E1F700C0000035
:101950000E94700B2FEF80E792E021508040904072
:10196000E1F700C000000E946A0BEFEFF0E722E011
:10197000E150F0402040E1F700C000000E94670BFA
:101980008FEF90E7E2E081509040E040E1F700C047
:1019900000000E94640B809196028770FFEF8F9F7A
:1019A000C001112495958795959587959927F701FD
:1019B00091838083F80191838083998388830E9437
:1019C0006D0B0E946A0B0E94670BDF91CF911F91F4
:1019D0000F91FF90EF900C94640B6FEE7EEF90E010
:1019E00080E00E94B92560E082E090E00E949B25A3
:1019F00060E083E090E00E949B2510928B021092A1
:101A00008C0210928D0210928E0260E084E090E0D1
:101A10000E949B2560E081E290E00E949B2560E0AF
:101A200085E090E00E949B2560E086E090E00E94C7
:101A30009B256FEF87E090E00E949B2540E050E0FF
:101A4000BA0188E090E00E94AD2560E08DE090E072
:101A50000E949B2540E050E0BA0188E190E00E949E
:101A6000AD2560E087E190E00E949B2540E050E0DA
:101A7000BA018CE190E00E94AD2560E080E290E048
:101A80000E949B2540E050E0BA0188E190E00E946E
:101A9000AD25109296021092970210929802109221
:101AA000990284E080618093960240919602509161
:101AB000970260919802709199028FE090E00E94E5
:101AC000AD2540E050E0BA0183E190E00C94AD25F3
:101AD000CF93C82F873070F580918D0190918E0142
:101AE000892B89F564E670E080E40E94A624909337
:101AF0008E0180938D01892BD1F464E670E082E140
:101B00000E94022590938E0180938D01892B79F498
:101B100081E090E001C0880FCA95EAF764E670E0C2
:101B200080950E94022590938E0180938D01CF9124
:101B30000C9455258A30B9F040F4883071F0893022
:101B400079F0209A2898CF9108958C3091F070F018
:101B50008D30B9F73E9A4698F6CF219A2998F3CF5F
:101B6000229A2A98F0CF239A2B98EDCF529A5A981E
:101B7000EACF539A5B98E7CF80E290E090938E0192
:101B800080938D018091060281110EC00E94A024D5
:101B900081E0809306022FEF83ED90E32150804097
:101BA0009040E1F700C0000064E670E080E40E942D
:101BB000A62490938E0180938D01892B09F04EC04D
:101BC00064E670E080E00E94022590938E0180938D
:101BD0008D01892B09F042C064E670E080E00E942C
:101BE000022590938E0180938D01892BB9F564E6CF
:101BF00070E08FE30E94022590938E0180938D0107
:101C0000892B61F50E94552564E670E080E40E940E
:101C1000A62490938E0180938D01892BF9F464E6BC
:101C200070E08CE00E94022590938E0180938D01DC
:101C3000892BA1F464E670E080E00E940225909375
:101C40008E0180938D01892B49F464E670E08FE367
:101C50000E94022590938E0180938D010E9455254C
:101C600080918D010895CF93873050F580918D013B
:101C700090918E01C0E0892B71F464E670E081E4FC
:101C80000E94A62490938E0180938D01892B31F0C0
:101C9000C0E00E9455258C2FCF91089584E690E0F6
:101CA0000E94312597FF05C090938E0180938D018E
:101CB000EFCFC82FC09510928E0110928D01E9CF01
:101CC000CFB18FB1869586958C73C3708C2BC82F3E
:101CD000C095E1CF1F920F920FB60F9211242F9350
:101CE0003F934F935F936F937F938F939F93AF93A4
:101CF000BF93EF93FF938091E10082FF09C0809131
:101D0000E20082FF05C08091E1008B7F8093E100BB
:101D10008091DA0080FF24C08091D80080FF20C02D
:101D20008091DA008E7F8093DA008091D90080FF65
:101D30009BC080E189BD82E189BD09B400FEFDCF71
:101D400081E0809302038091DD02811109C00E942D
:101D500080030E944D048091E20084608093E20041
:101D60008091E10080FF17C08091E20080FF13C0E6
:101D70008091E2008E7F8093E2008091E20080619A
:101D80008093E2008091D80080628093D80019BCD3
:101D900085E0809302038091E10084FF29C0809157
:101DA000E20084FF25C080E189BD82E189BD89B55B
:101DB000982F917080FFFBCF8091D8008F7D80930A
:101DC000D8008091E1008F7E8093E1008091E20055
:101DD0008F7E8093E2008091E20081608093E20038
:101DE00080910303882309F445C084E080930203B3
:101DF0008091E10083FF27C08091E20083FF23C030
:101E00008091E100877F8093E10082E0809302036C
:101E1000109203038091E1008E7F8093E100809116
:101E2000E2008E7F8093E2008091E20080618093E7
:101E3000E20042E060E080E00E941B048091F0003C
:101E400088608093F000FF91EF91BF91AF919F91D7
:101E50008F917F916F915F914F913F912F910F9053
:101E60000FBE0F901F90189519BC1092020310928C
:101E7000DD0276CF8091E30087FD93E0909302032B
:101E8000B7CF78941F921FB61F9211248F939F9300
:101E9000AF93BF9380918F0290919002A091910295
:101EA000B09192020196A11DB11D80938F02909373
:101EB0009002A0939102B0939202BF91AF919F9133
:101EC0008F911F901FBE1F9018952FB7F894809187
:101ED0008F0290919002A0919102B09192022FBF37
:101EE00008950E94650F9C019091C2028091C302E7
:101EF000982B21F03093C0022093BF029091C4022E
:101F00008091C502982B21F03093BD022093BC0232
:101F1000E091AA02F091AB02309731F00480F58194
:101F2000E02D81EC92E009940895109288021092BD
:101F300087020E947C0785E0E1ECF2E0DF011D9260
:101F40008A95E9F71092BE021092BB02109293029A
:101F50000E94710F90E080E00E945E0890E080E0B7
:101F60000C944808CF92DF92EF92FF92CF93DF93C9
:101F700000D000D0CDB7DEB70E94790B6B017C0199
:101F80008091DA02882321F08091DB02811115C053
:101F9000C092D602D092D702E092D802F092D90233
:101FA0000E94950F0F900F900F900F90DF91CF919F
:101FB000FF90EF90DF90CF900895198282E08A839E
:101FC000C701B6010E9422078B838EEF8C8364E0E9
:101FD000CE0101960E946E05DBCF0F931F9341E067
:101FE00050E060E070E004C0440F551F661F771F8B
:101FF0008A95D2F7CB01BA0160957095809590953E
:102000000091D6021091D7022091D8023091D902C6
:1020100060237123822393231F910F910C94B20F9D
:10202000909186028095892380938602282F2770BD
:1020300071F4282F082E000C330B9217130639F079
:102040008595859585950E94ED0F109286020895DD
:102050000F931F9341E050E060E070E004C0440F34
:10206000551F661F771F8A95D2F78091D6029091EF
:10207000D702A091D802B091D9028A019B01082B06
:10208000192B2A2B3B2BC901B8011F910F910C94DE
:10209000B20F60938B0270938C0280938D029093A9
:1020A0008E020C94950F1092890280919901E8EEAE
:1020B000F1E0882359F08091A80287FF07C08EE1E4
:1020C000DF011D928A95E9F70C94950F86E0F8CF11
:1020D0001F93CF93DF93CDB7DEB7AA970FB6F894CF
:1020E000DEBF0FBECDBF84E093E02091F100FC0184
:1020F0002193CF01F3E08C309F07B9F7809105035E
:10210000893009F444C018F5823009F4B9C083302D
:1021100009F46EC0813031F580910403813A11F5E4
:102120008091E800877F8093E80080910803909178
:102130000903892B41F560E280EE92E070E00E9495
:102140000D058091E8008B778093E8000BC08B3001
:1021500009F46BC008F483C0823409F4A2C085344A
:1021600009F4BCC08091E80083FF50C28091040351
:10217000909105039A3008F049C2E92FF0E0EF5E34
:10218000F84D0C94812560E090E080E0D7CF8091FD
:102190000403813239F78091080390910903009775
:1021A00011F00297F9F68091E800877F8093E800AC
:1021B0008091E80082FF17C09091F3008091F200B7
:1021C000029729F48091F1008B7F813021F4809176
:1021D000F1008093DF028091E8008B778093E80024
:1021E0000E94FC03BFCF809102038111E1CFBACFDF
:1021F00080910403813A09F0B5CF80910803909152
:102200000903892B09F0AECF8091E800877F809386
:10221000E8008091E80080FFFCCF809199018093D5
:10222000F1008091E8008E77D9CF8091040381324C
:1022300009F098CF8091080390910903892B09F048
:1022400091CF8091E800877F8093E8000E94FC0393
:1022500080910603809399010E94531083CF80914F
:102260000403813209F07ECF8091E800877F80935C
:10227000E8000E94FC03809107038093DE0272CF86
:1022800080910403813A09F06DCF8091E800877F47
:102290008093E8008091E80080FFFCCF8091DE020F
:1022A000BECF80910403803C09F05CCF809108038D
:1022B00090910903029739F58091060390910703E5
:1022C000892B09F58091E800877F8093E8006BE116
:1022D00070E082EA95E00E94AE0482CF8091040310
:1022E000803C09F03FCF8091080390910903079744
:1022F00051F48091E800877F8093E80062EB70E002
:1023000080EF94E0E8CF8091EB0080628093EB0057
:1023100029CF803899F0823809F078C1809108037C
:102320008F70873008F072C18093E9008091EB00D4
:1023300085FB882780F91092E90006C08091000390
:1023400090910103911182609091E800977F9093A2
:10235000E8008093F1001092F1008091E8008E7700
:1023600051C1882309F43FC1823009F04FC18091E7
:102370000603811142C1809108038F702FEF280F4F
:10238000263008F043C18093E9002091EB0020FF44
:1023900034C1933031F48091EB0080628093EB0084
:1023A0002CC19091EB0090619093EB0021E030E024
:1023B00001C0220F8A95EAF72093EA001092EA0002
:1023C0008091EB008860EACF811120C11091060353
:1023D0001F778091E3008078812B8093E3008091C8
:1023E000E800877F8093E8000E94FC038091E8006A
:1023F00080FFFCCF8091E30080688093E30082E05F
:10240000111183E08093020301C18058823008F0EB
:10241000FDC080910603909107038C3D23E0920755
:10242000A1F583E08A838AE289834FB7F894DE01BD
:10243000139620E03EE051E2E32FF0E05093570086
:10244000E49120FF03C0E295EF703F5FEF708E2FA5
:1024500090E0EA30C0F0C7968D939D932F5F2431B2
:1024600059F74FBF8091E800877F8093E8006AE2C8
:1024700070E0CE0101960E940D058091E8008B77F7
:102480008093E800C3C0C096E7CF20910803309145
:102490000903492F55274330510551F1A0F441302C
:1024A000510509F459C06BE670E08EEB95E04230BF
:1024B000510509F0ABC02091E800277F2093E80088
:1024C0000E94AE04DACF4132510539F14232510552
:1024D00091F14F30510509F099C0EBE8F6E06491B5
:1024E00070E089E896E06115710509F48FC0E3CFCB
:1024F00099278130910571F0009731F0029709F02A
:1025000085C0EBE3F6E002C0E5E8F6E0649170E038
:10251000CF01E9CFE3E5F6E0F9CF2330310508F04C
:1025200075C0220F331FF901E052FE4F8081918167
:1025300069E070E0C0CF2330310508F067C0F901D1
:10254000EE0FFF1FE652FE4F8081918129523E4FD0
:10255000F901608170E0C7CF62E170E089E296E046
:10256000AACF803809F052C08091E800877F80931D
:10257000E800809103038093F100EFCE811146C003
:1025800010910603123008F041C08091E800877F67
:102590008093E800109303030E94FC03112311F0C1
:1025A00084E005C08091E30087FDFACF81E080934D
:1025B000020342E061EC81E00E941B0442E061EC16
:1025C00082E00E941B0442E261EC83E00E941B0453
:1025D00042E361EC84E00E941B0442E360EC85E08E
:1025E0000E941B0413C080910603813079F481E0BE
:1025F000933009F080E0809301031092E90080910C
:10260000E800877F8093E8000E94FC038091E80047
:1026100083FF0AC08091E800877F8093E800809163
:10262000EB0080628093EB00AA960FB6F894DEBFB1
:102630000FBECDBFDF91CF911F9108951F920F92D2
:102640000FB60F9211242F933F934F935F936F9385
:102650007F938F939F93AF93BF93CF93DF93EF932A
:10266000FF93D091E900DF708091EC00C82FC1701A
:1026700080FDC0E81092E9008091F000877F809390
:10268000F00078940E9468101092E9008091F000A8
:1026900088608093F000CD2BCF70C093E900FF914C
:1026A000EF91DF91CF91BF91AF919F918F917F91EA
:1026B0006F915F914F913F912F910F900FBE0F90AF
:1026C0001F901895882379F19CEF980F913A38F470
:1026D000682F86EE91E00E94C3060C947C0790E27E
:1026E000980F983050F4877091E001C0990F8A9547
:1026F000EAF7892F0E947507F0CF9BE5980F93307A
:1027000020F490E080E00C945E0898E5980F9731F3
:1027100020F490E080E00C944808803F20F00E9474
:1027200085050C94710F0895CF93DF93EC010E94FF
:102730006213CE01805E910967E378E0089710F09C
:1027400062E278E0CE01DF91CF910C943A0B8FE3F7
:102750009CE90197F1F700C00000809107018330E8
:1027600069F028F4811105C01092070108958530A1
:10277000D9F78FE490E00E949413F6CF8DE490E0B7
:10278000FACF8FE39CE90197F1F700C00000809138
:102790000701833069F028F4811105C01092070108
:1027A00008958530D9F782E590E00E949413F6CF22
:1027B0008BE490E0FACF8FE39CE90197F1F700C03A
:1027C000000080910701833069F028F4811105C071
:1027D0001092070108958530D9F781E590E00E94B5
:1027E0009413F6CF8EE490E0FACF8FE39CE9019743
:1027F000F1F700C0000080910701833069F028F4F0
:10280000811105C01092070108958530D9F780E540
:1028100090E00E949413F6CF8AE490E0FACF8FE321
:102820009CE90197F1F700C0000080910701833017
:1028300059F0853011F0813021F480E597E00E9455
:1028400094131092070108958FE497E0F8CF8FE377
:102850009CE90197F1F700C00000809107018230E8
:1028600079F028F4813039F010920701089583300F
:1028700051F08530C9F78CE390E00E949413F4CFB7
:1028800085E490E0FACF8EE390E0F7CFCF93C82FA6
:10289000882309F46EC08CEF8C0F813AB8F58091D3
:1028A0009901882311F18091A80287FF1EC0EC2FA7
:1028B000E695E695E695F0E0EA51FE4F828190E0DC
:1028C0004C2F477021E030E002C0220F331F4A95A1
:1028D000E2F782239323892B89F06C2F86EE91E017
:1028E0000E94C3060E947C0709C0E8EEF1E08191D6
:1028F000C81799F381E0EE3EF807C9F76C2F86EE12
:1029000091E00E94ED06CF910C947C0780E28C0F41
:10291000883068F4C77021E030E001C0220FCA950A
:10292000EAF780918902822B80938902ECCFEBE554
:10293000EC0FE33040F4F0E0EA55FE4F808190E088
:10294000CF910C945E08E8E5EC0FE73150F4F0E02D
:10295000EE0FFF1FE755FE4F80819181CF910C94C0
:102960004808C03F30F08C2F0E944C06CF910C9449
:10297000710FCF910895CF93C82F0E944614C93389
:1029800049F42FEF87EE93E0215080409040E1F72B
:1029900000C000008C2FCF910C9462130F931F93F3
:1029A000CF93DF93C62FD42F022FFC01828188237F
:1029B000A1F060930E030E94650F90930D03809326
:1029C0000C03C77081E001C0880FCA95EAF7DF9158
:1029D000CF911F910F910C943E0880910E036813C4
:1029E00035C080910C0390910D030E94B406883C81
:1029F000910560F510E21D0FCD17B9F080E28C0F44
:102A0000883040F4C77081E001C0880FCA95EAF7AA
:102A10000E943708183048F481E09D2F977001C05C
:102A2000880F9A95EAF70E943E08802F0E94BB14F7
:102A3000183098F4D77081E001C0880FDA95EAF772
:102A4000DF91CF911F910F910C943708C77081E0EF
:102A500001C0880FCA95EAF7F3CFDF91CF911F919C
:102A60000F910895CF93DF93EC01805E91096EE39F
:102A700078E0089710F06DE278E0CE010E943A0B02
:102A80008C2FDF91CF910C944614CF93DF93EC0100
:102A90000E943215CE01DF91CF910C949413CF9305
:102AA000DF93EC018881833061F48FE490E00E9431
:102AB00045158FE490E00E9445158FE490E00E9458
:102AC00045158881843030F08FE490E0DF91CF911C
:102AD0000C944515DF91CF910895CF93DF93EC01CE
:102AE0008881833061F482E590E00E94451582E59B
:102AF00090E00E94451582E590E00E94451588818E
:102B0000843030F082E590E0DF91CF910C94451550
:102B1000DF91CF910895CF93DF93EC0188818330CB
:102B200061F481E590E00E94451581E590E00E9406
:102B3000451581E590E00E9445158881843030F08C
:102B400081E590E0DF91CF910C944515DF91CF9115
:102B50000895CF93DF93EC018881833061F480E5A1
:102B600090E00E94451580E590E00E94451580E5C3
:102B700090E00E9445158881843030F080E590E037
:102B8000DF91CF910C944515DF91CF910895CF93AC
:102B9000DF93EC018881833061F480E597E00E9447
:102BA000451580E597E00E94451580E597E00E9475
:102BB00045158881843030F080E597E0DF91CF9132
:102BC0000C944515DF91CF910895CF93DF93EC01DD
:102BD0008881833061F48CE390E00E9445158CE39A
:102BE00090E00E9445158CE390E00E944515888195
:102BF000843030F08CE390E0DF91CF910C94451558
:102C0000DF91CF9108950E94480B80930701833094
:102C100039F018F481110CC00895853029F0089519
:102C20008DE490E00C9432158FE490E00E944515FD
:102C30008FE490E0F7CF0E94480B80930701833028
:102C400039F018F481110CC00895853029F00895E9
:102C50008BE490E00C94321582E590E00E944515DB
:102C600082E590E0F7CF0E94480B80930701833004
:102C700039F018F481110CC00895853029F00895B9
:102C80008EE490E00C94321581E590E00E944515A9
:102C900081E590E0F7CF0E94480B809307018330D5
:102CA00039F018F481110CC00895853029F0089589
:102CB0008AE490E00C94321580E590E00E9445157E
:102CC00080E590E0F7CF0E94480B809307018330A6
:102CD00039F0853049F0813061F480E597E002C039
:102CE0008FE497E00C94321580E597E00E9445153B
:102CF000F4CF08950E94480B80930701823049F079
:102D000018F4813089F00895833039F0853041F02E
:102D1000089585E490E00C9432158EE390E0FBCFAB
:102D20008CE390E00E9445158CE390E0F4CF4F9245
:102D30005F926F927F928F929F92AF92BF92CF924B
:102D4000DF92EF92FF920F931F93CF93DF9300D008
:102D500000D00F92CDB7DEB77C01DC0113968D91C8
:102D60009C911497892B41F01C911196DC90812F36
:102D70008D218F3F09F000C60F900F900F900F909C
:102D80000F90DF91CF911F910F91FF90EF90DF9007
:102D9000CF90BF90AF909F908F907F906F905F90FB
:102DA0004F9008950E94CA0A082F682F89819A813E
:102DB0000E94EA07E12FF0E0B6E0DB9EE00DF11D96
:102DC000112424E5029FE00DF11D1124EE0FFF1FD9
:102DD000E05BFD4F05911491D70112968C91811102
:102DE000E3C08091DA0281111FC10A32BDE51B07E1
:102DF00009F037C1F70182818823C9F180919602D9
:102E000091E0980F9770887F953008F4892B809314
:102E10009602809196028770FFEF8F9FC001112468
:102E20009595879595958795992790938900809397
:102E3000880090938B0080938A0090938D008093FC
:102E40008C00409196025091970260919802709187
:102E500099028FE090E00E94AD256091D6027091BA
:102E6000D7028091D8029091D9020E94790BC801B3
:102E700097558F3F910511F008F0A2C120918C0168
:102E8000022E000C330B2817390714F480938C01A1
:102E9000D70112962C91129736E1389F5001399F35
:102EA000B00C1124F501E85FFE4F6F01208B1296E4
:102EB0009C918681992309F476C1128701878F5FDF
:102EC00086830E94650FD6011E969C938E931D9754
:102ED00080918A0217968C9317978091880290911F
:102EE0008902892B18968C931897ED91FC91119774
:102EF000309739F054966D917C91C501825F9E4F59
:102F000009951093150200931402D70112968C9123
:102F1000882309F443C510920E030230BCE51B0759
:102F200008F468C20631ECE51E0738F098012B5F03
:102F30003C452730310508F05DC20E94C90B9093D3
:102F4000A9028093A8020F30FCE51F0709F433C2E1
:102F500008F0B4C108303CE5130709F416C208F0C4
:102F600087C104309CE5190709F403C208F06FC15A
:102F70000230BCE51B0709F4F8C18091A802826009
:102F800003301C4509F486C16091A8021091A90282
:102F900084E090E00E949B25612F81E290E00E94F6
:102FA0009B250E94531032C180918C018F3F09F400
:102FB00018CFE8E0CE2EE1E0DE2EB12CA12C992432
:102FC000939480918C01082E000C990B8A159B0517
:102FD0000CF407CFF60186818823F9F0818592856C
:102FE0008017910739F4809114029091150280178F
:102FF000910799F0D6011F969C921F971C961C93DF
:103000000E931B9751968C91811103C0C6010E94AB
:103010008008C60106960E94A108BFEFAB1ABB0A42
:10302000E6E1CE0ED11CCDCF8091DB02882309F4DE
:10303000DCCE1982D70112968C91811110C082E1E9
:103040008A83D7018C918B8311968C918C838EEF20
:103050008D8365E0CE0101960E946E05C6CE81E1AA
:10306000EFCF0D322DE5120709F001CFD7011296EF
:103070008C91882309F4FBCE56E4C52E52E0D52E60
:103080006AE0662EF6012491222309F4F0CE213065
:1030900009F048C031968491813059F4F2E0CF0EA6
:1030A000D11CF60184910E94BB142FEFC21AD20AE0
:1030B000E9CF823041F4F2E0CF0ED11CF6018491C9
:1030C0000E944614F2CF833041F4F2E0CF0ED11CBF
:1030D000F60184910E946213E8CF843009F061C048
:1030E000F2E0CF0ED11CF601249190E080E0F601D1
:1030F00031962053330B2A30310548F00197A8F25E
:10310000AFE9BFE01197F1F700C00000F7CF689E6C
:10311000A001699E500D1124C901840F951F2491AF
:103120006F01E5CFE22FF0E0EA53FE4F7490822F5B
:1031300086958695869590E0FC01EA54FE4F849032
:103140002770912C022E02C0959487940A94E2F77E
:10315000E1E08E229924FC01EA55FE4FA490B12CA7
:1031600002C0B594A7942A95E2F7F1E0AF22BB2400
:103170008114910419F081EE0E944614A114B10447
:1031800019F086EE0E944614872D0E94BB14AB28CE
:1031900019F086EE0E946213892809F486CF81EE29
:1031A00099CF6F0182CF882309F4AFCE818988231C
:1031B00009F4ABCEC501825F9E4F0E94A108A5CE47
:1031C000043FFCE51F07A1F188F4093D3CE5130726
:1031D00059F10A3D8CE51807B9F1083D9CE519073E
:1031E00009F093CE26E241EE61EE0DC0063FACE55C
:1031F0001A0731F108F127E245EE66EE073FECE5EC
:103200001E0709F082CEC7010E94CE14809186026B
:10321000877009F4B1CDF7018281882309F4ACCD20
:1032200082E00E941010A8CD27E245EE65EEEBCFBC
:1032300026E241EE60EEE7CF27E245EE64EEE3CF13
:1032400026E241EE62EEDFCF28E241E0EFCF80914F
:10325000A80280610630FCE51F07E1F08091A8021A
:10326000886007301C45B0F08091A802806212C0CF
:103270000B303CE5130709F496C078F409309CE55F
:10328000190709F486C08091A8028C600A301C4599
:1032900009F07ACE8093A80277CE8091A8028B7F26
:1032A0000D30BCE51B07B1F38091A8028D7F0E3075
:1032B0001C4580F38091A802877FECCF0B3FFCE593
:1032C0001F0709F45AC048F502313CE5130709F419
:1032D0007AC060F400319CE5190709F470C0809150
:1032E000A8028F7B01311C45A9F24ECE0431BCE50A
:1032F0001B0709F476C008F46CC005311C4509F0C1
:1033000043CE8091A80282FB992790F921E0922771
:1033100090FB82F990FB83F9BDCF0E3F2CE512079D
:1033200009F445C070F40C3F8CE5180751F1809109
:10333000A9028E7F0D3F1C4509F026CE8093A9027D
:1033400023CE0115ADE51A0709F447C040F101305D
:103350001D4509F019CE8091A902982F9095917082
:103360008E7F892B90FB81F9E9CF8091A802816043
:1033700091CF8091A80284608DCF8091A902816055
:10338000DDCF8091A9028260D9CF8091A8028064AC
:1033900081CF0E9453108091A80280687BCF8091DA
:1033A000A9028360CBCF8091A8028E7F73CF8091DA
:1033B000A9028D7FC3CF8091A8028F7E6BCF8091B1
:1033C000A8028F7D67CF0E9453108091A8028F774B
:1033D00061CF8091A802837F5DCF8091A9028C7F0D
:1033E000ADCF0E9453109091A802892F97FB87F9C7
:1033F000805850CF0631FCE51F0709F0DDC28091EF
:1034000089028A7A91E009F490E09093160269E2C9
:10341000811165E386EE91E00E94ED060E947C0733
:10342000F5CE0E94ED0CF2CE8091DC0291E089276E
:103430008093DC02EBCED7010D911C91882309F417
:103440003DC0C8010E94CA0AD82E682FC8010E9438
:10345000EA07B8018D2D0E942E098C01882EF701F4
:10346000A580A2944FE0A422D280D11010928802AD
:1034700080918602877099F0DD2089F0812F807F0E
:10348000803421F080E2800F883048F082E00E9492
:103490001010809186028770CC24C3948111C12CB6
:1034A000B12EB2943FE0B322FBE0FB1508F43DC01F
:1034B000EB2DF0E0E55EF84D0C948125C8010E94EB
:1034C000C107D82EC6CF212F2F70A22E107F19F042
:1034D000A29420EFA222DD20C9F0AA2069F080E2A8
:1034E000800F883010F081100BC080918902A82ACB
:1034F000A09289020E947C07802F0E94461415C06A
:1035000080918802A82AA0928802F4CF802F0E947E
:103510006213AA2051F0005E083010F0811044C000
:103520008A2D0E9475070E947C07EB2DE850FF0B47
:10353000349710F40E947408CC20B1F08091860278
:1035400080FD12C0D70112961C92859585958595B0
:103550000E942810C7010E949716809186028595C7
:10356000859585950E94ED0F85E0F701DE011196A6
:1035700001900D928A95E1F789819A810E94C10795
:103580009A81E981F0E0B6E09B9FE00DF11D1124E6
:1035900024E5829FE00DF11D1124EE0FFF1FE05B7B
:1035A000FD4F85919491E8CBA09480918802A82248
:1035B000A0928802B8CF312F3F70932E107F103227
:1035C00019F0929490EF9922882041F081E08816BA
:1035D00031F1DD2079F1AA2041F18ECFDD2091F08B
:1035E00090918A02892D892BA11003C00E943E0868
:1035F0009CCFA1E0AA12FACF981709F496CF809336
:103600008A0293CFA11006C00E946F07892D0E94E5
:1036100037088BCFB1E0AB1609F487CFF5CFDD20AB
:1036200031F0E1E0EA1508F480CF892DDFCFA11059
:103630007CCFECCFAA2051F3F9E38F1209C02FEF12
:1036400037EE83E0215030408040E1F700C00000B9
:10365000802F0E94621369CF812F86958695837093
:1036600061F0813009F061CFC8019370D11002C0C0
:1036700090E080E00E94480858CFC8019370D110B4
:1036800002C090E080E00E945E084FCF802FDD20D6
:1036900029F00E944C060E94710F47CF0E948505B9
:1036A000FACF812F837009F066C0D1103ECF802FF2
:1036B000829586958770880F880F602F6F70462ED1
:1036C000512C712C612C082E04C0440C551C661C16
:1036D000771C0A94D2F740E050E0BA0104FF0FC013
:1036E0004FE050E060E070E004C0440F551F661FDB
:1036F000771F8A95D2F74095509560957095812FE8
:10370000869586958370823019F1D8F400918B02EA
:1037100010918C0220918D0230918E02813069F0DF
:103720004429552966297729CB01BA0160237123E1
:10373000822393230E944910F8CE402A512A622AFC
:10374000732ACB01BA016429752986299729F2CFFA
:10375000442955296629772900918B0210918C0202
:1037600020918D0230918E02CB01BA016027712722
:1037700082279327DFCF8695DD2011F0812F81707E
:10378000882309F4D2CE802F829586958770880F82
:10379000880F602F6F70462E512C712C612C082ED3
:1037A00004C0440C551C661C771C0A94D2F740E0F8
:1037B00050E0BA0104FF0FC04FE050E060E070E05D
:1037C00004C0440F551F661F771F8A95D2F7409596
:1037D000509560957095812F86958695837082307F
:1037E00019F1D8F40091D6021091D7022091D80295
:1037F0003091D902813069F0442955296629772909
:10380000CB01BA0160237123822393230E94B20F5C
:103810008CCE402A512A622A732ACB01BA0164292C
:10382000752986299729F2CF4429552966297729B0
:103830000091D6021091D7022091D8023091D9027E
:10384000CB01BA016027712782279327DFCF1F7032
:10385000DD2029F0812F0E942810802FC7CE802FD5
:103860000E943708812F0E94ED0F5FCE802F92EFCC
:10387000891609F44EC0981578F0A0EF8A1619F150
:10388000B1EF8B1609F43DC0DD2009F465C0A1102D
:1038900033CE812F8F713AC0E3EF8E1609F43EC00C
:1038A000F4EF8F12F1CFDD2009F44BC01F71812F8F
:1038B0000E94281038E0139FC00111248360809378
:1038C0008602812F23C0DD20B9F0A1102ECE1F71FA
:1038D00061E070E080E090E004C0660F771F881F11
:1038E000991F1A95D2F70091D6021091D702209114
:1038F000D8023091D902A6CF21E02A1508F415CEBE
:10390000E6CF812F8F71DD2009F4ADCF0E94281002
:103910000CCE812F8F71DD20C9F3A5CF60E070E060
:10392000CB01DD2009F472CF1F7161E070E080E00F
:1039300090E004C0660F771F881F991F1A95D2F771
:1039400065CF81E00E94101081E08A1508F0EDCD6E
:1039500082E00E941010E9CDAA2059F0893309F0C5
:1039600077CE9FEFA7EEB3E09150A040B040E1F7D3
:103970006DCE812F8F7177CF85E0F701DE01119633
:1039800001900D928A95E1F7F701228189819A8150
:10399000211108CA0E94C107082F0CCA06311C4514
:1039A00009F049CD8091160269E2811165E386EE46
:1039B00091E00E94C30632CD0F3D2CE5120709F4B9
:1039C00030CD09303DE5130709F42ECD01151C4516
:1039D00009F031CD0E9453102FEF34E38CE02150D9
:1039E00030408040E1F700C00000F89481E080930F
:1039F000E00080E28093D8001092C900AFE1BEE4FD
:103A00001197F1F700C000001DBA109268001CBCAD
:103A100010BE1FBA10927A0010926E0010926F00C2
:103A200010927100109272001092C9001092BC00A6
:103A300014B817B81AB81DB810BA1092BC0015B84F
:103A400018B81BB81EB811BA0C94003FDFCB1F93F7
:103A5000CF93DF9380911C02807FA9F4809119029B
:103A6000882389F080914E02D0911D026091170247
:103A700070911802A0911A02B0911B02C62FC723A1
:103A800016E0D81304C0DF91CF911F91089590E004
:103A9000109711F0CF3F19F401968770F2CF189F5D
:103AA0009001199F300D1124F901E25EFD4F418113
:103AB0004713F2CF40814613EFCF42814111ECCF43
:103AC000438154814A1B5B0B483C510528F7809188
:103AD0001C028F70806180931C02F901ED5DFD4F27
:103AE00080818F708061808387E192E00E949716C9
:103AF000DF91CF911F910C941808AF92BF92CF9293
:103B0000DF92EF92FF920F931F93CF93DF93CDB786
:103B1000DEB761970FB6F894DEBF0FBECDBF8C0144
:103B200085E0F801DE011D9601900D928A95E1F77E
:103B3000F80180819181E28027E1A22E22E0B22E5D
:103B400060911A0270911B026115710509F43EC162
:103B50003091170240911802232F24232F3F09F49C
:103B600035C1C380D480F0901902F601E61BF70B33
:103B7000FF2009F4FBC020911C02522F507FE83C2B
:103B8000F10508F0BBC0511178C0FE2C491321C0CB
:103B900038131FC0E1101DC02F70206120931C023C
:103BA000C5010E94971680911C02F80185838F2D14
:103BB00061960FB6F894DEBF0FBECDBFDF91CF91F7
:103BC0001F910F91FF90EF90DF90CF90BF90AF903B
:103BD0000895CD2829F0282F29232F3F09F014C15B
:103BE00020E0F22FF170DF2E20FF3DC020914E0229
:103BF00040911D0256E0241315C08D879E878D8548
:103C00009E850E940C0B292F22952F702230F8F0F0
:103C1000243020F59F70F9F0F8019581907FD9F458
:103C2000D12C1FC030E0529FF001539FF00D1124A2
:103C3000E25EFD4F6181961306C06081861303C06A
:103C40006281E61210C02F5F3F4F2770D4CF9F7064
:103C500011F0882329F3805E883010F3C8010E9498
:103C60009716FD2CA4CFEE2009F4A1CF80911C0261
:103C7000816080931C02F12C9ACF491312C0381333
:103C800010C0E1100EC0F8012583C8010E949716EC
:103C900086E0F801A7E1B2E001900D928A95E1F784
:103CA00086CF8D879E878D859E850E94160B8823E3
:103CB00009F1EE20F9F080911C02803270F0209121
:103CC00017023091180238872F831986DB86CA863F
:103CD0008C87CE0107960E94971686E0F801A7E12F
:103CE000B2E001900D928A95E1F70E94271DFF2412
:103CF000F3945DCFC8010E949716F9CF51110AC005
:103D000087E192E00E94971686E0F50111928A956C
:103D1000E9F7B1CF49130FC038130DC0E1100BC044
:103D2000F8012583C8010E94971686E0F5011192DB
:103D30008A95E9F73CCF8D879E878D859E850E9469
:103D4000160B8823B9F2EE20A9F280911C02803272
:103D500020F220911702309118023A8329831B82A6
:103D6000DD82CC828E83CE010196B5CFE83CF10591
:103D7000E0F6FE2CEE2009F4BDCF491316C038132F
:103D800014C080911C0280FD83CF982F907F09F48E
:103D90007FCFF8018583903F09F477CF982F907FEC
:103DA000905F8F70892B858370CF8D879E878D85DF
:103DB0009E850E94160B811190CF80911C0281601C
:103DC00080931C02C8010E949716F1CEEE2009F4E0
:103DD00091CF8D879E878D859E850E94160BF82E2C
:103DE000882309F487CF86E0F801A7E1B2E00190CB
:103DF0000D928A95E1F780911702909118020E9426
:103E00000C0B0E94271DD3CE21E02E25EACE1F9356
:103E1000CF93DF93CDB7DEB767970FB6F894DEBFC9
:103E20000FBECDBF4B8B5C8B6D8B7E8B8F8B1A8ABD
:103E3000198A85E0FE017396DE011D9601900D92B0
:103E40008A95E1F786E0FE013D96DE011796019026
:103E50000D928A95E1F7CE0107960E947D1D811192
:103E600012C086E0FE013796DE01119601900D9298
:103E70008A95E1F78A859B85892B29F08F81988522
:103E800089238F3FB1F516E080914E0290911D027B
:103E900089131DC067960FB6F894DEBF0FBECDBF65
:103EA000DF91CF911F91089596E0929FD001939F4B
:103EB000B00D1124A25EBD4FFE01319601900D920E
:103EC0009A95E1F780931D020E941808DCCF819F2C
:103ED000C0011124825E9D4F0E947D1D8823D1F276
:103EE00080914E0290E001968770992780934E0250
:103EF000CBCF20911D0230E0C90101968770992730
:103F000040914E024817190679F60E9453101092FC
:103F10001D0210924E0286E0E7E1F2E0DF011D9201
:103F20008A95E9F7B0CF8F929F92BF92CF92DF929E
:103F3000EF92FF920F931F93CF93DF9380918D01A8
:103F400090918E01892B91F0809107028F5F809371
:103F5000070281110BC00E94BC0D90E090938E016E
:103F600080938D01892B11F40E94730CEAE98E2E47
:103F7000E2E09E2E740110E000E077E0C72EC00E54
:103F8000802F0E94680D8C2D0E94680D802F0E944A
:103F9000330EE70199917E01D12C891729F0FE019A
:103FA00031978083DD24D3948C2D0E94330EF7014A
:103FB0009681891709F47AC0868381E08D29182BB0
:103FC0000E94AD0B0F5F0730C1F60E94650F609134
:103FD000090270910A0290930A02809309022091CB
:103FE000080230E0261B370B820F931F6BEF70E047
:103FF0000E945925E82E392F082F80930802F0904F
:104000000C02FF2009F4E4C010920C02E09194022B
:10401000F0919502AF01425F5F4F20E06BEFB62E4B
:104020006BEF70E0A191AB3F99F0CA2ED12C8E2D91
:10403000932F0A17E8F18C199D09092E000CAA0B81
:10404000BB0B4E97A105B105C8F1DF011197BC92DA
:104050004E175F0739F720930C02111102C021118E
:10406000B9C010920B02A0919402B0919502909168
:104070000C02EDEAF2E080E03191E40129914E0179
:10408000321751F03C913B3FD9F40C93AF014150B2
:104090005109EA01288391E01196D2E0EB3BFD073C
:1040A00059F790930C0280930B0298C080E086CF62
:1040B000DB01AC19BD098A0F9B1FBFCF2F2DC8CFC5
:1040C00081E0EACFF29EF001F39EF00D1124E85F4B
:1040D000FE4FC288D388C114D10419F498ECC92EBC
:1040E000D12CF29EE001F39ED00D1124C85FDE4F6B
:1040F0008E818823B9F08D859E850E94B406C816EE
:10410000D90680F40F9D600111248989811105C0B1
:10411000C601885F9E4F0E948008C601825F9E4F45
:104120000E94A1080F5F202F30E080918C01082EA3
:10413000000C990B821793072CF655C000E086E11E
:10414000F82EF1CF009789F40E946A0B0E94670B4A
:104150000E94640BC0910D02CC23B9F10E94670B41
:1041600081E0C827C0930D0203C09170892B91F3A1
:1041700080910E0290910F028130984780F010924A
:10418000DC026091D6027091D7028091D8029091A2
:10419000D9020E94790B10920F0210920E028091A8
:1041A0000E0290910F02019690930F0280930E02DF
:1041B000812FDF91CF911F910F91FF90EF90DF90B2
:1041C000CF90BF909F908F9008950E94730BC8CF9F
:1041D000111147CF80910B02811143CF80918C0147
:1041E0008F3F09F0ABCF80910E0290910F0220918A
:1041F000DC022111A7CF892BD9F210920F02109265
:104200000E026091D6027091D7028091D8029091EF
:10421000D9020E94790BCCCFCDB7DEB7C955D109F1
:104220000FB6F894DEBF0FBECDBF84B7877F84BFC3
:104230000FB6F894A8958091600088618093600023
:10424000109260000FBE80E890E00FB6F894809363
:104250006100909361000FBE85B7806885BF85B708
:10426000806885BF0E9480030E944D048091E20017
:1042700084608093E2007894809102038823A1F007
:104280001091E9001F709091EC00892F817090FDD2
:1042900080E8182B1092E9008091E80083FD0E94CD
:1042A00068101F701093E90082E084BD93E095BD13
:1042B0009AEF97BD80936E000E94BC0D90E09093A2
:1042C0008E0180938D010E94AD0B0E94BC0BEAE928
:1042D000F2E06DEA662E62E0762E88EA92E0D30183
:1042E00011921D928E179F07D9F78EE090E00E94E1
:1042F000CF258093940290939502FC010E962BEFAC
:1043000021938E179F07E1F790E080E00E949525AA
:104310008F3E9E4F11F00E94ED0C89EA8093800041
:1043200089E08093810024982C983F988AB18F7CF3
:104330008AB96E98479A8BB180638BB9769A8FE071
:1043400090E00E948F25609396027093970280936D
:1043500098029093990267704FEF649FB001112407
:104360007595679575956795772770938900609324
:10437000880070938B0060938A0070938D00609327
:104380008C000E94730C90E080E00E9495258F3E87
:104390009E4F11F00E94ED0C82E090E00E94872574
:1043A0008093C7020E94C90B9093A9028093A80230
:1043B00083E090E00E948725682F70E090E080E025
:1043C0000E9449106091D6027091D7028091D80264
:1043D0009091D9020E94790B8FE891E09093AB0203
:1043E0008093AA0228E1C22ED12C3BEBA32E32E00F
:1043F000B32E41E4842E912C8C0E9D1EF2E08F0E84
:10440000911C80910203853081F480E4F82E9EE0B7
:10441000E92EE60C00E112E180910203853009F4F7
:1044200052C10E9453100E9474080E94931FE8EC2E
:10443000F2E0ADEAB2E010E000E0302F8D91219182
:10444000281709F48AC190E0FF24F3942827422F0B
:104450004F2109F47DC161969FAF619762963FAF8E
:1044600062978F2191E009F490E063969FAF639784
:104470000E94650F8160782F65969FAF8EAF65971C
:1044800061964FAD619762965FAD629763966FAD2F
:10449000639765968FAD65970E94071FF801E853F3
:1044A000FD4F8081F826F08285E0E1ECF2E0DE014C
:1044B000119601900D928A95E1F7F090C202E0907A
:1044C000C3021091C4020091C5021092C202109260
:1044D000C3021092C4021092C5028F2D8E2909F4D6
:1044E00048C08091BF029091C0020E94B4069C0116
:1044F0009091BE02992309F4F8C12E303105C8F11C
:104500009F3F19F09F5F9093BE02FF2059F00E94D9
:1045100028069FEF1F140CF491E0899F802D112431
:104520008093C202EE2059F00E9428069FEF1E14CD
:104530000CF491E0899F802D11248093C302309167
:10454000C2023323B1F02091C302222391F045EB44
:104550003403C0011124992309F426C19093C202A7
:1045600045EB240390011124332309F421C1309336
:10457000C302812F802B09F448C08091BC02909126
:10458000BD020E94B4069C019091BB02992309F4DC
:10459000A8C12E303105C8F19F3F19F09F5F90935D
:1045A000BB02112359F00E9408069FEF11160CF46C
:1045B00091E0899F802D11248093C402002359F03B
:1045C0000E9408069FEF10160CF491E0899F802D41
:1045D00011248093C5023091C4023323B1F020919D
:1045E000C502222391F045EB3403C0011124992325
:1045F00009F4E2C09093C40245EB24039001112416
:10460000332309F4DDC03093C5028091C20290913A
:10461000C302892B9091C402892B9091C502892BEA
:1046200011F00E94710F85E0FE013196A1ECB2E01D
:1046300001900D928A95E1F70E9474089091C6024C
:10464000891721F00E9474088093C60280910203AA
:10465000843009F0D6CE85E08093E9008091E800AF
:1046600082FFCFCE8091E80090E085FF06C00E94D7
:104670009F03882309F4A8C091E08091E8008B771C
:104680008093E800992309F4BCCE19811111B8C0B8
:104690008091DC02882309F4CEC01092DC0281E014
:1046A0008093DB0222961FAE229723961FAE23979C
:1046B0008EEF24968FAF249763E0CE018F5B9F4FE0
:1046C0000E946E059ECE80910203843009F1109203
:1046D000AC020FB6F894A895C09260000FBEF0929D
:1046E000600083B7817F846083BF83B7816083BFAD
:1046F0007894889583B78E7F83BF0FB6F894A8957A
:1047000080916000886180936000109260000FBE0D
:1047100080910103882309F47FCE0E94BC0D90E0B4
:1047200090938E0180938D010E94AD0B0E94BC0B73
:10473000EDEAF2E01192AE16BF06E1F70E94931F78
:10474000EDEAF2E081918111B6C0EE12FBCF64CEAA
:104750009F5FFF0C963009F07ACE0F5F1F4F0E302F
:10476000110509F06ACE8FEF66968FAF6697679650
:104770008FAF679768961FAE68970E94650F81603C
:10478000782F6A969FAF8EAF6A9766964FAD669701
:1047900067965FAD679768966FAD68976A968FADBD
:1047A0006A970E94071F80CE81E08093C202D8CE14
:1047B00081E08093C302DDCE81E08093C4021CCFF0
:1047C00081E08093C50221CF00E410E0CE01019684
:1047D0007C018091E80085FD0AC08091E8008B771C
:1047E0008093E8000E949F03882399F345CF80912E
:1047F000F100F70181937F010150110951F73CCF7E
:104800001130C9F422961FAE229723961FAF23972B
:104810008CE0EAE9F1E0D40101900D928A95E1F78C
:104820008EEF60968FAF60976FE0CE018F5B9F4FEA
:104830000E946E05E6CD8091DB028823D1F1123013
:1048400041F01330F9F081E022968FAF229761E0BA
:1048500034CF6091D6027091D7028091D8029091A6
:10486000D9020E94220722961FAE229723961FAFDD
:10487000239724968FAF24978EEF25968FAF259799
:1048800064E01BCF8A81813041F0882341F082307F
:10489000D1F681E08093DA0202C01092DA02229609
:1048A0001FAE229783E023968FAF23978091DA0281
:1048B000E0CF8FEFC9CF09BD19BD09B400FEFDCF10
:1048C0008091D8008F7D8093D8008091E000826035
:1048D0008093E0008091E00081FDFCCF0E945310A6
:1048E0009BCD232B09F05ACE90CE232B09F00ACE74
:1048F00040CE1F921FB61F9211248F939F93AF93A8
:10490000BF938091AC02811113C080918F0290916E
:104910009002A0919102B09192024196A11DB11D09
:1049200080938F0290939002A0939102B093920291
:10493000BF91AF919F918F911F901FBE1F901895AF
:104940001092B9008CE08093B8000895EF92FF9226
:104950000F931F93CF93DF93182FEB011092BC009E
:1049600084EA8093BC000E94650F7C018091BC00AA
:1049700087FF27C08091B900887F883029F0809117
:10498000B900887F8031D9F51093BB0084E880930B
:10499000BC000E94650F8C018091BC0087FF24C081
:1049A0002091B900287F90E080E02831B1F081E0CB
:1049B00090E0203411F490E080E091958195910988
:1049C0000CC0CF3FDC0791F20E94650F8E199F0942
:1049D0008C179D0758F28EEF9FEFDF91CF911F91BB
:1049E0000F91FF90EF900895CF3FDC07A9F20E944E
:1049F000650F801B910B8C179D0770F2ECCF8FEF2A
:104A00009FEFEBCF0F931F93CF93DF93EB01809337
:104A1000BB0084E88093BC000E94650F8C018091EC
:104A2000BC0087FF11C02091B900287F81E090E091
:104A3000283211F490E080E0919581959109DF9101
:104A4000CF911F910F910895CF3FDC0741F30E9452
:104A5000650F801B910B8C179D0708F38EEF9FEF5E
:104A6000EECF0F931F93CF93DF93EC0184E88093F5
:104A7000BC000E94650F8C018091BC0087FF08C0BC
:104A80008091BB0090E0DF91CF911F910F9108952D
:104A9000CF3FDC0789F30E94650F801B910B8C17B9
:104AA0009D0750F38EEF9FEFEECF84E98093BC001B
:104AB0000895AA1BBB1B51E107C0AA1FBB1FA61765
:104AC000B70710F0A61BB70B881F991F5A95A9F7B7
:104AD00080959095BC01CD01089597FB072E16F4A3
:104AE000009407D077FD09D00E94592507FC05D016
:104AF0003EF4909581959F4F0895709561957F4FF5
:104B00000895EE0FFF1F0590F491E02D0994F99997
:104B1000FECF92BD81BDF89A992780B50895A6E190
:104B2000B0E044E050E00C94C125A8E1B0E042E0E0
:104B300050E00C94C125262FF999FECF92BD81BD7E
:104B4000F89A019700B4021639F01FBA20BD0FB6CB
:104B5000F894FA9AF99A0FBE08950396272F0E94A7
:104B60009C250E949B25252F0E949C25242F0C9478
:104B70009C250196272F0E949C250C949B25DC01E7
:104B8000CB01FC01F999FECF06C0F2BDE1BDF89A58
:104B9000319600B40D9241505040B8F708950F93EC
:104BA0001F93CF93DF938230910510F482E090E061
:104BB000E0911103F091120330E020E0B0E0A0E0BA
:104BC000309799F42115310509F447C0281B390B9A
:104BD00024303105C0F58A819B816115710571F121
:104BE000FB0193838283FE0111C0408151810281C8
:104BF000138148175907F8F04817590799F4109787
:104C000061F012960C93129713961C933296CF0173
:104C1000DF91CF911F910F9108950093110310938D
:104C20001203F4CF2115310519F04217530718F478
:104C30009A01BD01EF01DF01F801C2CF9093120389
:104C400080931103D0CFFE01E20FF31F8193919364
:104C50002250310939832883DACF20910F03309114
:104C60001003232B41F42091020130910301309372
:104C7000100320930F0320910001309101012115B1
:104C8000310541F42DB73EB7409104015091050123
:104C9000241B350B40910F0350911003421753070B
:104CA00008F0B5CF241B350B2817390708F4AFCF10
:104CB000BC016E5F7F4F2617370708F4A8CF640F3B
:104CC000751F7093100360930F03FA018193919302
:104CD0009ECFCF93DF930097E9F0FC0132971382C8
:104CE0001282C0911103D0911203DE0130E020E066
:104CF0002097A1F420813181820F931F20910F030F
:104D0000309110032817390709F067C0F09310039A
:104D1000E0930F03DF91CF910895DA01AE17BF073B
:104D200008F040C012964D915C9113979D0141157A
:104D3000510599F7D9011396FC93EE9312974D9173
:104D40005D91A40FB51FEA17FB0779F4808191816B
:104D50000296840F951FD90111969C938E938281A0
:104D6000938113969C938E931297B0E0A0E08A8172
:104D70009B810097B9F5FE0181919191E80FF91F90
:104D800080910F03909110038E179F0719F61097CB
:104D900061F51092120310921103D0931003C09387
:104DA0000F03B8CFB383A28340815181840F951F35
:104DB000A817B90771F44E5F5F4F8D919C911197C1
:104DC000480F591F5183408312968D919C91938374
:104DD00082832115310509F0ADCFF0931203E093E2
:104DE000110398CFDE01EC01C2CF13961C921E92E4
:104DF0001297D3CFF894FFCF250B250B2E0B2E0B3C
:104E0000300B2E0B2E0B2E0B250B250B350B2E0BE3
:104E10002E0B350B940BA00BA50B9E0BA30BAA0B13
:104E2000A80B8911B1110613B1110613E411051273
:104E30000613B112BE12631A631ADB1ADB1A2C1B9B
:0E4E4000461B951A951A511B271C361C361C52
:104E4E000000130320000100E5157A162714000058
:104E5E000000000000000000000000000000C71568
:104E6E0063160F1400000000000000000000000098
:104E7E0000000000A9154B16F513000000000000FD
:104E8E00000000000000000000008B153316DB133D
:104E9E000000000000000000000000000000000004
:104EAE006D151B16C113000000000000000000006D
:104EBE000000000000004F150316A71300000000AD
:104ECE00000000000000000000000000FF20006B4A
:104EDE0005330C120C0E0C0A0C0167597765652F01
:104EEE004C5741423600818283E200E900EA00B568
:104EFE0000B600B700CD008301CC008A0192019468
:104F0E00012102230224022502260227022A02B3CD
:104F1E0000B4006F007000404D6D66011901AC00C9
:064F2E00D005E9050206B2
:00000001FF
